:020000040800F2
:1000000000800120153A000895380008973800084C
:10001000993800089B3800089D380008000000004F
:100020000000000000000000000000009F380008F1
:10003000A138000800000000A3380008A538000817
:10004000653A0008653A0008653A0008653A000814
:10005000653A0008653A0008653A0008653A000804
:10006000653A0008653A0008653A0008653A0008F4
:10007000653A0008653A0008653A0008653A0008E4
:10008000653A0008653A0008653A0008653A0008D4
:10009000653A0008653A0008653A0008653A0008C4
:1000A000653A0008653A0008653A0008653A0008B4
:1000B000653A0008653A0008653A0008653A0008A4
:1000C000653A0008653A0008653A0008653A000894
:1000D000653A0008653A0008653A0008653A000884
:1000E000653A0008653A0008653A0008653A000874
:1000F000653A0008653A0008653A0008653A000864
:10010000653A0008653A0008653A0008653A000853
:10011000653A0008653A0008653A0008653A000843
:10012000653A0008653A0008653A0008653A000833
:10013000653A0008653A0008653A0008653A000823
:10014000653A0008653A0008653A0008653A000813
:10015000653A0008653A0008653A0008653A000803
:10016000653A0008653A0008653A0008653A0008F3
:10017000653A0008653A0008653A0008000000008A
:08018000653A0008653A000829
:1001900010B5054C237833B9044B13B10448AFF3C1
:1001A00000800123237010BD6800002000000000C3
:1001B0008449000808B5034B1BB103490348AFF35A
:1001C000008008BD000000006C0000208449000889
:1001D00001F0FF01102A2BDB10F0070F08D010F8F8
:1001E000013B013A8B422DD010F0070F42B3F6D1FC
:1001F000F0B441EA012141EA014122F007047FF015
:1002000000070023F0E80256083C85EA010586EA6B
:10021000010685FA47F5A3FA87F586FA47F6A5FAA7
:1002200087F68EB9EED1F0BC01F0FF0102F00702B3
:1002300032B110F8013B013A83EA010313B1F8D15E
:100240000020704701387047002D06BF354603383F
:10025000073815F0010F07D1013015F4807F02BF78
:10026000013015F4C03F0130F0BC0138704700BFC9
:1002700081F0004102E000BF83F0004330B54FEA57
:1002800041044FEA430594EA050F08BF90EA020FC4
:100290001FBF54EA000C55EA020C7FEA645C7FEA57
:1002A000655C00F0E2804FEA5454D4EB5555B8BF7A
:1002B0006D420CDD2C4480EA020281EA030382EAEB
:1002C000000083EA010180EA020281EA0303362D7D
:1002D00088BF30BD11F0004F4FEA01314FF4801C50
:1002E0004CEA113102D0404261EB410113F0004F62
:1002F0004FEA03334CEA133302D0524263EB430319
:1003000094EA050F00F0A780A4F10104D5F1200EB6
:100310000DDB02FA0EFC22FA05F2801841F1000111
:1003200003FA0EF2801843FA05F359410EE0A5F1E5
:1003300020050EF1200E012A03FA0EFC28BF4CF016
:10034000020C43FA05F3C01851EBE37101F00045CC
:1003500007D54FF0000EDCF1000C7EEB00006EEBD9
:100360000101B1F5801F1BD3B1F5001F0CD3490863
:100370005FEA30004FEA3C0C04F101044FEA4452BA
:1003800012F5800F80F09A80BCF1004F08BF5FEA41
:10039000500C50F1000041EB045141EA050130BD21
:1003A0005FEA4C0C404141EB010111F4801FA4F1C4
:1003B0000104E9D191F0000F04BF01460020B1FA19
:1003C00081F308BF2033A3F10B03B3F120020CDA51
:1003D0000C3208DD02F1140CC2F10C0201FA0CF02F
:1003E00021FA02F10CE002F11402D8BFC2F1200C94
:1003F00001FA02F120FA0CFCDCBF41EA0C0190404A
:10040000E41AA2BF01EB0451294330BD6FEA040492
:100410001F3C1CDA0C340EDC04F11404C4F120027D
:1004200020FA04F001FA02F340EA030021FA04F38F
:1004300045EA030130BDC4F10C04C4F1200220FAE6
:1004400002F001FA04F340EA0300294630BD21FA24
:1004500004F0294630BD94F0000F83F4801306BFEA
:1004600081F480110134013D4EE77FEA645C18BFDE
:100470007FEA655C29D094EA050F08BF90EA020F75
:1004800005D054EA000C04BF1946104630BD91EA6D
:10049000030F1EBF0021002030BD5FEA545C05D170
:1004A0004000494128BF41F0004130BD14F58004AF
:1004B0003CBF01F5801130BD01F0004545F0FE4123
:1004C00041F470014FF0000030BD7FEA645C1ABF58
:1004D000194610467FEA655C1CBF0B46024650EA8F
:1004E000013406BF52EA033591EA030F41F40021BB
:1004F00030BD00BF90F0000F04BF0021704730B541
:100500004FF4806404F132044FF000054FF0000115
:1005100050E700BF90F0000F04BF0021704730B5D6
:100520004FF4806404F1320410F0004548BF4042AB
:100530004FF000013EE700BF42004FEAE2014FEA00
:1005400031014FEA02701FBF12F07F4393F07F4FDB
:1005500081F06051704792F0000F14BF93F07F4F0D
:10056000704730B54FF4607401F0004521F0004150
:1005700020E700BF50EA010208BF704730B54FF0D6
:1005800000050AE050EA010208BF704730B511F0DB
:10059000004502D5404261EB41014FF4806404F113
:1005A00032045FEA915C3FF4DCAE4FF003025FEA95
:1005B000DC0C18BF03325FEADC0C18BF033202EB1D
:1005C000DC02C2F1200300FA03FC20FA02F001FA77
:1005D00003FE40EA0E0021FA02F11444C1E600BF16
:1005E00070B54FF0FF0C4CF4E06C1CEA11541DBFC9
:1005F0001CEA135594EA0C0F95EA0C0F00F0DEF894
:100600002C4481EA030621EA4C5123EA4C5350EA78
:10061000013518BF52EA033541F4801143F48013C9
:1006200038D0A0FB02CE4FF00005E1FB02E506F05A
:100630000042E0FB03E54FF00006E1FB03569CF0AF
:10064000000F18BF4EF0010EA4F1FF04B6F5007FB5
:1006500064F5407404D25FEA4E0E6D4146EB060627
:1006600042EAC62141EA55514FEAC52040EA5E50B0
:100670004FEACE2EB4F1FD0C88BFBCF5E06F1ED85A
:10068000BEF1004F08BF5FEA500E50F1000041EB91
:10069000045170BD06F0004646EA010140EA02003E
:1006A00081EA0301B4EB5C04C2BFD4EB0C0541EA60
:1006B000045170BD41F480114FF0000E013C00F375
:1006C000AB8014F1360FDEBF002001F0004170BD99
:1006D000C4F10004203C35DA0C341BDC04F11404B2
:1006E000C4F1200500FA05F320FA04F001FA05F23E
:1006F00040EA020001F0004221F0004110EBD3700B
:1007000021FA04F642EB06015EEA430E08BF20EA36
:10071000D37070BDC4F10C04C4F1200500FA04F3D9
:1007200020FA05F001FA04F240EA020001F000416B
:1007300010EBD37041F100015EEA430E08BF20EADE
:10074000D37070BDC4F1200500FA05F24EEA020E26
:1007500020FA04F301FA05F243EA020321FA04F055
:1007600001F0004121FA04F220EA020000EBD3700C
:100770005EEA430E08BF20EAD37070BD94F0000F0C
:100780000FD101F00046400041EB010111F4801F40
:1007900008BF013CF7D041EA060195F0000F18BFF1
:1007A000704703F00046520043EB030313F4801F2D
:1007B00008BF013DF7D043EA0603704794EA0C0FE7
:1007C0000CEA135518BF95EA0C0F0CD050EA4106FD
:1007D00018BF52EA4306D1D181EA030101F000417A
:1007E0004FF0000070BD50EA410606BF10461946A2
:1007F00052EA430619D094EA0C0F02D150EA0136AE
:1008000013D195EA0C0F05D152EA03361CBF1046EE
:1008100019460AD181EA030101F0004141F0FE418D
:1008200041F470014FF0000070BD41F0FE4141F411
:10083000780170BD70B54FF0FF0C4CF4E06C1CEA11
:1008400011541DBF1CEA135594EA0C0F95EA0C0FC6
:1008500000F0A7F8A4EB050481EA030E52EA033581
:100860004FEA013100F088804FEA03334FF08055A2
:1008700045EA131343EA12634FEA022245EA1115CF
:1008800045EA10654FEA00260EF000419D4208BF80
:10089000964244F1FD0404F5407402D25B084FEA2D
:1008A0003202B61A65EB03055B084FEA32024FF4D9
:1008B00080104FF4002CB6EB020E75EB030E22BF36
:1008C000B61A754640EA0C005B084FEA3202B6EBF6
:1008D000020E75EB030E22BFB61A754640EA5C00A5
:1008E0005B084FEA3202B6EB020E75EB030E22BF35
:1008F000B61A754640EA9C005B084FEA3202B6EB36
:10090000020E75EB030E22BFB61A754640EADC00F4
:1009100055EA060E18D04FEA051545EA16754FEA56
:1009200006164FEAC30343EA52734FEAC2025FEA74
:100930001C1CC0D111F4801F0BD141EA00014FF003
:1009400000004FF0004CB6E711F4801F04BF0143D4
:100950000020B4F1FD0C88BFBCF5E06F3FF6AFAEF0
:10096000B5EB030C04BFB6EB020C5FEA500C50F180
:10097000000041EB045170BD0EF0004E4EEA113103
:1009800014EB5C04C2BFD4EB0C0541EA045170BD0A
:1009900041F480114FF0000E013C90E645EA060E4E
:1009A0008DE60CEA135594EA0C0F08BF95EA0C0F7C
:1009B0003FF43BAF94EA0C0F0AD150EA01347FF4C4
:1009C00034AF95EA0C0F7FF425AF104619462CE79B
:1009D00095EA0C0F06D152EA03353FF4FDAE1046FE
:1009E000194622E750EA410618BF52EA43067FF44F
:1009F000C5AE50EA41047FF40DAF52EA43057FF4DF
:100A0000EBAE12E753B94AB9002908BF00281CBF52
:100A10004FF0FF314FF0FF3000F07AB9ADF1080C24
:100A20006DE904CE00F006F8DDF804E0DDE902230C
:100A300004B070472DE9F0478C460D460446089EE9
:100A4000002B51D18A4217466DD9B2FA82FEBEF10F
:100A5000000F0BD0CEF1200C01FA0EF520FA0CFCA1
:100A600002FA0EF74CEA050C00FA0EF44FEA174AA8
:100A7000250CBCFBFAF81FFA87F90AFB18CC45EAEB
:100A80000C4508FB09F3AB420AD9ED1908F1FF3216
:100A900080F02381AB4240F22081A8F102083D445E
:100AA000ED1AA4B2B5FBFAF00AFB105544EA05446E
:100AB00000FB09F9A14509D9E41900F1FF3380F0E1
:100AC0000A81A14540F2078102383C44A4EB0904A5
:100AD00040EA08400021002E61D024FA0EF40023E1
:100AE00034607360BDE8F0878B4207D9002E54D084
:100AF000002186E821000846BDE8F087B3FA83F1BB
:100B0000002940F08E80AB4202D3824200F2FA808C
:100B1000841A65EB03050120AC46002E3FD086E821
:100B20001010BDE8F08712B90127B7FBF2F7B7FA4A
:100B300087FEBEF1000F34D1EB1B3A0C1FFA87FC85
:100B40000121B3FBF2F8250C02FB183345EA0345FB
:100B50000CFB08F3AB4207D9ED1908F1FF3002D2C4
:100B6000AB4200F2D1808046ED1AA3B2B5FBF2F0A1
:100B700002FB105543EA05440CFB00FCA44507D9D1
:100B8000E41900F1FF3302D2A44500F2B880184600
:100B9000A4EB0C0440EA08409DE731463046BDE82E
:100BA000F087CEF1200405FA0EF307FA0EF720FACB
:100BB00004F83A0C25FA04F448EA0308B4FBF2F10D
:100BC0004FEA184502FB11441FFA87FC45EA044529
:100BD00001FB0CF3AB4200FA0EF409D9ED1901F157
:100BE000FF3080F08A80AB4240F2878002393D447A
:100BF000EB1A1FFA88F5B3FBF2F002FB103345EA5B
:100C0000034500FB0CF3AB4207D9ED1900F1FF38A7
:100C10006FD2AB426DD902383D44EB1A40EA014134
:100C20008FE7C1F1200722FA07F88B4005FA01F49B
:100C300048EA030320FA07FE4FEA134CFD404EEA50
:100C4000040EB5FBFCF94FEA1E440CFB19551FFAC4
:100C500083F844EA054509FB08F4AC4202FA01F2C4
:100C600000FA01FA08D9ED1809F1FF3043D2AC427D
:100C700041D9A9F102091D442D1B1FFA8EFEB5FBB7
:100C8000FCF00CFB10554EEA054400FB08F8A045AB
:100C900007D9E41800F1FF3529D2A04527D9023839
:100CA0001C4440EA0940A4EB0804A0FB02894C451F
:100CB000C6464D4615D312D056B1BAEB0E0364EBBF
:100CC000050404FA07F7CB401F43CC40376074603B
:100CD0000021BDE8F0871846F8E69046E0E6C245F8
:100CE000EAD2B8EB020E69EB03050138E4E72846C7
:100CF000D7E7404691E78146BEE7014678E70238EC
:100D00003C4445E7084608E7A8F102083D442BE7C4
:100D1000704700BF38B50A4B054618684FF47A7320
:100D2000B0FBF3F000F086F8044638B902462946D5
:100D30004FF0FF3000F04AF8204638BD012038BDA2
:100D400000000020094A136843F4807310B50320A3
:100D5000136000F029F80020FFF7DCFF044618B903
:100D600002F080FD204610BD0124FBE70020024078
:100D7000024A136801331360704700BF90000020DF
:100D8000014B1868704700BF9000002038B504463A
:100D9000FFF7F6FF631C054618BF0134FFF7F0FFAD
:100DA000401B8442FAD838BD074AD36823F4E06375
:100DB0001B041B0C43F0BF63000243F4003300F438
:100DC000E0600343D360704700ED00E0174B30B59F
:100DD000DC68C4F30224C4F10703251D042B28BFDB
:100DE0000423062D4FF0010505FA03F303F1FF3349
:100DF0008CBF033C00241940A14005FA04F4013CD7
:100E00002240002842EA01024FEA0212AFBF00F17D
:100E1000604000F00F00064BD2B2A5BF00F5614064
:100E2000D2B21A5480F8002330BD00BF00ED00E0BC
:100E300014ED00E00138B0F1807F0AD2064B074A7A
:100E40005860F02182F823100020072298601A6071
:100E500070470120704700BF10E000E000ED00E0A7
:100E60002DE9F04F85B00B68DFF8A881674C01933E
:100E70000023019ADA4002D105B0BDE8F08F0126C7
:100E8000019A9E4012EA060E00F0B1804A6822F0F4
:100E90001007022F16D14FEAD30900EB890903F09E
:100EA000070AD9F820504FEA8A0A4FF00F0C0CFAC3
:100EB0000AFC25EA0C0C0D6905FA0AF545EA0C0551
:100EC000C9F820504FEA430C0325D0F800B005FACA
:100ED0000CF5ED4302F0030A0BEA050B0AFA0CF9D4
:100EE000013F49EA0B09012FC0F8009011D887682B
:100EF00005EA0709CF6807FA0CF747EA0907876090
:100F0000476827EA0609C2F300179F4047EA090726
:100F10004760BAF1030F07D1C76A27EA0606C2F392
:100F2000C0079F403E43C662C66835408E6806FAD9
:100F30000CF63543C560D50059D5D8F8605045F05A
:100F40000105C8F86050D8F8605023F0030606F198
:100F5000804605F0010506F58036039503F0030C85
:100F6000039DB5684FEA8C0C0F2707FA0CF7B0F118
:100F7000904F25EA07073CD0254DA8423BD005F508
:100F80008065A84239D005F58065A84237D005F5BF
:100F90008065A84235D005F58065A84233D005F5B7
:100FA0008065A84214BF0725062505FA0CF53D43C8
:100FB000B56025686FEA0E06D70354BF35404EEA88
:100FC000050525606568970354BF35404EEA050561
:100FD0006560A568D70254BF35404EEA0505A56097
:100FE000E568920254BF35404EEA0505E5600133DD
:100FF0003FE70025D9E70125D7E70225D5E70325F7
:10100000D3E70425D1E70525CFE700BF0004014061
:1010100000040048001002400AB1816170478162FB
:10102000704703689A69910744BF00229A629A69DF
:10103000D2075EBF9A6942F001029A61704730B5EB
:10104000039C05682343640D04F4806444F07F74BA
:1010500044F458346868C1F3090144F47F741943B7
:1010600044F0030441EA024120EA04042143696098
:1010700030BD2DE9F041069F0446884616461D46C0
:101080002268936938EA03030CBF01230023B342AB
:1010900002D00020BDE8F0816B1CF2D0FFF770FE9B
:1010A000C01B854201D3002DEAD1636C43F02003BD
:1010B0006364202384F84130002384F8423084F8AC
:1010C00040300120BDE8F081036870B5044698699E
:1010D00010F010000D46164616D170BD691C14D0D4
:1010E000FFF74EFE801B854200D36DB9636C43F061
:1010F00020036364202384F84130002384F84230C5
:1011000084F84030012070BD236899698A06E5D5CE
:1011100010222025DA612046DD61FFF782FF226878
:10112000536823F0FF7323F48B3323F4FF7323F00E
:1011300001035360636C43F00403636484F841501B
:10114000DBE770B504460D46164623689B699B078E
:1011500001D5002070BD324629462046FFF7B4FF76
:10116000A0B96A1CF1D0FFF70BFE801B854201D3AA
:10117000002DEAD1636C43F020036364202384F8DC
:101180004130002384F8423084F84030012070BDA3
:10119000F7B5099E1F46164B0093054614464FF0BF
:1011A0008073FAB2FFF74BFF324608992846FFF7E3
:1011B000C8FF10B1012003B0F0BD012F2B680CD186
:1011C000E4B29C62089B0096002280212846FFF72B
:1011D00050FF003018BF0120EDE7220A9A620899FB
:1011E00032462846FFF7ADFF0028E3D12B68E7E73A
:1011F00000200080F7B5099E1F46164B0093054658
:1012000014460023FAB2FFF71AFF3246089928461F
:10121000FFF797FF10B1012003B0F0BD012F2B683D
:101220000CD1E4B29C62089B009600224021284623
:10123000FFF71FFF003018BF0120EDE7220A9A6276
:10124000089932462846FFF77CFF0028E3D12B6837
:10125000E7E700BF0020008070B504460D46164643
:1012600023689B699B0601D5002070BD3246294644
:101270002046FFF729FF90B9FFF782FD801B8542CA
:1012800001D3002DECD1636C43F020036364202371
:1012900084F84130002384F8423084F84030012043
:1012A00070BD70B504460D46164623689B695B0702
:1012B0000ED4324629462046FFF706FFF0B92368D0
:1012C0009A6991061CD59A69520703D5228D0AB1F5
:1012D000002070BD2021D9615A6822F0FF7222F4EB
:1012E0008B3222F4FF7222F001025A600023636401
:1012F00084F8411084F8423084F84030012070BDF9
:10130000FFF73EFD801B854201D3002DCDD1636CDC
:1013100043F020036364202384F841300023EBE78B
:1013200010B5044600284AD090F8413003F0FF027F
:101330001BB980F8402002F0C1F8242384F8413022
:101340002368E1681A6822F001021A60626822F0DC
:1013500070621A619A68012922F400429A60A268B8
:1013600024D142F400429A605A68616942F00072E6
:1013700042F400425A60DA6822F40042DA602269DC
:101380000A43A16942EA0122DA60216AE2690A435A
:101390001A601A6842F001021A600020202360647B
:1013A00084F84130206384F8420010BD42F40442C6
:1013B00002299A6004BF4FF400625A60D4E701200A
:1013C00010BD00002DE9F743984690F84130202BDE
:1013D00004460E46914640F0848090F84030012B40
:1013E0007FD0012780F84070FFF7CAFC192305461B
:1013F00000903A464FF400412046FFF73AFE18B1FC
:10140000012003B0BDE8F083212384F8413010238C
:1014100084F842306064A4F82A80638DC4F8249074
:101420009BB2FF2B6063304B26D9FF2222850093AD
:101430004FF0807331462046FFF701FE638D0A9915
:101440009BB22A462046FBB9FFF706FF0028D7D1FA
:1014500023682021D9615A6822F0FF7222F48B326E
:1014600022F4FF7222F001025A6084F8411084F8DD
:10147000400084F84200C4E7628D009392B2228556
:101480004FF00073D2B2D5E7FFF75BFE0028B7D16B
:10149000636A226813F8011B91626362638D228D77
:1014A000013B9BB26385638D013A92B29BB2228568
:1014B000002BC3D0002AC1D100950A9B8021204671
:1014C000FFF7D7FD00289BD1638D9BB2FF2B03D97B
:1014D000FF2222850090ABE7628D009092B22285B8
:1014E000CEE702208DE700BF002000802DE9F74302
:1014F000984690F84130202B04460E46914640F025
:10150000868090F84030012B00F08180012780F820
:101510004070FFF735FC1923054600903A464FF41A
:1015200000412046FFF7A5FD18B1012003B0BDE83A
:10153000F083222384F84130102384F84230606421
:10154000A4F82A80638DC4F824909BB2FF2B6063BB
:10155000304B26D9FF22228500934FF0807331460D
:101560002046FFF76CFD638D0A999BB22A46204600
:10157000FBB9FFF771FE0028D7D123682021D9617C
:101580005A6822F0FF7222F48B3222F4FF7222F0AA
:1015900001025A6084F8411084F8400084F8420047
:1015A000C4E7628D009392B222854FF00073D2B2ED
:1015B000D5E7FFF776FE0028B7D12268636A526A42
:1015C0001A70636A228D01336362638D013B9BB2A3
:1015D0006385638D013A92B29BB22285002BC2D003
:1015E000002AC0D100950A9B80212046FFF741FDCB
:1015F00000289AD1638D9BB2FF2B03D9FF2222854D
:101600000090AAE7628D009092B22285CDE7022079
:101610008CE700BF002400802DE9F04F9B4690F836
:10162000413085B0202B04460F460392BDF83CA004
:10163000DDF8408040F0A5800E9B13B1BAF1000F99
:1016400006D14FF400736364012005B0BDE8F08F4C
:1016500090F84030012B00F09480012580F8405034
:10166000FFF78EFB1923009006462A464FF40041EF
:101670002046FFF7FEFC81460028E5D1212384F8AF
:101680004130402384F842300E9B606463626063A3
:10169000A4F82AA00196CDF800805B46039A39464B
:1016A0002046FFF775FD10B184F84090CCE7638DBC
:1016B0009BB2FF2B55D9FF22228500904FF08073FB
:1016C00039462046FFF7BBFC324641462046FFF72D
:1016D00038FD0028B8D1636A226813F8011B9162B3
:1016E0006362638D228D013B9BB26385638D013AFA
:1016F00092B29BB22285ABB1A2B90096434680213B
:101700002046FFF7B6FC00289ED1638D9BB2FF2BCD
:101710002FD9FF22228500904FF080733946204652
:10172000FFF78DFC638D9BB2002BCDD13246414635
:101730002046FFF791FD002886D123682021D9613A
:101740005A6822F0FF7222F48B3222F4FF7222F0E8
:1017500001025A6084F8411084F8400084F8420085
:1017600073E7628D009092B222854FF00073D2B27F
:10177000A6E7628D009092B222854FF00073D2B23C
:10178000CCE7022061E700002DE9F04F9B4690F87E
:10179000413085B0202B04460F460392BDF83CA093
:1017A000DDF8408040F0A9800E9B13B1BAF1000F24
:1017B00006D14FF400736364012005B0BDE8F08FDB
:1017C00090F84030012B00F09880012580F84050BF
:1017D000FFF7D6FA1923009006462A464FF4004137
:1017E0002046FFF746FC81460028E5D1222384F8F5
:1017F0004130402384F842300E9B60646362606332
:10180000A4F82AA00196CDF800805B46039A3946D9
:101810002046FFF7EFFC10B184F84090CCE7638DD1
:101820009BB2FF2B364B58D9FF22009322854FF0F5
:10183000807339462046FFF702FC0096434600229B
:1018400004212046FFF715FC0028B5D12268636A01
:10185000526A1A70636A228D01336362638D013BA1
:101860009BB26385638D013A92B29BB22285ABB184
:10187000A2B90096434680212046FFF7FAFB0028D4
:101880009AD1638D9BB2FF2B2FD9FF222285009026
:101890004FF0807339462046FFF7D1FB638D9BB232
:1018A000002BCAD1324641462046FFF7D5FC00281E
:1018B00082D123682021D9615A6822F0FF7222F474
:1018C0008B3222F4FF7222F001025A6084F8411038
:1018D00084F8400084F842006FE7628D009392B272
:1018E00022854FF00073D2B2A3E7628D009092B2CE
:1018F00022854FF00073D2B2CCE702205DE700BF33
:101900000024008090F84120D2B2202A10B51DD1C9
:1019100090F84030012B19D0242380F8413003681F
:101920001C6824F001041C601C6824F480541C60B2
:101930001C6821431960196841F0010119600023F6
:1019400080F8412080F84030184610BD022010BDBC
:1019500010B590F84140E4B2202C1CD190F84030F2
:10196000012B18D0242380F8413003681A6822F034
:1019700001021A601A6822F4706242EA01211960B9
:101980001A6842F001021A60002380F8414080F892
:101990004030184610BD022010BD000070B504464E
:1019A000002847D090F8363003F0FF021BB980F8CA
:1019B000352001F029FE02232068656884F836305E
:1019C000C26861691C4E012D4FF6FF7308BF22F0FB
:1019D0001E0299421CBF22F4604222F0C00216404F
:1019E000A26845EA0203226A1343626A1343A26AA9
:1019F000012D43EA020304BF2569E26843EA0603B6
:101A000004BF2A4313434FF6FF72914204D0A269E8
:101A10001143E26911430B43C360084B984208BF6E
:101A2000226BE36A08BF13430362012384F8363054
:101A3000002070BD012070BDFEF119FF007C004048
:101A4000024B186800F4C060704700BF007000408F
:101A5000174B1A68B0F5007F02F4C0621CD1B2F5D2
:101A6000007F15D01A6822F4C06242F400721A6036
:101A7000104A116832224A430F49B2FBF1F219466B
:101A800001325869400500D522B94B695B050DD478
:101A900000207047013AF4E7B2F5806F1FBF1A6863
:101AA00022F4C06242F480621A60F1E703207047BA
:101AB000007000400000002040420F0037B51E4D6E
:101AC000AB6DDA00044618D5FFF7BAFFB0F5007F1A
:101AD00023D1802C29D9A02C8CBF02200120174AA9
:101AE000136823F0070303431360136803F007032D
:101AF000181A18BF012003B030BDAB6D43F08053FE
:101B0000AB65AB6D03F080530193019BFFF798FF2A
:101B1000AB6D23F08053AB65D8E7802C07D808D095
:101B2000A4F1700358425841D9E70020D7E70320B9
:101B3000D5E70220D3E700BF00100240002002409A
:101B4000254B9A68D96812F00C0205D00C2A15D1E1
:101B500001F00301012918D119682048090755BF70
:101B6000D3F894101968C1F30321C1F3031150F89D
:101B7000210082B30C2A09D000207047042A29D002
:101B8000082A174818BF002070470020D968DA6873
:101B900001F00301C2F30212022902F1010205D091
:101BA000032912D0D968C1F3062103E0D9680D4892
:101BB000C1F30621DB68B0FBF2F0C3F341630133EC
:101BC00048435B00B0FBF3F07047D9680448C1F3A9
:101BD0000621EFE70348704700100240C84A00089A
:101BE00000127A000024F4002DE9F743054618B9E5
:101BF000012003B0BDE8F083A54C0368A668E76840
:101C0000DB0606F00C0607F003073CD51EB10C2ED0
:101C100063D1012F61D12368980702D5AB69002BEE
:101C2000E6D02368286A190756BFD4F89430236891
:101C30001B0903F0F00383423AD2FFF73FFF00286D
:101C4000D6D1236843F00803236023682A6A23F06F
:101C5000F003134323606368EA6923F47F4343EA94
:101C600002236360FFF76CFFA3688A4AC3F3031380
:101C7000D35C03F01F03D840874B18600020FFF7A8
:101C800049F80028B5D12B68D8075DD42B6899078F
:101C900000F19C802B68180700F1D0802B68590751
:101CA00000F1FC80AB6A002B40F065810020A0E7CA
:101CB000236843F008032360236823F0F003034301
:101CC00023606368EA6923F47F4343EA0223636085
:101CD000FFF7F4FE0028C5D08AE7AB691BB3236881
:101CE00043F001032360FFF74BF8804623689A070F
:101CF00011D5236843F00803236023682A6A23F080
:101D0000F003134323606368EA6923F47F4343EAE3
:101D100002236360B7E7FFF733F8A0EB080002285F
:101D2000E4D9032065E7236823F001032360FFF76C
:101D300027F8804623689B07A5D5FFF721F8A0EB7D
:101D400008000228F6D9ECE7082E03D00C2E08D1A3
:101D5000032F06D123689A0398D56B68002B95D181
:101D600046E76B68B3F5803F10D1236843F48033B6
:101D70002360FFF705F8804623689B0386D4FEF7AF
:101D8000FFFFA0EB08006428F6D9CAE7B3F5A02F3F
:101D900004D1236843F480232360E6E7226822F419
:101DA00080322260226822F480222260002BE0D15F
:101DB000FEF7E6FF8046236898037FF567AFFEF7DE
:101DC000DFFFA0EB08006428F5D9AAE7042E03D0B2
:101DD0000C2E10D1022F0ED12368590503D5EB68C4
:101DE000002B3FF405AF63682A6923F0F85343EAF8
:101DF000026363604EE7EB687BB1236843F4807352
:101E00002360FEF7BDFF074623685A05EBD4FEF7B3
:101E1000B7FFC01B0228F7D983E7236823F4807338
:101E20002360FEF7ADFF074623685B057FF532AF01
:101E3000FEF7A6FFC01B0228F6D972E76B699BB1BB
:101E4000D4F8943043F00103C4F89430FEF798FFBF
:101E50000746D4F894309A073FF520AFFEF790FF7D
:101E6000C01B0228F5D95CE7D4F8943023F00103B5
:101E7000C4F89430FEF784FF0746D4F894309B07EB
:101E80007FF50CAFFEF77CFFC01B0228F5D948E7B1
:101E900000100240AD4A000800000020A36DD800E9
:101EA00029D4A36D43F08053A365A36D03F0805341
:101EB0000193019B4FF001085D4F3B68D9051DD58B
:101EC000AB68012B2BD1D4F8903043F00103C4F858
:101ED0009030FEF755FF41F288390746D4F890302C
:101EE0009B0742D5B8F1000F3FF4DCAEA36D23F0A1
:101EF0008053A365D6E64FF00008DDE73B6843F466
:101F000080733B60FEF73CFF81463B68DA05D7D41F
:101F1000FEF736FFA0EB09000228F6D901E7052BF2
:101F200006D1D4F8903043F00403C4F89030CAE7E7
:101F3000D4F8902022F00102C4F89020D4F8902028
:101F400022F00402C4F89020002BC2D1FEF718FF43
:101F500041F288390746D4F890309807C2D5FEF789
:101F60000FFFC01B4845F6D9DBE6FEF709FFC01B93
:101F70004845B3D9D5E60C2E3FF43AAE022B236880
:101F800023F08073236037D1FEF7FAFE06462368FC
:101F900099012BD46A6BEB6A43EA02232A6B013A5C
:101FA00043EA0213AA6B120943EA4243EA6B52085E
:101FB000013A43EA42532A6C5208013A43EA426327
:101FC000E360236843F080732360E36843F0807329
:101FD000E360FEF7D5FE054623689A013FF566AE3D
:101FE000FEF7CEFE401B0228F6D99AE6FEF7C8FEA1
:101FF000801B0228CBD994E6236813F0205F02BF30
:10200000E36823F00303E360E36823F0887323F4B9
:102010008033E360FEF7B4FE054623689B017FF53D
:1020200045AEFEF7ADFE401B0228F6D979E600BFAB
:10203000007000402DE9F0410E46044610B9012021
:10204000BDE8F081404A136803F007038B4229D3AF
:102050002368D90731D421688A075BD43A4A1368C8
:1020600003F007039E425DD311F0040F374D64D196
:102070000B0706D5AB68226923F4605343EAC20319
:10208000AB60FFF75DFDAB68314AC3F30313BDE8F6
:10209000F041D35C03F01F03D8402E4B18600020A2
:1020A000FEF738BE136823F007030B431360136871
:1020B00003F007039942C2D1CAE76268234D032A9D
:1020C0002B681BD113F0007FB9D0AB6823F003035A
:1020D0001343AB60FEF754FE41F288380746AB6805
:1020E000626803F00C03B3EB820FB4D0FEF748FE36
:1020F000C01B4045F3D90320BDE8F081022A02D17C
:1021000013F4003FE0E712B913F0020FDCE713F419
:10211000806FD9E70D4AA068936823F0F00303436A
:1021200093609BE7136823F007033343136013683E
:1021300003F007039E4282D196E7AB68E26823F47E
:10214000E0631343AB6093E70020024000100240BD
:10215000AD4A000800000020054B064A9B68C3F307
:102160000223D35C044A106803F01F03D840704771
:1021700000100240BD4A000800000020054B064A3E
:102180009B68C3F3C223D35C044A106803F01F03A7
:10219000D840704700100240BD4A000800000020EF
:1021A000F8B5454BDA6812F0030F05460E461C469B
:1021B00000682AD0DA6802F0030282423CD1002A89
:1021C0003AD0DB686A68C3F302130133934233D118
:1021D000236823F080632360FEF7D2FD074623685F
:1021E0001A0132D4AF68002E36D0012E50D12269A8
:1021F000286922F4C002400822F4FE42013842EA73
:10220000072242EA4052226132E0022810D003281D
:1022100014D0012810D11B689F0738D5E3686A687D
:1022200023F07303013A184340EA0210E060CFE75D
:102230001B6813F4806FF1D10120F8BD1A68910377
:10224000ECD41B6813F4802FF5E7FEF799FDC01B53
:102250000228C4D90320F8BD2169EB6821F41F319D
:1022600021F4407141EA07211B0941EA4341216100
:10227000236843F080632360FEF782FD06462368EF
:102280001B0113D52369AA69134323610020F8BDFC
:102290002369686923F0C063400823F4FE430138D2
:1022A00043EA072343EA40632361E1E7FEF768FD61
:1022B000801B0228E3D9CDE700100240F8B53D4B62
:1022C000DA6812F0030F05460E461C46006828D057
:1022D000DA6802F0030282423AD1002A38D0DB6881
:1022E0006A68C3F302130133934231D1236823F0A8
:1022F00080532360FEF744FD074623689A0030D4DC
:10230000A868002E34D06369296923F0C0634908A6
:1023100023F4FE43013943EA002343EA4163636146
:1023200032E0022810D0032814D0012810D11B68F5
:102330009F0738D5E3686A6823F07303013A1843AE
:1023400040EA0210E060D1E71B6813F4806FF1D11E
:102350000120F8BD1A689103ECD41B6813F4802F98
:10236000F5E7FEF70DFDC01B0228C6D90320F8BD16
:102370006269EB6822F41F3222F4407242EA0022C2
:102380001B0942EA43426261236843F080532360A1
:10239000FEF7F6FC064623689B0005D563696A696B
:1023A000134363610020F8BDFEF7EAFC801B02289E
:1023B000F1D9DBE7001002402DE9F347066816F477
:1023C0000066044624D0416EB1F5800F2CD002D8AF
:1023D000C1B101261CE0B1F5000F0DD0B1F5400FE1
:1023E000F7D14D4A616ED2F8883023F440030B4395
:1023F000C2F8883000260BE0474AD36843F48033A4
:10240000D360EEE70430FFF7CBFE06460028E8D0A5
:102410002368D80406D5A16EB1F1807F74D008D8A6
:10242000A9B10126354621E000212030FFF746FF03
:10243000EBE7B1F1007F04D0B1F1407FF1D1354637
:1024400009E0354AD36843F48033D360F7E7201DB1
:10245000FFF7A6FE0546002D5CD12F4AA16ED2F8EB
:10246000883023F040730B43C2F888302368990307
:1024700040F14F81284FBB6DDA0040F176814FF07B
:102480000008DFF89890D9F8003043F48073C9F859
:102490000030FEF775FC8246D9F80030DB053FD5E9
:1024A000002D44D1D7F8903013F4407315D0D4F8F0
:1024B0008420934211D0D7F89030D7F8902042F47E
:1024C0008032C7F89020D7F8902023F4407322F48C
:1024D0008032C7F89020C7F89030D80709D5FEF7AA
:1024E0004FFC41F288390546D7F89030990740F102
:1024F0000981D7F89030D4F8842023F44073134333
:10250000C7F89030354612E0002104F12000FFF7B3
:10251000D5FE9FE72E46A9E700100240007000405C
:10252000FEF72EFCA0EB0A000228B5D90325B8F16E
:10253000000F03D0BB6D23F08053BB652368DA071F
:1025400008D59049A06BD1F8882022F003020243FD
:10255000C1F888209F0708D58A49E06BD1F8882008
:1025600022F00C020243C1F888205E0708D5854995
:10257000206CD1F8882022F030020243C1F8882074
:10258000180708D57F49606CD1F8882022F0C00276
:102590000243C1F88820D90608D57A49A06CD1F841
:1025A000882022F440720243C1F888209A0608D598
:1025B0007449E06CD1F8882022F440620243C1F8EB
:1025C00088209F0508D56F49E06DD1F8882022F456
:1025D00040220243C1F888205E0508D56949206E73
:1025E000D1F8882022F440120243C1F8882058060E
:1025F00008D56449206DD1F8882022F44052024366
:10260000C1F88820190608D55E49606DD1F8882088
:1026100022F440420243C1F88820DA0508D559491E
:10262000A06DD1F8882022F440320243C1F88820FE
:102630009B040FD5534AE16ED2F8883023F04063F3
:102640000B43B1F1006FC2F8883064D1D36843F412
:102650008013D36023681F030FD54A4A216FD2F835
:10266000883023F040630B43B1F1006FC2F888302B
:102670005CD1D36843F48013D36023685E030FD525
:10268000404A616FD2F8883023F040630B43B1F1C8
:10269000006FC2F8883054D1D36843F48013D360FC
:1026A0002368580412D53749A26FD1F8883023F037
:1026B00040531343B2F1805FC1F888304CD10221FE
:1026C000201DFFF76DFD002818BF05462268110484
:1026D00008D52C49E06FD1F8883023F080430343BC
:1026E000C1F88830D30309D5264AD4F88010D2F82F
:1026F000883023F000430B43C2F88830284602B0EC
:10270000BDE8F087FEF73CFB401B48457FF6ECAE8A
:102710000CE7354612E7B1F1806F9BD10121201DF6
:10272000FFF73EFD002818BF054693E7B1F1806F23
:10273000A3D10121201DFFF733FD002818BF054656
:102740009BE7B1F1806FABD10121201DFFF728FD80
:10275000002818BF0546A3E7B2F1005FB6D10221F9
:1027600004F12000FFF7AAFDADE7BB6D43F08053F5
:10277000BB65BB6D03F080530193019B4FF00108D3
:102780007FE600BF001002400268C169F8B5044648
:10279000836800691568034360690343BA480B43C3
:1027A0002840034313605368E06823F44053034315
:1027B0005360B64BA0699A421CBF236A18439368C2
:1027C00023F4306303439360B14B9A4219D103F56C
:1027D0005843B04AD3F8883003F00303B1F5004FF3
:1027E000D35C40F03881082B00F28F80DFE813F0D3
:1027F0001A01CA00F9008D0014018D008D008D00B2
:102800003600A54B9A4207D103F5E633A34AD3F825
:10281000883003F00C03E1E7A14B9A4223D103F582
:10282000E433D3F8883003F03003102B00F0F1804C
:102830000BD8002B00F0F380B1F5004F4FF00102F0
:102840004FF0000300F0F880A8E0202B00F0C680D5
:10285000302BF1D1B1F5004F40F0B88060684308EB
:1028600003F58033C3E08F4B9A421ED103F5E23368
:10287000D3F8883003F0C003402B00F0BB800AD8A7
:102880007BB9824B9A4240F0CA80FFF765FC002377
:10289000B0BB02463AE0802B00F09D80C02B00F0D8
:1028A000B0807A4B9A42C7D12FE07F4B9A4211D128
:1028B00003F5E033D3F8883003F44073B3F5807F39
:1028C00000F09880DCD9B3F5007F00F08480B3F588
:1028D000407FE4E76D4B9A42AED103F5C833D3F89D
:1028E000883003F44063B3F5806F00F08380C7D96C
:1028F000B3F5006F6FD0B3F5406FD0E76B4802239C
:10290000626802EB4201814205D90122002323665D
:1029100063661046F8BDB0EB023FF6D8082B2ED800
:10292000DFE803F0052D1C2D242D2D2D2700FFF7AA
:1029300013FC62684FF4807156080027E1FB0067C2
:10294000002330463946FEF75DF80022584BA0F5CB
:1029500040719942D9D82368D860D7E755485508BF
:1029600000230021401941F10001ECE7FFF7E8F8EE
:10297000DFE750080021002310F50000F3E70122F3
:102980000020E3E7FFF7FAFB4EE0FFF7E5FB6268A4
:1029900000EB5203B3FBF2F39BB20022A3F1100051
:1029A0004FF6EF718842B0D82168CB60AEE7FFF7F1
:1029B000E5FBECE76068430803F5740303F5105387
:1029C000B3FBF0F3E8E7FFF7BBF8E0E76068430824
:1029D00003F50043F4E72D4B9A428FD0B1F5004F39
:1029E000E8D16068430803F1F47303F59043B3FB47
:1029F000F0F31FE0254B9A420BD1FFF7A1F8042317
:102A000046E7224B9A427FF425AF4FF4004008235B
:102A100076E7B1F5004FD6D1FFF792F804E0B1F5B3
:102A2000004FB2D1FFF798FB61684A0802EB400300
:102A3000B3FBF1F39BB20022A3F110004FF6EF714C
:102A400088423FF662AF23F00F012068C3F34203D0
:102A50000B43C3605AE7082B3FF657AF01A252F869
:102A600023F000BF8B290008AF290008B529000812
:102A70000B290008C72900080B2900080B290008AA
:102A80000B290008CD290008F369FFEF0080004002
:102A9000003801409C49000800440040A04900085B
:102AA00000480040004C0040005000400024F4006A
:102AB000FFFC0F00000024F4436ADA0710B506D5C6
:102AC0000168846A4A6822F4003222434A609C0703
:102AD00006D50168C46A4A6822F4803222434A60FB
:102AE000590706D50168046B4A6822F48022224304
:102AF0004A601A0706D50168446B4A6822F400420E
:102B000022434A60DC0606D50168846B8A6822F499
:102B1000805222438A60990606D50168C46B8A6890
:102B200022F4005222438A605A060FD50168046CD1
:102B30004A6822F480122243B4F5801F4A6005D10E
:102B40004A68446C22F4C00222434A601B0606D540
:102B50000268816C536823F400230B43536010BD5B
:102B60002DE9F041069D04460F4616469846216819
:102B7000CA6937EA02030CBF01220022B24202D026
:102B80000020BDE8F0816B1CF2D09DB923681A6863
:102B900022F4D0721A609A6822F001029A6020230F
:102BA00084F8713084F87230002384F87030032088
:102BB000BDE8F081FEF7E4F8A0EB08008542D6D22C
:102BC000E4E773B5044600264667FEF7D9F82368A4
:102BD0001B681A07054617D423681B685B070AD5CC
:102BE0006FF07E43009300222B464FF48001204675
:102BF000FFF7B6FFA0B92023002084F8713084F8D5
:102C0000700084F872300CE06FF07E43009332461F
:102C100003464FF400112046FFF7A2FF0028DBD047
:102C2000032002B070BD10B5044660B390F8713057
:102C300003F0FF021BB980F8702000F0B9FE226893
:102C4000242384F87130136823F0010313602046B5
:102C5000FFF79AFD012816D0636A13B12046FFF7EB
:102C60002BFF23685A6822F490425A609A6822F037
:102C70002A029A601A6842F0010220461A60BDE8F2
:102C80001040FFF79EBF012010BD000030B587B097
:102C900006AC012304F8012D64250A46019300FACD
:102CA00003F1029500940448FEF7B6FC2846FEF7AF
:102CB0006DF807B030BD00BFE000002010B586B051
:102CC000012364240DF117020193009202940A4635
:102CD00000FA03F10448FEF757FD2046FEF756F8C8
:102CE0009DF8170006B010BDE000002010B586B0BA
:102CF0000223019305AB8DF8142064240093120A7B
:102D000001238DF8152002940A4600FA03F10448C5
:102D1000FEF782FC2046FEF739F806B010BD00BF72
:102D2000E000002010B586B00223019305AB6424B7
:102D3000009301230A46029400FA03F10648FEF7C5
:102D400023FD2046FEF722F89DF815009DF814306B
:102D500043EA002006B010BDE00000207FB56424E7
:102D60008DF80D10090A032303AA054600268DF8E5
:102D70000E100094410008488DF80C60FEF722FB0D
:102D800031462846FFF7CEFF05462046FDF7FEFFF9
:102D9000284604B070BD00BFE000002008B5002147
:102DA000FFF7DCFF00F4005008BD2DE9F04F8BB0B9
:102DB00001EB810525266D009DF8508092464E431B
:102DC0000A22ADB2B6FBF2F6B5FBF3F5044689462E
:102DD0001FFA86FB6523013B13F0FF03009300F00D
:102DE0007F814FF4004200212046FFF77FFF4FF420
:102DF000004200212046FFF779FF0A20FDF7C6FFB9
:102E00002046FFF7CBFF009B07460028E3D1014691
:102E100013222046FFF76AFF06212046FFF782FFB4
:102E2000C306F9D5002261212046FFF72FFF522269
:102E30003E212046FFF72AFF00223F212046FFF7D0
:102E400025FF60212046FFF739FF4FEA1923009341
:102E50004FEA1B230193F3B202934FEA1A23039321
:102E60005FFA8AF30493C5F307230593EBB2069345
:102E7000049A039B5FFA89F91344009A4B44134464
:102E8000069A1344029A1344059A1344019A134470
:102E9000DBB2C0430793C3B265250893013D15F02B
:102EA000FF0504D1022738460BB0BDE8F08F4A2158
:102EB0002046FFF737FF4C2109902046FFF732FFED
:102EC000502183462046FFF72DFF5B218246204696
:102ED000FFF728FF089B1A46099BA2EB1322D31A7F
:102EE000A3EB1B230646009A4A212046A3EB0B0BBB
:102EF000FFF7CCFE4A464B212046FFF7C7FE019A5A
:102F00004C212046FFF7C2FE029A4D212046FFF7D2
:102F1000BDFE039A50212046FFF7B8FE049A5121C6
:102F20002046FFF7B3FE059A5B212046FFF7AEFE71
:102F3000069A5C212046FFF7A9FE079BABEB1A2BF4
:102F40009B1BABEB0A0AA3EB16260AF0FF0AB2445E
:102F50006FEA0A0A5FFA8AFA524660212046FFF7B2
:102F600095FE52223E212046FFF790FE00223F218F
:102F70002046FFF78BFE60212046FFF79FFE82452B
:102F80008CD1002261212046FFF780FE40223E21A5
:102F90002046FFF77BFE00223F212046FFF776FE0A
:102FA00060212046FFF78AFEC04365265FFA80F95C
:102FB000013E16F0FF063FF475AF40212046FFF7B3
:102FC000B1FE40F00405ADB2A842824637D13122AD
:102FD0003E212046FFF75AFE00223F212046FFF700
:102FE00055FE60212046FFF769FEC0434FF065099A
:102FF0005FFA80FA09F1FF3919F0FF093FF452AF87
:1030000040212046FFF75AFE412105462046FFF7A2
:1030100055FE4545834639D1404537D142220021EE
:103020002046FFF763FE06212046FFF77BFE10F0E7
:103030001001F8D120222046FFF758FE33E7C0F3F5
:10304000072240212046EDB2FFF720FE2A46A5EBDD
:103050000A054D44ED4341212046EDB2FFF716FE2F
:103060002A4660212046FFF711FE40223E212046DD
:10307000FFF70CFE00223F212046FFF707FE6021EC
:103080002046FFF71BFE854292D1A0E74FEA480693
:10309000F6B25644751BEDB2A5EB0B054246402136
:1030A0002046ED43FFF7F2FDEDB2424641212046B6
:1030B000FFF7ECFD2A4660212046FFF7E7FD3122AD
:1030C0003E212046FFF7E2FD00223F212046FFF788
:1030D000DDFD60212046FFF7F1FD85428AD19DE7A5
:1030E0000127E0E6C0F3021303EB830300F00F00B7
:1030F00000EB43007047000030B5142085B0FDF7A9
:1031000045FE642302930B4D00950723019304228F
:103110000123A2210848FEF737FB0024042C03D02A
:10312000285DFFF7DFFF28550134072CF6D105B0E5
:1031300030BD00BFB0010020E0000020014B187836
:10314000704700BFB0010020014B5878704700BFA6
:10315000B0010020014B9878704700BFB0010020FB
:10316000014BD878704700BFB0010020014B58795F
:10317000704700BFB0010020014B9879704700BF35
:10318000B00100207FB5FF230F208DF810308DF89F
:1031900011308DF812308DF813308DF81430FDF7A2
:1031A000F5FD642302930523019304AB00930B22E6
:1031B0000123A2210248FEF72FFA07B05DF804FBB5
:1031C000E000002030B5104C85B06425022303AA2E
:1031D0000095C0212046FEF789F99DF80C301A06AB
:1031E000F4D513F0060F01BF9DF80D00C0F5B270C5
:1031F000013000040ABF4FF476734FF0FF30B0FB8C
:10320000F3F005B030BD00BFE0000020F0B51F4E68
:1032100085B004460D466427022302AA0097C02108
:103220003046FEF763F99DF808301A06F4D5002CF5
:1032300002DC13F0060F1FD14FF4767363431B0CAF
:10324000C3F165039DF80920DBB29A4214D0002C2B
:1032500014DD002D14BF702250228DF80D30002394
:103260008DF80E3064238DF80C20009303AA0323FD
:10327000C0210648FEF7A6F805B0F0BD002D4FF0BE
:10328000000314BF76225622E7E700BFE0000020CB
:1032900004215520FFF746BD08B510215520FFF742
:1032A00041FD00B208BD08B502215520FFF73AFDE7
:1032B000A0F6AC2000B208BD1C215520FFF732BD9E
:1032C0000E215520FFF72EBD0C215520FFF72ABDFA
:1032D0000020704713B50D4C4FF4E16349220021E3
:1032E00051202380FFF7D2FCC72201215120FFF794
:1032F000CDFCFFF747FF0A2300932188412340F6C6
:10330000B8325520FFF751FD02B010BDB8010020C2
:1033100010B514228AB00DEB0200002100F0CEFBA4
:10332000214BDA6C42F00402DA64DA6C02F0040237
:103330000192019ADA6C42F08002DA64DA6C02F0EF
:1033400080020292029ADA6C42F00102DA64DA6CCC
:1033500002F001020392039ADA6C42F00202DA648C
:10336000DB6C03F002030022049320214FF0904015
:10337000049BFDF751FE4FF400530024059305A96B
:103380000A4B0B4806930794FDF76AFD202305932B
:1033900005A901234FF09040069307940894FDF788
:1033A0005FFD0AB010BD00BF0010024000002110F8
:1033B0000008004808B51248124B1349012280E862
:1033C0000A0000238360C260036143618361C361BB
:1033D0000362FDF7A5FF08B100F042FA002108489A
:1033E000FEF790FA08B100F03BFA00210448FEF71E
:1033F000AFFA18B1BDE8084000F032BA08BD00BF0E
:10340000E0000020EC9C90100054004008B51248E9
:10341000124B1349012280E80A0000238360C26036
:10342000036143618361C3610362FDF779FF08B102
:1034300000F016FA00210848FEF764FA08B100F01F
:103440000FFA00210448FEF783FA18B1BDE80840DE
:1034500000F006BA08BD00BF2C010020EC9C9010C3
:103460000058004008B51248124B1349012280E869
:103470000A0000238360C260036143618361C3610A
:103480000362FDF74DFF08B100F0EAF9002108489A
:10349000FEF738FA08B100F0E3F900210448FEF71E
:1034A00057FA18B1BDE8084000F0DAB908BD00BF0E
:1034B00094000020EC9C9010005C004010B5044685
:1034C0008CB01422002107A800F0F8FA2368384ACB
:1034D000934222D1374C3848E36C43F00203E36453
:1034E000E36C03F002030193019BC02307931223B3
:1034F00008930123099303230A9307A904230B9339
:10350000FDF7AEFCA36D43F40013A365A36D03F4B4
:1035100000130293029B0CB010BD284A934222D1A3
:10352000244C2548E36C43F00203E364E36C03F0AE
:1035300002030393039B4FF4406307931223089302
:103540000123099303230A9307A904230B93FDF78F
:1035500087FCA36D43F48003A365A36D03F480038C
:103560000493049BD7E7164A9342D4D1114C1548D3
:10357000E36C43F00403E364E36C03F0040305939A
:10358000059B12220323079308920A930122042326
:1035900007A90B930992FDF763FCA36D43F40003A5
:1035A000A365A36D03F400030693069BB3E700BF76
:1035B0000054004000100240000400480058004041
:1035C000005C0040000800480D4808B54FF6FF7148
:1035D0000C4B03600122002341614FF40001426063
:1035E0008360C3600361036243628162C2620363FA
:1035F000FEF7D4F918B1BDE8084000F031B908BDB4
:1036000078010020007C00400268084B9A4282B09A
:103610000AD103F5CA339A6D42F000429A659B6D58
:1036200003F000430193019B02B07047007C00400F
:1036300010B5B8B04422002105A800F03FFA1422CA
:103640000021684600F03AFA0021882216A800F00E
:1036500035FA4FF4807208921022099201221192D9
:103660000A220223129205A80722002405930F9331
:103670001093139214931593FEF7B6FA0F220421B8
:10368000032368468DE81C0003940494FEF7D2FCE3
:1036900040F2C23316A8169325942A942B942C94A6
:1036A0002D94FEF789FE4FF40070FEF7D1F938B083
:1036B00010BD00002DE9F04F2DED048B87B0FDF714
:1036C00041FBFFF7B5FFFFF723FEFFF773FEFFF7A0
:1036D0009DFEFFF7C7FEFFF777FF00F04BF9FFF7FE
:1036E000F9FD18B1504800F0F1F9FEE7FFF76AFD67
:1036F000013004D001214FF0FF30FFF787FD4B4F21
:103700004B4D00260024FFF7C3FD08EE900AFFF79B
:10371000C3FD09EE900AFFF7D3FD8246FFF7D4FD03
:103720008146FFF7C9FD80460020FFF7D1FD09EE75
:10373000100AFFF7B8FDF8EE687ADFED3E8A87EEF3
:10374000A87A08EE100A17EE100AFCF7F5FE0246FA
:103750000B46394800F0BAF9F8EEE99AC9EEA87AB2
:1037600017EE900AFCF7E8FE02460B46334800F0DD
:10377000ADF95146324800F0A9F94946314800F008
:10378000A5F94146304800F0A1F9B8EE499AC9EED2
:10379000287A17EE900AFCF7CFFE02460B462B481C
:1037A00000F094F9B8EEC88AF2EE047A88EE277A2F
:1037B00017EE100AFCF7C0FE32463B46FCF710FF3E
:1037C00022462B46FDF736F80022214BFCF756FD2A
:1037D00002460B461F4800F079F9FFF78DFCFFF712
:1037E000B9FC8046FFF7B0FC8146FFF7A7FC824694
:1037F000FFF7BCFC8346FFF7B3FC0590FFF7BCFC6A
:10380000059B029001934A4653464146CDF800B0CD
:10381000114800F05BF9114800F0CCF94FF4FA6060
:10382000FDF7B4FA6FE700BFAD4900080000224081
:103830000000144000007A44CF490008EA4900081B
:10384000054A0008224A00083F4A00085C4A00086E
:1038500000004040774A0008924A0008AA4A00083F
:10386000704700000A4B1A6E42F001021A661A6E87
:1038700082B002F001020092009A9A6D42F08052EA
:103880009A659B6D03F080530193019B02B07047D2
:10389000001002407047FEE7FEE7FEE7FEE77047D4
:1038A00070477047FDF764BA70B50E4615460C4672
:1038B000A31B9D4201DC284670BDAFF3008004F8D5
:1038C000010BF5E770B50E4615460C46A31B9D424D
:1038D00001DC284670BD14F8010BAFF30080F5E75A
:1038E00008B50A4B1968024609B9094919601868F0
:1038F000694602448A4206D900F0B6F80C230360F8
:103900004FF0FF3008BD1A6008BD00BF84000020E2
:10391000380200204FF0FF3070474FF400534B60E7
:103920000020704701207047002070470F49D1F8F0
:10393000883043F47003C1F888300D4B1A680020BA
:1039400042F001021A6098601A6822F0A85222F42C
:1039500010221A604FF48052DA601A6822F4802232
:103960001A6098614FF000638B60704700ED00E0D3
:103970000010024008B50C480C4B4FF4E13E80E8C3
:1039800008400C2200238360C360036142618361AD
:10399000C36103624362FFF746F918B1BDE808400E
:1039A000FFF75EBF08BD00BFBC010020004400401F
:1039B00010B5044688B01422002103A800F07EF858
:1039C0002268134B9A4220D103F5E63303A99A6D7E
:1039D00042F400329A659A6D02F400320192019A23
:1039E000DA6C42F00102DA64DB6C03F0010302934B
:1039F000029B0C23039302230493032306934FF0AB
:103A0000904007230793FDF72BFA08B010BD00BFC5
:103A100000440040DFF834D0002103E00C4B5B5839
:103A2000435004310B480C4B42189A42F6D30B4AD0
:103A300002E0002342F8043B094B9A42F9D3FFF716
:103A400075FF00F017F8FFF735FEFEE70080012054
:103A5000A04B000800000020680000206800002043
:103A600038020020FEE70000014B1868704700BFD5
:103A70000400002070B50D4E0D4CA41BA4100025B1
:103A8000A54209D10B4E0C4C00F07CFFA41BA410E6
:103A90000025A54205D170BD56F82530984701355F
:103AA000EEE756F8253098470135F2E7984B0008C5
:103AB000984B0008984B00089C4B000802440346B2
:103AC000934200D1704703F8011BF9E70FB40A4B8A
:103AD00013B51C6824B1A36913B9204600F024FA79
:103AE00005AB049AA1680193204600F0E1FB02B007
:103AF000BDE8104004B070470400002070B50E46C9
:103B0000054618B183690BB900F00EFAAB69AC68D1
:103B100013B9284600F008FA234B9C4217D16C6871
:103B2000A3891B071DD52369DBB1013EA36816F8E5
:103B3000011F013BA360E9B9002B2EDA22460A21BE
:103B4000284600F03FF8013011D00A2070BD174B15
:103B50009C4201D1AC68E3E7154B9C4208BFEC687E
:103B6000DEE72146284600F07FF80028DDD04FF040
:103B7000FF3070BD002B04DAA269934206DB0A29EC
:103B800004D023685A1C22601970CFE722462846C9
:103B900000F018F80130C9D1E9E723680A205A1C5F
:103BA0002260187070BD00BF1C4B00083C4B000821
:103BB000FC4A0008024B01461868FFF79FBF00BF90
:103BC00004000020F8B50E461446054618B1836976
:103BD0000BB900F0A9F9214B9C422AD16C68A3696A
:103BE000A360A3891A072ED5236963B323692068CC
:103BF000C01A6369F6B29842374604DB214628466C
:103C000000F028F928BBA368013BA36023685A1C75
:103C100022601E7063690130984204D0A389DB07DB
:103C200019D50A2E17D12146284600F013F990B174
:103C30000FE00B4B9C4201D1AC68D0E7094B9C4292
:103C400008BFEC68CBE72146284600F00DF80028B5
:103C5000CCD04FF0FF373846F8BD00BF1C4B0008F2
:103C60003C4B0008FC4A0008324B70B51D68064604
:103C70000C4625B1AB6913B9284600F055F92E4B17
:103C80009C420FD16C68B4F90C309AB215072CD451
:103C9000D00611D40922326043F04003A3814FF0D3
:103CA000FF3070BD254B9C4201D1AC68EBE7244B43
:103CB0009C4208BFEC68E6E7510712D5616B41B141
:103CC00004F14403994202D0304600F01BFA00236D
:103CD0006363A38923F02403A38100236360236922
:103CE0002360A38943F00803A38123694BB9A38907
:103CF00003F42073B3F5007F03D02146304600F073
:103D0000C1F9A28912F001030CD00023A3606369FA
:103D10005B42A361236953B9B4F90C3013F08000FE
:103D2000BAD170BD920758BF6369A360F2E7002063
:103D3000F7E700BF040000201C4B00083C4B0008C4
:103D4000FC4A00088A892DE9F041054610070C4617
:103D50005AD44B68002B05DC0B6C002B02DC0020D6
:103D6000BDE8F081E66A002EF9D0002312F48052FB
:103D70002F682B6033D0606DA3895A0705D563681F
:103D8000C01A636B0BB1236CC01A00230246E66AAB
:103D9000216A2846B047431CA38906D129681D29FA
:103DA0004BD82B4ACA40D60747D500226260D904B7
:103DB0002269226004D5421C01D12B6803B96065D9
:103DC000616B2F600029CAD004F14403994202D0EC
:103DD000284600F097F900206063BDE8F081216A71
:103DE00001232846B047411CC6D12B68002BC3D005
:103DF0001D2B01D0162B01D12F60B0E7A38943F012
:103E00004003A381BDE8F0810F69002FA7D093077D
:103E10000E6808BF4B690F6018BF0023A6EB0708A8
:103E20008B60B8F1000F9ADD43463A46216AA66AD4
:103E30002846B047002807DCA38943F04003A3814C
:103E40004FF0FF30BDE8F0810744A8EB0008E8E739
:103E50000100402038B50B6905460C46DBB118B1AE
:103E600083690BB900F060F80C4B9C4209D16C6877
:103E7000B4F90C307BB121462846BDE83840FFF745
:103E800061BF074B9C4201D1AC68F1E7054B9C42F6
:103E900008BFEC68ECE7002038BD00BF1C4B0008F1
:103EA0003C4B0008FC4A0008014900F0A9B800BFDB
:103EB000553E0008002310B504460360436083604C
:103EC00081814366C281036143618361194608228F
:103ED0005C30FFF7F3FD054B6362054BA362054BB6
:103EE000E362054B2462236310BD00BF294800082C
:103EF0004B48000883480008A748000870B54A1ED0
:103F0000682555430E4605F1740100F049F9044651
:103F100040B1002180E842000C30A06005F1680249
:103F2000FFF7CCFD204670BD836910B5044633BB56
:103F30008364C3640365124B124A1B688262984211
:103F400004BF0123836100F01FF86060204600F089
:103F50001BF8A060204600F017F80022E060042162
:103F60006068FFF7A7FF01220921A068FFF7A2FF01
:103F700002221221E068FFF79DFF0123A36110BD1B
:103F8000F84A0008A93E0008F8B51C4B1E68B36942
:103F9000074613B93046FFF7C7FF4836B468736861
:103FA000013B03D5336833B13668F7E7B4F90C50F9
:103FB0006DB16834F4E704213846FFF79FFF3060A5
:103FC0000028F1D10C233B6004462046F8BD4FF693
:103FD000FF73E3810123A38165662560A5606560A9
:103FE00025616561A5610822294604F15C00FFF79F
:103FF00065FD6563A563A564E564E6E7F84A000826
:104000002DE9F8438046894600F14804002614B99A
:104010003046BDE8F883A5686768013F01D524688C
:10402000F5E7AB89012B07D9B5F90E30013303D081
:1040300029464046C84706436835EEE770B50E4648
:10404000B1F90E10002990B014461D4607DA00237E
:104050002B60B3891A0610D44FF480630EE001AAD6
:1040600000F048FC0028F2DB029A02F47042A2F54C
:1040700000535A425A412A60EEE740230020236051
:1040800010B070BD8B8973B59D0706460C4607D5E9
:1040900004F14703236023610123636102B070BD13
:1040A00001AB6A46FFF7CAFF00990546304600F0AB
:1040B00077F848B9B4F90C309A05EFD423F003032C
:1040C00043F00203A381E3E70D4BB362A3892060B1
:1040D00043F08003A381009B6361019B20615BB17E
:1040E000B4F90E10304600F017FC28B1A38923F074
:1040F000030343F00103A381A3891D43A581CDE7F9
:10410000A93E000838B50546002945D051F8043CC1
:104110000C1F002BB8BFE41800F020FC1F4A1368E6
:10412000104633B9636014602846BDE8384000F09B
:1041300016BCA3420CD921686218934204BF1A68C6
:104140005B68636004BF521822600460ECE71346AA
:104150005A680AB1A242FAD919685818A0420BD17C
:1041600020680144581882421960DDD110685268F5
:104170005A6001441960D7E702D90C232B60D3E7BA
:10418000206821188A4204BF11685268626004BF27
:10419000091821605C60C7E738BD00BF88000020B7
:1041A00070B5CD1C25F0030508350C2D38BF0C2546
:1041B000002D064601DBA94203D90C233360002001
:1041C00070BD00F0CBFB234A1468214691B9224C04
:1041D00023681BB9304600F017FB206029463046A3
:1041E00000F012FB431C26D10C233360304600F054
:1041F000B6FBE4E70B685B1B1AD40B2B0FD90B60E3
:10420000CD50CC18304600F0AAFB04F10B00231D62
:1042100020F00700C31A1BD05A42E25070BD8C42F6
:104220000DBF63684B686360136018BF0C46E9E715
:104230000C464968CAE7C41C24F00304A04205D018
:10424000211A304600F0E0FA0130CDD02560D9E7E0
:1042500070BD00BF880000208C0000209368013BE7
:10426000002B10B4936009DA9469A34202DBCBB24D
:104270000A2B03D15DF8044BFFF7A4BC1368581C4C
:1042800010601970C8B25DF8044B7047F8B5064667
:104290000F461446D518AC4201D1002007E03A463B
:1042A00014F8011B3046FFF7D9FF431CF3D1F8BDCA
:1042B0002DE9F04F9DB00C4617460393064618B102
:1042C00083690BB9FFF730FE7C4B9C4257D1746871
:1042D000A38918075DD52369002B5AD000230993C1
:1042E00020238DF8293030238DF82A304FF0010B30
:1042F000B846454615F8013B002B55D1B8EB070AE7
:104300000BD053463A4621463046FFF7BFFF0130F7
:1043100000F0C480099B5344099398F80030002BA7
:1043200000F0BC8000234FF0FF3204930793059206
:1043300006938DF853301A93052229786048FBF7CD
:1043400047FF05F10108049B002831D1D90644BF7D
:1043500020228DF853201A0744BF2B228DF85320BA
:104360002A782A2A2CD0079A00210A20A84601354B
:1043700098F80030303B092B6DD971B326E0514BD2
:104380009C4201D1B468A3E74F4B9C4208BFF4683C
:104390009EE721463046FFF767FC00289ED04FF08D
:1043A000FF301DB0BDE8F08F252BA7D0A846A0E7B1
:1043B000434A801A0BFA00F0184304904546BBE7C5
:1043C000039A111D12680391002A01DB079204E091
:1043D000524243F002030792049398F800302E2BC8
:1043E00010D198F801302A2B08F1010137D1039B35
:1043F0001A1D1B680392002BB8BF4FF0FF3308F162
:1044000002080593314D98F8001003222846FBF767
:10441000DFFE40B14023401B03FA00F0049B03433E
:10442000049308F1010898F8001029488DF8281025
:10443000062208F10107FBF7CBFE002834D0254BFC
:1044400003BB039B073323F0070308330393099B44
:104450004B4409934CE700FB0232012186E700231D
:10446000059318460A258846013198F80020303A0D
:10447000092A03D9002BC5D00590C3E705FB00200E
:104480000123F0E703AB00932246134B04A9304607
:10449000AFF30080B0F1FF3F8146D8D1A3895B061E
:1044A0003FF57DAF09987CE703AB009322460A4BAA
:1044B00004A9304600F088F8ECE700BF1C4B000868
:1044C0005C4B00083C4B0008FC4A0008624B0008AB
:1044D000664B0008000000008D4200082DE9F047FF
:1044E00091461F468A680B69DDF820809342B8BF69
:1044F0001346C9F8003091F8432006460C4612B125
:104500000133C9F800302368990642BFD9F800305A
:104510000233C9F80030256815F0060507D104F10B
:10452000190AE368D9F800209B1A9D4229DB94F808
:1045300043302268003318BF012392062ED404F1C1
:10454000430239463046C047013021D02368E56830
:10455000D9F8002003F00603042B08BFAD1AA368A6
:1045600022690CBF25EAE57500259342C4BF9B1A5A
:10457000ED184FF000091A344D451BD10020BDE85D
:10458000F0870123524639463046C047013003D1F7
:104590004FF0FF30BDE8F0870135C2E7E1185A1C43
:1045A000302081F84300224494F8451082F84310EB
:1045B0000233C4E70123224639463046C047013062
:1045C000E6D009F10109D7E72DE9F04317460A7E45
:1045D00085B06E2A984606460C460C9B01F1430EA8
:1045E00000F0BC801AD8632A2ED00AD8002A00F026
:1045F000C880582A00F08A8004F1420584F84220DD
:104600002AE0642A01D0692AF6D121681A6811F0DB
:10461000800F23D0111D1960136827E0732A00F062
:10462000B48008D86F2A2AD0702AE5D10A6842F0EF
:1046300020020A6003E0752A21D0782ADCD1782292
:1046400084F845206E4964E01A6801F14205111DA5
:104650001960136884F842300123A3E011F0400F81
:1046600002F104011960D7D0B2F90030002B03DA4F
:104670002D225B4284F8432062490A2217E0206819
:10468000196810F0800F03D0081D18600B6806E051
:1046900010F0400F01F104001860F7D00B88594961
:1046A0006F2A14BF0A220822002084F8430065689C
:1046B000A560002DC0F29C80206820F004002060DE
:1046C000002B3FD1002D40F095807546082A0BD174
:1046D0002368DA0708D5236962689A42DEBF30236F
:1046E00005F8013C05F1FF35AEEB05032361CDF87C
:1046F00000803B4603AA21463046FFF7EFFE01301B
:1047000055D14FF0FF3005B0BDE8F08381F845206A
:104710003C492268186812F0800F00F104051D6002
:1047200001D0036802E05506FBD50388D00744BFDB
:1047300042F0200222601BB9226822F0200222608F
:104740001022B1E77546B3FBF2F002FB1033CB5CED
:1047500005F8013D03460028F5D1B7E708681A6857
:10476000496910F0800F04D0101D1860136819609B
:1047700007E010F0400F02F1040018601368F6D053
:104780001980002323617546B1E71A68111D19606D
:104790001568626800212846FBF71AFD08B1401B26
:1047A000606063682361002384F843309FE72369D6
:1047B0002A4639463046C0470130A2D023689B07BD
:1047C00007D5002504F11909E368039A9B1A9D4255
:1047D00005DBE068039B9842B8BF184693E70123C6
:1047E0004A4639463046C04701308AD00135EBE7AA
:1047F000002BA7D10B7884F8423004F1420565E71D
:104800007E4B00086D4B000838B5064C002305466A
:1048100008462360FFF764F8431C02D1236803B104
:104820002B6038BD3402002010B50C46B1F90E10D3
:1048300000F096F80028ABBF636DA3891B1823F422
:104840008053ACBF6365A38110BD2DE9F0411F46C5
:104850008B89DB0505460C46164605D5022300224A
:10486000B1F90E1000F068F8A389B4F90E1023F422
:104870008053A38132463B462846BDE8F04100F014
:1048800017B810B50C46B1F90E1000F055F8431CDE
:10489000A38915BF606523F4805343F48053A3813B
:1048A00018BFA38110BDB1F90E1000F013B80000BD
:1048B00038B5074C054608461146002222601A46C4
:1048C000FFF700F8431C02D1236803B12B6038BD09
:1048D0003402002038B5064C002305460846236004
:1048E000FFF718F8431C02D1236803B12B6038BDD1
:1048F0003402002038B5074C00230546084611460F
:104900002360FFF70AF8431C02D1236803B12B6030
:1049100038BD00BF3402002038B5064C00230546E0
:1049200008462360FEF7FEFF431C02D1236803B153
:104930002B6038BD3402002038B5074C05460846C8
:104940001146002222601A46FEF7EEFF431C02D1F8
:10495000236803B12B6038BD3402002070477047D4
:1049600038B5074C054608461146002222601A4613
:10497000FEF79AFF431C02D1236803B12B6038BDB8
:1049800034020020F8B500BFF8BC08BC9E46704752
:0C499000F8B500BFF8BC08BC9E4670479C
:10499C000104020800101010041010100210101066
:1049AC000821204552524F52202D20496E697469BE
:1049BC00616C697A6174696F6E204661696C6564BB
:1049CC002021004261747465727920566F6C746199
:1049DC006765202020203D20256620560A00426174
:1049EC0074746572792043757272656E7420202020
:1049FC00203D20256620560A0046756C6C204361CC
:104A0C007061636974792020202020203D2025646A
:104A1C00206D41680A0052656D61696E696E672090
:104A2C004361706163697479203D202564206D4178
:104A3C00680A005374617465206F66204368617264
:104A4C006765202020203D202564202525200A0094
:104A5C00496E70757420566F6C74616765202020E8
:104A6C002020203D20256620560A0054656D706577
:104A7C0072617475726520202020202020203D203A
:104A8C00256620460A000A092025643A25643A2541
:104A9C006420092025642D25642D25640A000A0A4A
:104AAC0000000000000000000001020304060708DB
:104ABC00090000000001020304000000A0860100B0
:104ACC00400D0300801A060000350C0040420F0018
:104ADC0080841E0000093D0000127A000024F400BE
:104AEC0000366E010048E801006CDC020800002072
:104AFC0000000000000000000000000000000000AA
:104B0C000000000000000000000000000000000099
:104B1C000000000000000000000000000000000089
:104B2C000000000000000000000000000000000079
:104B3C000000000000000000000000000000000069
:104B4C000000000000000000000000000000000059
:104B5C00232D302B2000686C4C006566674546475A
:104B6C0000303132333435363738394142434445DD
:104B7C00460030313233343536373839616263644C
:044B8C00656600005A
:084B9000A4BEFF7F010000003C
:044B9800B50100085B
:044B9C00910100087B
:104BA00000093D0008000020000000001C4B000828
:104BB0003C4B0008FC4A0008000000000000000018
:104BC00000000000000000000000000000000000E5
:104BD00000000000000000000000000000000000D5
:104BE00000000000000000000000000000000000C5
:104BF00000000000000000000000000000000000B5
:084C00000000000000000000AC
:0400000508003A15A0
:00000001FF
