:020000040800F2
:10000000008001203D4F0008A54D0008A74D0008C5
:10001000A94D0008AB4D0008AD4D000800000000E0
:10002000000000000000000000000000AF4D0008CC
:10003000B14D000800000000B34D0008B54D0008A8
:100040008D4F00088D4F00088D4F00088D4F000820
:100050008D4F00088D4F00088D4F00088D4F000810
:100060008D4F00088D4F00088D4F00088D4F000800
:100070008D4F00088D4F00088D4F00088D4F0008F0
:100080008D4F00088D4F00088D4F00088D4F0008E0
:100090008D4F00088D4F00088D4F00088D4F0008D0
:1000A0008D4F00088D4F00088D4F00088D4F0008C0
:1000B0008D4F00088D4F00088D4F00088D4F0008B0
:1000C0008D4F00088D4F00088D4F00088D4F0008A0
:1000D0008D4F00088D4F00088D4F00088D4F000890
:1000E0008D4F00088D4F00088D4F00088D4F000880
:1000F0008D4F00088D4F00088D4F00088D4F000870
:100100008D4F00088D4F00088D4F00088D4F00085F
:100110008D4F00088D4F00088D4F00088D4F00084F
:100120008D4F00088D4F00088D4F00088D4F00083F
:100130008D4F00088D4F00088D4F00088D4F00082F
:100140008D4F00088D4F00088D4F00088D4F00081F
:100150008D4F00088D4F00088D4F00088D4F00080F
:100160008D4F00088D4F00088D4F00088D4F0008FF
:100170008D4F00088D4F00088D4F000800000000D3
:080180008D4F00088D4F0008AF
:1001900010B5054C237833B9044B13B10448AFF3C1
:1001A00000800123237010BDD80100200000000052
:1001B0005077000808B5034B1BB103490348AFF360
:1001C000008008BD00000000DC010020507700081E
:1001D000034613F8012B002AFBD1181A0138704787
:1001E00001F0FF01102A2BDB10F0070F08D010F8E8
:1001F000013B013A8B422DD010F0070F42B3F6D1EC
:10020000F0B441EA012141EA014122F007047FF004
:1002100000070023F0E80256083C85EA010586EA5B
:10022000010685FA47F5A3FA87F586FA47F6A5FA97
:1002300087F68EB9EED1F0BC01F0FF0102F00702A3
:1002400032B110F8013B013A83EA010313B1F8D14E
:100250000020704701387047002D06BF354603382F
:10026000073815F0010F07D1013015F4807F02BF68
:10027000013015F4C03F0130F0BC0138704700BFB9
:1002800081F0004102E000BF83F0004330B54FEA47
:1002900041044FEA430594EA050F08BF90EA020FB4
:1002A0001FBF54EA000C55EA020C7FEA645C7FEA47
:1002B000655C00F0E2804FEA5454D4EB5555B8BF6A
:1002C0006D420CDD2C4480EA020281EA030382EADB
:1002D000000083EA010180EA020281EA0303362D6D
:1002E00088BF30BD11F0004F4FEA01314FF4801C40
:1002F0004CEA113102D0404261EB410113F0004F52
:100300004FEA03334CEA133302D0524263EB430308
:1003100094EA050F00F0A780A4F10104D5F1200EA6
:100320000DDB02FA0EFC22FA05F2801841F1000101
:1003300003FA0EF2801843FA05F359410EE0A5F1D5
:1003400020050EF1200E012A03FA0EFC28BF4CF006
:10035000020C43FA05F3C01851EBE37101F00045BC
:1003600007D54FF0000EDCF1000C7EEB00006EEBC9
:100370000101B1F5801F1BD3B1F5001F0CD3490853
:100380005FEA30004FEA3C0C04F101044FEA4452AA
:1003900012F5800F80F09A80BCF1004F08BF5FEA31
:1003A000500C50F1000041EB045141EA050130BD11
:1003B0005FEA4C0C404141EB010111F4801FA4F1B4
:1003C0000104E9D191F0000F04BF01460020B1FA09
:1003D00081F308BF2033A3F10B03B3F120020CDA41
:1003E0000C3208DD02F1140CC2F10C0201FA0CF01F
:1003F00021FA02F10CE002F11402D8BFC2F1200C84
:1004000001FA02F120FA0CFCDCBF41EA0C01904039
:10041000E41AA2BF01EB0451294330BD6FEA040482
:100420001F3C1CDA0C340EDC04F11404C4F120026D
:1004300020FA04F001FA02F340EA030021FA04F37F
:1004400045EA030130BDC4F10C04C4F1200220FAD6
:1004500002F001FA04F340EA0300294630BD21FA14
:1004600004F0294630BD94F0000F83F4801306BFDA
:1004700081F480110134013D4EE77FEA645C18BFCE
:100480007FEA655C29D094EA050F08BF90EA020F65
:1004900005D054EA000C04BF1946104630BD91EA5D
:1004A000030F1EBF0021002030BD5FEA545C05D160
:1004B0004000494128BF41F0004130BD14F580049F
:1004C0003CBF01F5801130BD01F0004545F0FE4113
:1004D00041F470014FF0000030BD7FEA645C1ABF48
:1004E000194610467FEA655C1CBF0B46024650EA7F
:1004F000013406BF52EA033591EA030F41F40021AB
:1005000030BD00BF90F0000F04BF0021704730B530
:100510004FF4806404F132044FF000054FF0000105
:1005200050E700BF90F0000F04BF0021704730B5C6
:100530004FF4806404F1320410F0004548BF40429B
:100540004FF000013EE700BF42004FEAE2014FEAF0
:1005500031014FEA02701FBF12F07F4393F07F4FCB
:1005600081F06051704792F0000F14BF93F07F4FFD
:10057000704730B54FF4607401F0004521F0004140
:1005800020E700BF50EA010208BF704730B54FF0C6
:1005900000050AE050EA010208BF704730B511F0CB
:1005A000004502D5404261EB41014FF4806404F103
:1005B00032045FEA915C3FF4DCAE4FF003025FEA85
:1005C000DC0C18BF03325FEADC0C18BF033202EB0D
:1005D000DC02C2F1200300FA03FC20FA02F001FA67
:1005E00003FE40EA0E0021FA02F11444C1E600BF06
:1005F00070B54FF0FF0C4CF4E06C1CEA11541DBFB9
:100600001CEA135594EA0C0F95EA0C0F00F0DEF883
:100610002C4481EA030621EA4C5123EA4C5350EA68
:10062000013518BF52EA033541F4801143F48013B9
:1006300038D0A0FB02CE4FF00005E1FB02E506F04A
:100640000042E0FB03E54FF00006E1FB03569CF09F
:10065000000F18BF4EF0010EA4F1FF04B6F5007FA5
:1006600064F5407404D25FEA4E0E6D4146EB060617
:1006700042EAC62141EA55514FEAC52040EA5E50A0
:100680004FEACE2EB4F1FD0C88BFBCF5E06F1ED84A
:10069000BEF1004F08BF5FEA500E50F1000041EB81
:1006A000045170BD06F0004646EA010140EA02002E
:1006B00081EA0301B4EB5C04C2BFD4EB0C0541EA50
:1006C000045170BD41F480114FF0000E013C00F365
:1006D000AB8014F1360FDEBF002001F0004170BD89
:1006E000C4F10004203C35DA0C341BDC04F11404A2
:1006F000C4F1200500FA05F320FA04F001FA05F22E
:1007000040EA020001F0004221F0004110EBD370FA
:1007100021FA04F642EB06015EEA430E08BF20EA26
:10072000D37070BDC4F10C04C4F1200500FA04F3C9
:1007300020FA05F001FA04F240EA020001F000415B
:1007400010EBD37041F100015EEA430E08BF20EACE
:10075000D37070BDC4F1200500FA05F24EEA020E16
:1007600020FA04F301FA05F243EA020321FA04F045
:1007700001F0004121FA04F220EA020000EBD370FC
:100780005EEA430E08BF20EAD37070BD94F0000FFC
:100790000FD101F00046400041EB010111F4801F30
:1007A00008BF013CF7D041EA060195F0000F18BFE1
:1007B000704703F00046520043EB030313F4801F1D
:1007C00008BF013DF7D043EA0603704794EA0C0FD7
:1007D0000CEA135518BF95EA0C0F0CD050EA4106ED
:1007E00018BF52EA4306D1D181EA030101F000416A
:1007F0004FF0000070BD50EA410606BF1046194692
:1008000052EA430619D094EA0C0F02D150EA01369D
:1008100013D195EA0C0F05D152EA03361CBF1046DE
:1008200019460AD181EA030101F0004141F0FE417D
:1008300041F470014FF0000070BD41F0FE4141F401
:10084000780170BD70B54FF0FF0C4CF4E06C1CEA01
:1008500011541DBF1CEA135594EA0C0F95EA0C0FB6
:1008600000F0A7F8A4EB050481EA030E52EA033571
:100870004FEA013100F088804FEA03334FF0805592
:1008800045EA131343EA12634FEA022245EA1115BF
:1008900045EA10654FEA00260EF000419D4208BF70
:1008A000964244F1FD0404F5407402D25B084FEA1D
:1008B0003202B61A65EB03055B084FEA32024FF4C9
:1008C00080104FF4002CB6EB020E75EB030E22BF26
:1008D000B61A754640EA0C005B084FEA3202B6EBE6
:1008E000020E75EB030E22BFB61A754640EA5C0095
:1008F0005B084FEA3202B6EB020E75EB030E22BF25
:10090000B61A754640EA9C005B084FEA3202B6EB25
:10091000020E75EB030E22BFB61A754640EADC00E4
:1009200055EA060E18D04FEA051545EA16754FEA46
:1009300006164FEAC30343EA52734FEAC2025FEA64
:100940001C1CC0D111F4801F0BD141EA00014FF0F3
:1009500000004FF0004CB6E711F4801F04BF0143C4
:100960000020B4F1FD0C88BFBCF5E06F3FF6AFAEE0
:10097000B5EB030C04BFB6EB020C5FEA500C50F170
:10098000000041EB045170BD0EF0004E4EEA1131F3
:1009900014EB5C04C2BFD4EB0C0541EA045170BDFA
:1009A00041F480114FF0000E013C90E645EA060E3E
:1009B0008DE60CEA135594EA0C0F08BF95EA0C0F6C
:1009C0003FF43BAF94EA0C0F0AD150EA01347FF4B4
:1009D00034AF95EA0C0F7FF425AF104619462CE78B
:1009E00095EA0C0F06D152EA03353FF4FDAE1046EE
:1009F000194622E750EA410618BF52EA43067FF43F
:100A0000C5AE50EA41047FF40DAF52EA43057FF4CE
:100A1000EBAE12E74FF0FF3C06E000BF4FF0010CD9
:100A200002E000BF4FF0010C4DF804CD4FEA410C3D
:100A30007FEA6C5C4FEA430C18BF7FEA6C5C1BD00A
:100A400001B050EA410C0CBF52EA430C91EA030F8B
:100A500002BF90EA020F0020704710F1000F91EAE8
:100A6000030F58BF994208BF90422CBFD8176FEAB6
:100A7000E37040F0010070474FEA410C7FEA6C5C84
:100A800002D150EA013C07D14FEA430C7FEA6C5C8B
:100A9000D6D152EA033CD3D05DF8040B704700BFB7
:100AA0008446104662468C461946634600E000BF05
:100AB00001B5FFF7B7FF002848BF10F1000F01BDD7
:100AC0004DF808EDFFF7F4FF0CBF012000205DF8A2
:100AD00008FB00BF4DF808EDFFF7EAFF34BF012027
:100AE00000205DF808FB00BF4DF808EDFFF7E0FFC0
:100AF00094BF012000205DF808FB00BF4DF808ED11
:100B0000FFF7CEFF94BF012000205DF808FB00BF77
:100B10004DF808EDFFF7C4FF34BF012000205DF859
:100B200008FB00BF4FEA410C7FEA6C5C02D150EA3F
:100B3000013C0AD14FEA430C7FEA6C5C02D152EAD5
:100B4000033C02D14FF0000070474FF001007047A6
:100B50004FEA410212F5001215D211D56FF47873E5
:100B6000B3EB625212D94FEAC12343F0004343EA88
:100B7000505311F0004F23FA02F018BF4042704763
:100B80004FF00000704750EA013005D111F00040ED
:100B900008BF6FF0004070474FF00000704700BF83
:100BA00053B94AB9002908BF00281CBF4FF0FF31D4
:100BB0004FF0FF3000F07AB9ADF1080C6DE904CECA
:100BC00000F006F8DDF804E0DDE9022304B0704728
:100BD0002DE9F0478C460D460446089E002B51D166
:100BE0008A4217466DD9B2FA82FEBEF1000F0BD0D1
:100BF000CEF1200C01FA0EF520FA0CFC02FA0EF7E9
:100C00004CEA050C00FA0EF44FEA174A250CBCFB1F
:100C1000FAF81FFA87F90AFB18CC45EA0C4508FBDD
:100C200009F3AB420AD9ED1908F1FF3280F02381B4
:100C3000AB4240F22081A8F102083D44ED1AA4B273
:100C4000B5FBFAF00AFB105544EA054400FB09F92C
:100C5000A14509D9E41900F1FF3380F00A81A145CB
:100C600040F2078102383C44A4EB090440EA084002
:100C70000021002E61D024FA0EF40023346073604A
:100C8000BDE8F0878B4207D9002E54D0002186E8BA
:100C900021000846BDE8F087B3FA83F1002940F04F
:100CA0008E80AB4202D3824200F2FA80841A65EB56
:100CB00003050120AC46002E3FD086E81010BDE8A9
:100CC000F08712B90127B7FBF2F7B7FA87FEBEF13A
:100CD000000F34D1EB1B3A0C1FFA87FC0121B3FB48
:100CE000F2F8250C02FB183345EA03450CFB08F328
:100CF000AB4207D9ED1908F1FF3002D2AB4200F246
:100D0000D1808046ED1AA3B2B5FBF2F002FB10557C
:100D100043EA05440CFB00FCA44507D9E41900F1A3
:100D2000FF3302D2A44500F2B8801846A4EB0C04AD
:100D300040EA08409DE731463046BDE8F087CEF1F5
:100D4000200405FA0EF307FA0EF720FA04F83A0C1D
:100D500025FA04F448EA0308B4FBF2F14FEA184517
:100D600002FB11441FFA87FC45EA044501FB0CF322
:100D7000AB4200FA0EF409D9ED1901F1FF3080F011
:100D80008A80AB4240F2878002393D44EB1A1FFA59
:100D900088F5B3FBF2F002FB103345EA034500FB94
:100DA0000CF3AB4207D9ED1900F1FF386FD2AB421B
:100DB0006DD902383D44EB1A40EA01418FE7C1F199
:100DC000200722FA07F88B4005FA01F448EA0303EA
:100DD00020FA07FE4FEA134CFD404EEA040EB5FB25
:100DE000FCF94FEA1E440CFB19551FFA83F844EA3C
:100DF000054509FB08F4AC4202FA01F200FA01FAD7
:100E000008D9ED1809F1FF3043D2AC4241D9A9F11C
:100E100002091D442D1B1FFA8EFEB5FBFCF00CFBD6
:100E200010554EEA054400FB08F8A04507D9E41820
:100E300000F1FF3529D2A04527D902381C4440EAE9
:100E40000940A4EB0804A0FB02894C45C6464D4668
:100E500015D312D056B1BAEB0E0364EB050404FAB5
:100E600007F7CB401F43CC40376074600021BDE8DA
:100E7000F0871846F8E69046E0E6C245EAD2B8EBBD
:100E8000020E69EB03050138E4E72846D7E7404640
:100E900091E78146BEE7014678E702383C4445E7E2
:100EA000084608E7A8F102083D442BE7704700BF59
:100EB00038B50A4B054618684FF47A73B0FBF3F067
:100EC00000F008FD044638B9024629464FF0FF30CD
:100ED00000F0CCFC204638BD012038BD00000020C9
:100EE000094A136843F4807310B50320136000F0BF
:100EF000ABFC0020FFF7DCFF044618B903F03AFF13
:100F0000204610BD0124FBE700200240024A13687E
:100F100001331360704700BF00020020014B1868C6
:100F2000704700BF0002002038B50446FFF7F6FF07
:100F3000631C054618BF0134FFF7F0FF401B8442D5
:100F4000FAD838BD30B5CC0D04F004041430C1F328
:100F50000451072303FA01F5235802FA01F123EAA9
:100F600005031943215030BD806800F0010070472F
:100F70008068C0F38000704737B5002301930446B2
:100F8000002800F08580456D25B903F0ABFBA56511
:100F900084F85050206883689B007BD48368DD0010
:100FA0007FD58368D90040F18A800021FFF7E0FFF8
:100FB000636D13F0100F636D67D1002865D123F4C2
:100FC000817343F0020363652068FFF7CDFF98B992
:100FD0005248FFF7C9FF03465148FFF7C5FF0343D7
:100FE0005048FFF7C1FF034306D14F4A606893683A
:100FF00023F47C1303439360E068636B94F8202030
:101000000343A0680343607E012A43EA403343EA76
:10101000024302BF626A02F1FF3243EA4243A26A1C
:1010200022B1E06A02F470720243134320683F4A1F
:10103000C5682A401343C360FFF79AFF23689A6884
:10104000120746D52269012A05BF186BE2691A6B9F
:1010500002F1FF3206BF20F00F00024322F00F0220
:101060001A63636D23F0030343F0010363650846CD
:1010700003B030BD019B013B0193019B002BF9D1D3
:101080008FE71A6922F0010245E043F0100363651F
:101090000121ECE7836823F0204323F03F038360C2
:1010A0007CE78368224A23F0104323F03F0343F098
:1010B000805383601F4B1B68B3FBF2F3DCE7636D67
:1010C00043F010036365A36D43F00103A3650121A1
:1010D0006CE70028B6D1D86894F83020257E5200FD
:1010E00020F4804042EA853220F002000243DA60B8
:1010F00094F83820012AC4D1256CE26B18692A4380
:10110000656C42F001022A43A56C20F4FF602A437B
:1011100020F0040002431A6194E700BF000004506D
:1011200000010450000204500003045007C0F0FF07
:10113000400D030000000020384B2DE9F0414569C7
:101140009E68082D04460F4606F01F0617D0092E8C
:1011500010D840F22122F240D1070BD50368DB689A
:1011600013F0010F0AD0636D43F020036365012083
:10117000BDE8F0819B6813F4604FF3E70425FFF7A7
:10118000CDFE804623681A68154221D0626D42F474
:1011900000726265DA6812F4406F0FD1627E6AB93C
:1011A0001A6810070AD5626D22F480726265626D5A
:1011B000D1045EBF626D42F001026265184A93423B
:1011C00021D0D868082D17D11D600020BDE8F0811E
:1011D0007A1CD8D0FFF7A2FEA0EB0800874201D30B
:1011E000002FCFD1636D43F004036365002384F8BF
:1011F00050300320BDE8F08110F48040E5D10C228E
:101200001A60BDE8F081092E05D840F2212222FAA9
:1012100006F6F207D5D4034AD068D3E7000304509A
:1012200000010450000004500368186C704700006F
:10123000F7B50023019390F85030012B05460C467A
:1012400000F08781012380F850300068FFF790FE9E
:10125000002840F078814B68052B08D8023B032B0F
:1012600065D8DFE803F0025D5F610C2363606168AD
:1012700028688E0900F1300706F00C0601F01F0106
:101280001F2303FA01F2F35923EA02032268C2F38F
:1012900084628A401343F351FFF76AFE2B689A6811
:1012A000110740F158812868FFF75EFE002840F0E2
:1012B000D780E66828682368C34AD0F8B01006F0E3
:1012C000180EC3F3120722FA0EF21A4021EA0701A0
:1012D0000A43C0F8B020BD4A964240F0C180002FBA
:1012E00040F093809E0E013606F01F02092A4FF04F
:1012F00001014FEA866640F2A28006F0F84691406E
:1013000041EA0602002F40F0CB809B0E013303F030
:101310001F0303EB43011E39090541F000719BE0F7
:101320001223A3E71823A1E74FF480739EE7062357
:101330009CE7DEF86010C3F31200C1F384670EF17E
:10134000640600283AD1C3F38460874240F02881C4
:1013500021F00041CEF860102368DEF86410C3F37A
:101360001207C1F384609FBBC3F38463834240F0E0
:101370001C8121F00041316023689168C3F312079A
:1013800002F10806C1F3846077BBC3F38463834230
:1013900040F0128121F000413160236802F10C001D
:1013A000D268C3F31206C2F384614EBBC3F38463F5
:1013B0008B4204BF22F00042026074E793FAA3F06C
:1013C000B0FA80F08742C3D0DEF86410C1F38460C5
:1013D00093FAA3F3B3FA83F38342CAD091682368E4
:1013E00002F10806C1F3846093FAA3F3B3FA83F31E
:1013F0008342CFD002F10C00D2682368C2F384612B
:1014000093FAA3F3B3FA83F3D2E793FAA3F2B2FA0F
:1014100082F2013202F01F02092A30D893FAA3F6B1
:10142000B6FA86F60136B60606F0F84693FAA3F148
:10143000B1FA81F1013101F01F02012101E006F052
:10144000F846914041EA0602A7B9990E013101F030
:101450001F0101EB410109051143A268FFF772FD6D
:1014600022685B4B1A4220D10020002385F85030BF
:1014700003B0F0BD93FAA3F1B1FA81F1E6E793FA74
:10148000A3F2B2FA82F20132920602F0F84693FA1F
:10149000A3F1B1FA81F1013101F01F0201212EE720
:1014A00093FAA3F3B3FA83F330E74A494A4B8868C7
:1014B0009A4200F0E0760C461ED10202D4D42B688A
:1014C000464A934203D002F500729342CCD1A368FE
:1014D000434A23F0E073334343F40003A360414BDA
:1014E0001B68B3FBF2F20C2353430193019B002BC7
:1014F000BAD0019B013BF8E73B4B9A4211D1C301A3
:10150000B2D42B68354A934203D002F5007293425D
:10151000AAD1A36823F0E073334343F08073A36040
:10152000A2E7324B9A429FD110F480009CD12A68E6
:101530002A4B9A4298D18B6823F0E073334343F4EB
:1015400080038B6091E76A6D42F020026A6518465D
:101550008BE702208CE700287FF4A5AEA268216803
:101560001846FFF7EFFC2669D5F800E02368DEF89F
:101570000C10042E0EF160023FF4DBAEC1F3C1018A
:101580004800616903F0F843814043F00043194388
:1015900052F82600164B0340194342F8261082E603
:1015A000DEF86410C1F38460DEE69168236802F11E
:1015B0000806C1F38460E8E602F10C00D2682368F3
:1015C000C2F38461F2E600BFFFFF070000007F4026
:1015D0000000088000030450000052C700000450BF
:1015E000400D030000000020000084CB01000080BB
:1015F00000F0FF0370B504460068FFF7B5FC08B1C2
:10160000002070BD2268154B9168194209D0636DA6
:1016100043F010036365A36D43F00103A36501204C
:1016200070BD93680E4D2B4043F001039360FFF7AC
:1016300075FC064620680368DB07E1D4FFF794FCDD
:1016400028B9226893682B4043F001039360FFF7A9
:1016500065FC801B0228EDD9D9E700BF3F00008060
:10166000C0FFFF7F354B70B5044600689E68FFF7EA
:101670007FFC054600285AD194F85030012B56D0F3
:10168000012384F850302046FFF7B4FF00284BD1E7
:10169000636D2B4A23F4706323F0010343F48073DA
:1016A00063652368934206F01F0642D01D46626DB3
:1016B00022F480126265626D12F480521CBFA26D2A
:1016C00022F00602A2651C221A60AB424FF0000213
:1016D00084F8502008D0092E9DBF40F22122F2400C
:1016E000D2430122D10711D4DA68920141BF626D61
:1016F00022F4405242F4805262659A6822F000421D
:1017000022F03F0242F004029A6070BD636D43F420
:1017100080136365EB689B010FD5636D23F4405321
:1017200043F48053636570BD84F8505070BD02204F
:1017300070BD044D002EBAD0BDE770BD000304504B
:101740000001045000000450806800F00100704760
:101750008068C0F38000704730B590F85030012B9E
:101760009BB0024666D0012380F85030324B0068AF
:1017700098420CBF03F5807300230193019840B990
:10178000536D82F8500043F02003536501201BB0D5
:1017900030BDFFF7DDFF03461068FFF7D9FF0028D3
:1017A00042D1002B40D10B68244C33B3A368486866
:1017B00023F46043034392F8300043EA4033A360CC
:1017C0001D48FFF7C1FF03461D48FFF7BDFF034358
:1017D0001C48FFF7B9FF184304D00020002382F80B
:1017E0005030D4E70B68A56889680B4325F4716114
:1017F00021F00F010B43A360F0E7A3680E4823F428
:101800006043A360FFF7A0FF03460D48FFF79CFF6E
:1018100003430C48FFF798FF1843DED1A36823F475
:10182000716323F00F03E6E7536D43F02003536524
:101830000120D3E70220AAE700000450000304506F
:101840000001045000020450074AD36823F4E06307
:101850001B041B0C43F0BF63000243F4003300F48D
:10186000E0600343D360704700ED00E0174B30B5F4
:10187000DC68C4F30224C4F10703251D042B28BF30
:101880000423062D4FF0010505FA03F303F1FF339E
:101890008CBF033C00241940A14005FA04F4013C2C
:1018A0002240002842EA01024FEA0212AFBF00F1D3
:1018B000604000F00F00064BD2B2A5BF00F56140BA
:1018C000D2B21A5480F8002330BD00BF00ED00E012
:1018D00014ED00E00138B0F1807F0AD2064B074AD0
:1018E0005860F02182F823100020072298601A60C7
:1018F00070470120704700BF10E000E000ED00E0FD
:101900002DE9F04F85B00B68DFF8A881674C019393
:101910000023019ADA4002D105B0BDE8F08F01261C
:10192000019A9E4012EA060E00F0B1804A6822F049
:101930001007022F16D14FEAD30900EB890903F0F3
:10194000070AD9F820504FEA8A0A4FF00F0C0CFA18
:101950000AFC25EA0C0C0D6905FA0AF545EA0C05A6
:10196000C9F820504FEA430C0325D0F800B005FA1F
:101970000CF5ED4302F0030A0BEA050B0AFA0CF929
:10198000013F49EA0B09012FC0F8009011D8876880
:1019900005EA0709CF6807FA0CF747EA09078760E5
:1019A000476827EA0609C2F300179F4047EA09077C
:1019B0004760BAF1030F07D1C76A27EA0606C2F3E8
:1019C000C0079F403E43C662C66835408E6806FA2F
:1019D0000CF63543C560D50059D5D8F8605045F0B0
:1019E0000105C8F86050D8F8605023F0030606F1EE
:1019F000804605F0010506F58036039503F0030CDB
:101A0000039DB5684FEA8C0C0F2707FA0CF7B0F16D
:101A1000904F25EA07073CD0254DA8423BD005F55D
:101A20008065A84239D005F58065A84237D005F514
:101A30008065A84235D005F58065A84233D005F50C
:101A40008065A84214BF0725062505FA0CF53D431D
:101A5000B56025686FEA0E06D70354BF35404EEADD
:101A6000050525606568970354BF35404EEA0505B6
:101A70006560A568D70254BF35404EEA0505A560EC
:101A8000E568920254BF35404EEA0505E560013332
:101A90003FE70025D9E70125D7E70225D5E703254C
:101AA000D3E70425D1E70525CFE700BF00040140B7
:101AB00000040048001002400AB181617047816251
:101AC000704703689A69910744BF00229A629A6935
:101AD000D2075EBF9A6942F001029A61704730B541
:101AE000039C05682343640D04F4806444F07F7410
:101AF00044F458346868C1F3090144F47F7419430D
:101B000044F0030441EA024120EA040421436960ED
:101B100030BD2DE9F041069F0446884616461D4615
:101B20002268936938EA03030CBF01230023B34200
:101B300002D00020BDE8F0816B1CF2D0FFF7EEF977
:101B4000C01B854201D3002DEAD1636C43F0200312
:101B50006364202384F84130002384F8423084F801
:101B600040300120BDE8F081036870B504469869F3
:101B700010F010000D46164616D170BD691C14D029
:101B8000FFF7CCF9801B854200D36DB9636C43F03D
:101B900020036364202384F84130002384F842301A
:101BA00084F84030012070BD236899698A06E5D524
:101BB00010222025DA612046DD61FFF782FF2268CE
:101BC000536823F0FF7323F48B3323F4FF7323F064
:101BD00001035360636C43F00403636484F8415071
:101BE000DBE770B504460D46164623689B699B07E4
:101BF00001D5002070BD324629462046FFF7B4FFCC
:101C0000A0B96A1CF1D0FFF789F9801B854201D386
:101C1000002DEAD1636C43F020036364202384F831
:101C20004130002384F8423084F84030012070BDF8
:101C3000F7B5099E1F46164B0093054614464FF014
:101C40008073FAB2FFF74BFF324608992846FFF738
:101C5000C8FF10B1012003B0F0BD012F2B680CD1DB
:101C6000E4B29C62089B0096002280212846FFF780
:101C700050FF003018BF0120EDE7220A9A62089950
:101C800032462846FFF7ADFF0028E3D12B68E7E78F
:101C900000200080F7B5099E1F46164B00930546AD
:101CA00014460023FAB2FFF71AFF32460899284675
:101CB000FFF797FF10B1012003B0F0BD012F2B6893
:101CC0000CD1E4B29C62089B009600224021284679
:101CD000FFF71FFF003018BF0120EDE7220A9A62CC
:101CE000089932462846FFF77CFF0028E3D12B688D
:101CF000E7E700BF0020008070B504460D46164699
:101D000023689B699B0601D5002070BD3246294699
:101D10002046FFF729FF90B9FFF700F9801B8542A5
:101D200001D3002DECD1636C43F0200363642023C6
:101D300084F84130002384F8423084F84030012098
:101D400070BD70B504460D46164623689B695B0757
:101D50000ED4324629462046FFF706FFF0B9236825
:101D60009A6991061CD59A69520703D5228D0AB14A
:101D7000002070BD2021D9615A6822F0FF7222F440
:101D80008B3222F4FF7222F001025A600023636456
:101D900084F8411084F8423084F84030012070BD4E
:101DA000FFF7BCF8801B854201D3002DCDD1636CB9
:101DB00043F020036364202384F841300023EBE7E1
:101DC00010B5044600284AD090F8413003F0FF02D5
:101DD0001BB980F8402002F08BFD242384F84130A9
:101DE0002368E1681A6822F001021A60626822F032
:101DF00070621A619A68012922F400429A60A2680E
:101E000024D142F400429A605A68616942F000723B
:101E100042F400425A60DA6822F40042DA60226931
:101E20000A43A16942EA0122DA60216AE2690A43AF
:101E30001A601A6842F001021A60002020236064D0
:101E400084F84130206384F8420010BD42F404421B
:101E500002299A6004BF4FF400625A60D4E701205F
:101E600010BD00002DE9F743984690F84130202B33
:101E700004460E46914640F0848090F84030012B95
:101E80007FD0012780F84070FFF748F819230546F6
:101E900000903A464FF400412046FFF73AFE18B151
:101EA000012003B0BDE8F083212384F841301023E2
:101EB00084F842306064A4F82A80638DC4F82490CA
:101EC0009BB2FF2B6063304B26D9FF222285009303
:101ED0004FF0807331462046FFF701FE638D0A996B
:101EE0009BB22A462046FBB9FFF706FF0028D7D150
:101EF00023682021D9615A6822F0FF7222F48B32C4
:101F000022F4FF7222F001025A6084F8411084F832
:101F1000400084F84200C4E7628D009392B22285AB
:101F20004FF00073D2B2D5E7FFF75BFE0028B7D1C0
:101F3000636A226813F8011B91626362638D228DCC
:101F4000013B9BB26385638D013A92B29BB22285BD
:101F5000002BC3D0002AC1D100950A9B80212046C6
:101F6000FFF7D7FD00289BD1638D9BB2FF2B03D9D0
:101F7000FF2222850090ABE7628D009092B222850D
:101F8000CEE702208DE700BF002000802DE9F74357
:101F9000984690F84130202B04460E46914640F07A
:101FA000868090F84030012B00F08180012780F876
:101FB0004070FEF7B3FF1923054600903A464FF4F0
:101FC00000412046FFF7A5FD18B1012003B0BDE890
:101FD000F083222384F84130102384F84230606477
:101FE000A4F82A80638DC4F824909BB2FF2B606311
:101FF000304B26D9FF22228500934FF08073314663
:102000002046FFF76CFD638D0A999BB22A46204655
:10201000FBB9FFF771FE0028D7D123682021D961D1
:102020005A6822F0FF7222F48B3222F4FF7222F0FF
:1020300001025A6084F8411084F8400084F842009C
:10204000C4E7628D009392B222854FF00073D2B242
:10205000D5E7FFF776FE0028B7D12268636A526A97
:102060001A70636A228D01336362638D013B9BB2F8
:102070006385638D013A92B29BB22285002BC2D058
:10208000002AC0D100950A9B80212046FFF741FD20
:1020900000289AD1638D9BB2FF2B03D9FF222285A2
:1020A0000090AAE7628D009092B22285CDE70220CF
:1020B0008CE700BF002400802DE9F04F9B4690F88C
:1020C000413085B0202B04460F460392BDF83CA05A
:1020D000DDF8408040F0A5800E9B13B1BAF1000FEF
:1020E00006D14FF400736364012005B0BDE8F08FA2
:1020F00090F84030012B00F09480012580F840508A
:10210000FEF70CFF1923009006462A464FF40041C3
:102110002046FFF7FEFC81460028E5D1212384F804
:102120004130402384F842300E9B606463626063F8
:10213000A4F82AA00196CDF800805B46039A3946A0
:102140002046FFF775FD10B184F84090CCE7638D11
:102150009BB2FF2B55D9FF22228500904FF0807350
:1021600039462046FFF7BBFC324641462046FFF782
:1021700038FD0028B8D1636A226813F8011B916208
:102180006362638D228D013B9BB26385638D013A4F
:1021900092B29BB22285ABB1A2B900964346802190
:1021A0002046FFF7B6FC00289ED1638D9BB2FF2B23
:1021B0002FD9FF22228500904FF0807339462046A8
:1021C000FFF78DFC638D9BB2002BCDD1324641468B
:1021D0002046FFF791FD002886D123682021D96190
:1021E0005A6822F0FF7222F48B3222F4FF7222F03E
:1021F00001025A6084F8411084F8400084F84200DB
:1022000073E7628D009092B222854FF00073D2B2D4
:10221000A6E7628D009092B222854FF00073D2B291
:10222000CCE7022061E700002DE9F04F9B4690F8D3
:10223000413085B0202B04460F460392BDF83CA0E8
:10224000DDF8408040F0A9800E9B13B1BAF1000F79
:1022500006D14FF400736364012005B0BDE8F08F30
:1022600090F84030012B00F09880012580F8405014
:10227000FEF754FE1923009006462A464FF400410B
:102280002046FFF746FC81460028E5D1222384F84A
:102290004130402384F842300E9B60646362606387
:1022A000A4F82AA00196CDF800805B46039A39462F
:1022B0002046FFF7EFFC10B184F84090CCE7638D27
:1022C0009BB2FF2B364B58D9FF22009322854FF04B
:1022D000807339462046FFF702FC009643460022F1
:1022E00004212046FFF715FC0028B5D12268636A57
:1022F000526A1A70636A228D01336362638D013BF7
:102300009BB26385638D013A92B29BB22285ABB1D9
:10231000A2B90096434680212046FFF7FAFB002829
:102320009AD1638D9BB2FF2B2FD9FF22228500907B
:102330004FF0807339462046FFF7D1FB638D9BB287
:10234000002BCAD1324641462046FFF7D5FC002873
:1023500082D123682021D9615A6822F0FF7222F4C9
:102360008B3222F4FF7222F001025A6084F841108D
:1023700084F8400084F842006FE7628D009392B2C7
:1023800022854FF00073D2B2A3E7628D009092B223
:1023900022854FF00073D2B2CCE702205DE700BF88
:1023A0000024008090F84120D2B2202A10B51DD11F
:1023B00090F84030012B19D0242380F84130036875
:1023C0001C6824F001041C601C6824F480541C6008
:1023D0001C6821431960196841F00101196000234C
:1023E00080F8412080F84030184610BD022010BD12
:1023F00010B590F84140E4B2202C1CD190F8403048
:10240000012B18D0242380F8413003681A6822F089
:1024100001021A601A6822F4706242EA012119600E
:102420001A6842F001021A60002380F8414080F8E7
:102430004030184610BD022010BD000070B50446A3
:10244000002847D090F8363003F0FF021BB980F81F
:10245000352002F0F3FA02232068656884F83630EC
:10246000C26861691C4E012D4FF6FF7308BF22F050
:102470001E0299421CBF22F4604222F0C0021640A4
:10248000A26845EA0203226A1343626A1343A26AFE
:10249000012D43EA020304BF2569E26843EA06030B
:1024A00004BF2A4313434FF6FF72914204D0A2693E
:1024B0001143E26911430B43C360084B984208BFC4
:1024C000226BE36A08BF13430362012384F83630AA
:1024D000002070BD012070BDFEF119FF007C00409E
:1024E000024B186800F4C060704700BF00700040E5
:1024F000174B1A68B0F5007F02F4C0621CD1B2F528
:10250000007F15D01A6822F4C06242F400721A608B
:10251000104A116832224A430F49B2FBF1F21946C0
:1025200001325869400500D522B94B695B050DD4CD
:1025300000207047013AF4E7B2F5806F1FBF1A68B8
:1025400022F4C06242F480621A60F1E7032070470F
:10255000007000400000002040420F0037B51E4DC3
:10256000AB6DDA00044618D5FFF7BAFFB0F5007F6F
:1025700023D1802C29D9A02C8CBF02200120174AFE
:10258000136823F0070303431360136803F0070382
:10259000181A18BF012003B030BDAB6D43F0805353
:1025A000AB65AB6D03F080530193019BFFF798FF80
:1025B000AB6D23F08053AB65D8E7802C07D808D0EB
:1025C000A4F1700358425841D9E70020D7E703200F
:1025D000D5E70220D3E700BF0010024000200240F0
:1025E000254B9A68D96812F00C0205D00C2A15D137
:1025F00001F00301012918D119682048090755BFC6
:10260000D3F894101968C1F30321C1F3031150F8F2
:10261000210082B30C2A09D000207047042A29D057
:10262000082A174818BF002070470020D968DA68C8
:1026300001F00301C2F30212022902F1010205D0E6
:10264000032912D0D968C1F3062103E0D9680D48E7
:10265000C1F30621DB68B0FBF2F0C3F34163013341
:1026600048435B00B0FBF3F07047D9680448C1F3FE
:102670000621EFE70348704700100240847B000802
:1026800000127A000024F4002DE9F743054618B93A
:10269000012003B0BDE8F083A54C0368A668E76895
:1026A000DB0606F00C0607F003073CD51EB10C2E26
:1026B00063D1012F61D12368980702D5AB69002B44
:1026C000E6D02368286A190756BFD4F894302368E7
:1026D0001B0903F0F00383423AD2FFF73FFF0028C3
:1026E000D6D1236843F00803236023682A6A23F0C5
:1026F000F003134323606368EA6923F47F4343EAEA
:1027000002236360FFF76CFFA3688A4AC3F30313D5
:10271000D35C03F01F03D840874B18600020FEF7FE
:10272000C7FB0028B5D12B68D8075DD42B68990763
:1027300000F19C802B68180700F1D0802B685907A6
:1027400000F1FC80AB6A002B40F065810020A0E71F
:10275000236843F008032360236823F0F003034356
:1027600023606368EA6923F47F4343EA02236360DA
:10277000FFF7F4FE0028C5D08AE7AB691BB32368D6
:1027800043F001032360FEF7C9FB804623689A07E4
:1027900011D5236843F00803236023682A6A23F0D5
:1027A000F003134323606368EA6923F47F4343EA39
:1027B00002236360B7E7FEF7B1FBA0EB0800022835
:1027C000E4D9032065E7236823F001032360FEF7C3
:1027D000A5FB804623689B07A5D5FEF79FFBA0EBD2
:1027E00008000228F6D9ECE7082E03D00C2E08D1F9
:1027F000032F06D123689A0398D56B68002B95D1D7
:1028000046E76B68B3F5803F10D1236843F480330B
:102810002360FEF783FB804623689B0386D4FEF784
:102820007DFBA0EB08006428F6D9CAE7B3F5A02F1A
:1028300004D1236843F480232360E6E7226822F46E
:1028400080322260226822F480222260002BE0D1B4
:10285000FEF764FB8046236898037FF567AFFEF7B9
:102860005DFBA0EB08006428F5D9AAE7042E03D08D
:102870000C2E10D1022F0ED12368590503D5EB6819
:10288000002B3FF405AF63682A6923F0F85343EA4D
:10289000026363604EE7EB687BB1236843F48073A7
:1028A0002360FEF73BFB074623685A05EBD4FEF78F
:1028B00035FBC01B0228F7D983E7236823F4807314
:1028C0002360FEF72BFB074623685B057FF532AFDD
:1028D000FEF724FBC01B0228F6D972E76B699BB197
:1028E000D4F8943043F00103C4F89430FEF716FB9B
:1028F0000746D4F894309A073FF520AFFEF70EFB59
:10290000C01B0228F5D95CE7D4F8943023F001030A
:10291000C4F89430FEF702FB0746D4F894309B07C6
:102920007FF50CAFFEF7FAFAC01B0228F5D948E78D
:10293000001002406C7B000800000020A36DD8004E
:1029400029D4A36D43F08053A365A36D03F0805396
:102950000193019B4FF001085D4F3B68D9051DD5E0
:10296000AB68012B2BD1D4F8903043F00103C4F8AD
:102970009030FEF7D3FA41F288390746D4F8903008
:102980009B0742D5B8F1000F3FF4DCAEA36D23F0F6
:102990008053A365D6E64FF00008DDE73B6843F4BB
:1029A00080733B60FEF7BAFA81463B68DA05D7D4FC
:1029B000FEF7B4FAA0EB09000228F6D901E7052BCF
:1029C00006D1D4F8903043F00403C4F89030CAE73D
:1029D000D4F8902022F00102C4F89020D4F890207E
:1029E00022F00402C4F89020002BC2D1FEF796FA20
:1029F00041F288390746D4F890309807C2D5FEF7DF
:102A00008DFAC01B4845F6D9DBE6FEF787FAC01BF6
:102A10004845B3D9D5E60C2E3FF43AAE022B2368D5
:102A200023F08073236037D1FEF778FA06462368D7
:102A300099012BD46A6BEB6A43EA02232A6B013AB1
:102A400043EA0213AA6B120943EA4243EA6B5208B3
:102A5000013A43EA42532A6C5208013A43EA42637C
:102A6000E360236843F080732360E36843F080737E
:102A7000E360FEF753FA054623689A013FF566AE18
:102A8000FEF74CFA401B0228F6D99AE6FEF746FA02
:102A9000801B0228CBD994E6236813F0205F02BF85
:102AA000E36823F00303E360E36823F0887323F40F
:102AB0008033E360FEF732FA054623689B017FF519
:102AC00045AEFEF72BFA401B0228F6D979E600BF87
:102AD000007000402DE9F0410E46044610B9012077
:102AE000BDE8F081404A136803F007038B4229D305
:102AF0002368D90731D421688A075BD43A4A13681E
:102B000003F007039E425DD311F0040F374D64D1EB
:102B10000B0706D5AB68226923F4605343EAC2036E
:102B2000AB60FFF75DFDAB68314AC3F30313BDE84B
:102B3000F041D35C03F01F03D8402E4B18600020F7
:102B4000FEF7B6B9136823F007030B43136013684D
:102B500003F007039942C2D1CAE76268234D032AF2
:102B60002B681BD113F0007FB9D0AB6823F00303AF
:102B70001343AB60FEF7D2F941F288380746AB68E1
:102B8000626803F00C03B3EB820FB4D0FEF7C6F912
:102B9000C01B4045F3D90320BDE8F081022A02D1D1
:102BA00013F4003FE0E712B913F0020FDCE713F46F
:102BB000806FD9E70D4AA068936823F0F0030343C0
:102BC00093609BE7136823F0070333431360136894
:102BD00003F007039E4282D196E7AB68E26823F4D4
:102BE000E0631343AB6093E7002002400010024013
:102BF0006C7B000800000020054B064A9B68C3F36D
:102C00000223D35C044A106803F01F03D8407047C6
:102C1000001002407C7B000800000020054B064AA3
:102C20009B68C3F3C223D35C044A106803F01F03FC
:102C3000D8407047001002407C7B00080000002054
:102C4000F8B5454BDA6812F0030F05460E461C46F0
:102C500000682AD0DA6802F0030282423CD1002ADE
:102C60003AD0DB686A68C3F302130133934233D16D
:102C7000236823F080632360FEF750F9074623683A
:102C80001A0132D4AF68002E36D0012E50D12269FD
:102C9000286922F4C002400822F4FE42013842EAC8
:102CA000072242EA4052226132E0022810D0032873
:102CB00014D0012810D11B689F0738D5E3686A68D3
:102CC00023F07303013A184340EA0210E060CFE7B3
:102CD0001B6813F4806FF1D10120F8BD1A689103CD
:102CE000ECD41B6813F4802FF5E7FEF717F9C01B2F
:102CF0000228C4D90320F8BD2169EB6821F41F31F3
:102D000021F4407141EA07211B0941EA4341216155
:102D1000236843F080632360FEF700F906462368CA
:102D20001B0113D52369AA69134323610020F8BD51
:102D30002369686923F0C063400823F4FE43013827
:102D400043EA072343EA40632361E1E7FEF7E6F83D
:102D5000801B0228E3D9CDE700100240F8B53D4BB7
:102D6000DA6812F0030F05460E461C46006828D0AC
:102D7000DA6802F0030282423AD1002A38D0DB68D6
:102D80006A68C3F302130133934231D1236823F0FD
:102D900080532360FEF7C2F8074623689A0030D4B8
:102DA000A868002E34D06369296923F0C0634908FC
:102DB00023F4FE43013943EA002343EA416363619C
:102DC00032E0022810D0032814D0012810D11B684B
:102DD0009F0738D5E3686A6823F07303013A184304
:102DE00040EA0210E060D1E71B6813F4806FF1D174
:102DF0000120F8BD1A689103ECD41B6813F4802FEE
:102E0000F5E7FEF78BF8C01B0228C6D90320F8BDF2
:102E10006269EB6822F41F3222F4407242EA002217
:102E20001B0942EA43426261236843F080532360F6
:102E3000FEF774F8064623689B0005D563696A6946
:102E4000134363610020F8BDFEF768F8801B022879
:102E5000F1D9DBE7001002402DE9F347066816F4CC
:102E60000066044624D0416EB1F5800F2CD002D804
:102E7000C1B101261CE0B1F5000F0DD0B1F5400F36
:102E8000F7D14D4A616ED2F8883023F440030B43EA
:102E9000C2F8883000260BE0474AD36843F48033F9
:102EA000D360EEE70430FFF7CBFE06460028E8D0FB
:102EB0002368D80406D5A16EB1F1807F74D008D8FC
:102EC000A9B10126354621E000212030FFF746FF59
:102ED000EBE7B1F1007F04D0B1F1407FF1D135468D
:102EE00009E0354AD36843F48033D360F7E7201D07
:102EF000FFF7A6FE0546002D5CD12F4AA16ED2F841
:102F0000883023F040730B43C2F88830236899035C
:102F100040F14F81284FBB6DDA0040F176814FF0D0
:102F20000008DFF89890D9F8003043F48073C9F8AE
:102F30000030FDF7F3FF8246D9F80030DB053FD5BE
:102F4000002D44D1D7F8903013F4407315D0D4F845
:102F50008420934211D0D7F89030D7F8902042F4D3
:102F60008032C7F89020D7F8902023F4407322F4E1
:102F70008032C7F89020C7F89030D80709D5FDF700
:102F8000CDFF41F288390546D7F89030990740F1D6
:102F90000981D7F89030D4F8842023F44073134388
:102FA000C7F89030354612E0002104F12000FFF709
:102FB000D5FE9FE72E46A9E70010024000700040B2
:102FC000FDF7ACFFA0EB0A000228B5D90325B8F144
:102FD000000F03D0BB6D23F08053BB652368DA0775
:102FE00008D59049A06BD1F8882022F00302024353
:102FF000C1F888209F0708D58A49E06BD1F888205E
:1030000022F00C020243C1F888205E0708D58549EA
:10301000206CD1F8882022F030020243C1F88820C9
:10302000180708D57F49606CD1F8882022F0C002CB
:103030000243C1F88820D90608D57A49A06CD1F896
:10304000882022F440720243C1F888209A0608D5ED
:103050007449E06CD1F8882022F440620243C1F840
:1030600088209F0508D56F49E06DD1F8882022F4AB
:1030700040220243C1F888205E0508D56949206EC8
:10308000D1F8882022F440120243C1F88820580663
:1030900008D56449206DD1F8882022F440520243BB
:1030A000C1F88820190608D55E49606DD1F88820DE
:1030B00022F440420243C1F88820DA0508D5594974
:1030C000A06DD1F8882022F440320243C1F8882054
:1030D0009B040FD5534AE16ED2F8883023F0406349
:1030E0000B43B1F1006FC2F8883064D1D36843F468
:1030F0008013D36023681F030FD54A4A216FD2F88B
:10310000883023F040630B43B1F1006FC2F8883080
:103110005CD1D36843F48013D36023685E030FD57A
:10312000404A616FD2F8883023F040630B43B1F11D
:10313000006FC2F8883054D1D36843F48013D36051
:103140002368580412D53749A26FD1F8883023F08C
:1031500040531343B2F1805FC1F888304CD1022153
:10316000201DFFF76DFD002818BF054622681104D9
:1031700008D52C49E06FD1F8883023F08043034311
:10318000C1F88830D30309D5264AD4F88010D2F884
:10319000883023F000430B43C2F88830284602B041
:1031A000BDE8F087FDF7BAFE401B48457FF6ECAE60
:1031B0000CE7354612E7B1F1806F9BD10121201D4C
:1031C000FFF73EFD002818BF054693E7B1F1806F79
:1031D000A3D10121201DFFF733FD002818BF0546AC
:1031E0009BE7B1F1806FABD10121201DFFF728FDD6
:1031F000002818BF0546A3E7B2F1005FB6D102214F
:1032000004F12000FFF7AAFDADE7BB6D43F080534A
:10321000BB65BB6D03F080530193019B4FF0010828
:103220007FE600BF001002400268C169F8B504469D
:10323000836800691568034360690343BA480B4318
:103240002840034313605368E06823F4405303436A
:103250005360B64BA0699A421CBF236A1843936817
:1032600023F4306303439360B14B9A4219D103F5C1
:103270005843B04AD3F8883003F00303B1F5004F48
:10328000D35C40F03881082B00F28F80DFE813F028
:103290001A01CA00F9008D0014018D008D008D0007
:1032A0003600A54B9A4207D103F5E633A34AD3F87B
:1032B000883003F00C03E1E7A14B9A4223D103F5D8
:1032C000E433D3F8883003F03003102B00F0F180A2
:1032D0000BD8002B00F0F380B1F5004F4FF0010246
:1032E0004FF0000300F0F880A8E0202B00F0C6802B
:1032F000302BF1D1B1F5004F40F0B8806068430841
:1033000003F58033C3E08F4B9A421ED103F5E233BD
:10331000D3F8883003F0C003402B00F0BB800AD8FC
:103320007BB9824B9A4240F0CA80FFF765FC0023CC
:10333000B0BB02463AE0802B00F09D80C02B00F02D
:10334000B0807A4B9A42C7D12FE07F4B9A4211D17D
:1033500003F5E033D3F8883003F44073B3F5807F8E
:1033600000F09880DCD9B3F5007F00F08480B3F5DD
:10337000407FE4E76D4B9A42AED103F5C833D3F8F2
:10338000883003F44063B3F5806F00F08380C7D9C1
:10339000B3F5006F6FD0B3F5406FD0E76B480223F1
:1033A000626802EB4201814205D9012200232366B3
:1033B00063661046F8BDB0EB023FF6D8082B2ED856
:1033C000DFE803F0052D1C2D242D2D2D2700FFF700
:1033D00013FC62684FF4807156080027E1FB006718
:1033E000002330463946FDF7DBFB0022584BA0F5A1
:1033F00040719942D9D82368D860D7E75548550815
:1034000000230021401941F10001ECE7FFF7E8F843
:10341000DFE750080021002310F50000F3E7012248
:103420000020E3E7FFF7FAFB4EE0FFF7E5FB6268F9
:1034300000EB5203B3FBF2F39BB20022A3F11000A6
:103440004FF6EF718842B0D82168CB60AEE7FFF746
:10345000E5FBECE76068430803F5740303F51053DC
:10346000B3FBF0F3E8E7FFF7BBF8E0E76068430879
:1034700003F50043F4E72D4B9A428FD0B1F5004F8E
:10348000E8D16068430803F1F47303F59043B3FB9C
:10349000F0F31FE0254B9A420BD1FFF7A1F804236C
:1034A00046E7224B9A427FF425AF4FF400400823B1
:1034B00076E7B1F5004FD6D1FFF792F804E0B1F509
:1034C000004FB2D1FFF798FB61684A0802EB400356
:1034D000B3FBF1F39BB20022A3F110004FF6EF71A2
:1034E00088423FF662AF23F00F012068C3F3420326
:1034F0000B43C3605AE7082B3FF657AF01A252F8BF
:1035000023F000BF2B3400084F3400085534000866
:10351000AB33000867340008AB330008AB33000856
:10352000AB3300086D340008F369FFEF0080004002
:103530000038014068770008004400406C770008BC
:1035400000480040004C0040005000400024F400BF
:10355000FFFC0F00000024F4436ADA0710B506D51B
:103560000168846A4A6822F4003222434A609C0758
:1035700006D50168C46A4A6822F4803222434A6050
:10358000590706D50168046B4A6822F48022224359
:103590004A601A0706D50168446B4A6822F4004263
:1035A00022434A60DC0606D50168846B8A6822F4EF
:1035B000805222438A60990606D50168C46B8A68E6
:1035C00022F4005222438A605A060FD50168046C27
:1035D0004A6822F480122243B4F5801F4A6005D164
:1035E0004A68446C22F4C00222434A601B0606D596
:1035F0000268816C536823F400230B43536010BDB1
:103600002DE9F041069D04460F461646984621686E
:10361000CA6937EA02030CBF01220022B24202D07B
:103620000020BDE8F0816B1CF2D09DB923681A68B8
:1036300022F4D0721A609A6822F001029A60202364
:1036400084F8713084F87230002384F870300320DD
:10365000BDE8F081FDF762FCA0EB08008542D6D200
:10366000E4E773B5044600264667FDF757FC236878
:103670001B681A07054617D423681B685B070AD521
:103680006FF07E43009300222B464FF480012046CA
:10369000FFF7B6FFA0B92023002084F8713084F82A
:1036A000700084F872300CE06FF07E430093324675
:1036B00003464FF400112046FFF7A2FF0028DBD09D
:1036C000032002B070BD10B5044660B390F87130AD
:1036D00003F0FF021BB980F8702001F0FDFB2268A7
:1036E000242384F87130136823F00103136020460B
:1036F000FFF79AFD012816D0636A13B12046FFF741
:103700002BFF23685A6822F490425A609A6822F08C
:103710002A029A601A6842F0010220461A60BDE847
:103720001040FFF79EBF012010BD000010B586B00D
:1037300006AB012403F8012D642202928DE81800E3
:103740000A46234600FA04F10348FEF7B5FC20467A
:10375000FDF7EAFB06B010BD1403002010B586B0DB
:103760006423012402930DF117030A46009300FA23
:1037700004F1234601940548FEF756FD2046FDF767
:10378000D3FB9DF8170006B010BD00BF1403002046
:103790007FB5642302930223019305AB8DF81420B7
:1037A0000093120A01238DF815200A4600FA03F14E
:1037B0000448FEF781FC0120FDF7B6FB07B05DF879
:1037C00004FB00BF140300207FB56423029302238F
:1037D000019305AB009301230A4600FA03F1074861
:1037E000FEF722FD0120FDF79FFB9DF815009DF8D7
:1037F000143043EA002007B05DF804FB14030020F6
:1038000030B585B064238DF80D10090A03AA04466B
:1038100000258DF80E1000934100032307488DF812
:103820000C50FEF71FFB29462046FFF7CDFF04464C
:103830000120FDF779FB204605B030BD14030020C0
:1038400008B50021FFF7DCFF00F4005008BD2DE9AA
:10385000F04F8BB001EB810525266D009DF850805F
:1038600092464E430A22ADB2B6FBF2F6B5FBF3F533
:10387000044689461FFA86FB6523013B13F0FF03CC
:10388000009300F07C814FF4004200212046FFF7B6
:103890007FFF4FF4004200212046FFF779FF2046CA
:1038A000FFF7CEFF009B07460028E6D10146132212
:1038B0002046FFF76DFF06212046FFF785FFC30670
:1038C000F9D5002261212046FFF730FF52223E2128
:1038D0002046FFF72BFF00223F212046FFF726FF5F
:1038E00060212046FFF73AFF4FEA192300934FEA81
:1038F0001B230193F3B202934FEA1A2303935FFA57
:103900008AF30493C5F307230593EBB20693049A55
:10391000039B5FFA89F91344009A4B441344069AB7
:103920001344029A1344059A1344019A1344DBB2D8
:10393000C0430793C3B265250893013D15F0FF0509
:1039400004D1022738460BB0BDE8F08F4A2120464B
:10395000FFF73AFF4C2109902046FFF735FF502131
:1039600083462046FFF730FF5B2182462046FFF763
:103970002BFF089B1A46099BA2EB1322D31AA3EB39
:103980001B230646009A4A212046A3EB0B0BFFF7A8
:10399000CDFE4A464B212046FFF7C8FE019A4C2136
:1039A0002046FFF7C3FE029A4D212046FFF7BEFED8
:1039B000039A50212046FFF7B9FE049A5121204670
:1039C000FFF7B4FE059A5B212046FFF7AFFE069A8B
:1039D0005C212046FFF7AAFE079BABEB1A2B9B1B33
:1039E000ABEB0A0AA3EB16260AF0FF0AB2446FEA11
:1039F0000A0A5FFA8AFA524660212046FFF796FECD
:103A000052223E212046FFF791FE00223F21204610
:103A1000FFF78CFE60212046FFF7A0FE82458CD187
:103A2000002261212046FFF781FE40223E212046F0
:103A3000FFF77CFE00223F212046FFF777FE602142
:103A40002046FFF78BFEC04365265FFA80F9013EF2
:103A500016F0FF063FF475AF40212046FFF7B4FE95
:103A600040F00405ADB2A842824637D131223E2152
:103A70002046FFF75BFE00223F212046FFF756FE5F
:103A800060212046FFF76AFEC0434FF065095FFAE8
:103A900080FA09F1FF3919F0FF093FF452AF4021D4
:103AA0002046FFF75BFE412105462046FFF756FE04
:103AB0004545834639D1404537D142220021204631
:103AC000FFF766FE06212046FFF77EFE10F010018C
:103AD000F8D120222046FFF75BFE33E7C0F3072230
:103AE00040212046EDB2FFF721FE2A46A5EB0A054C
:103AF0004D44ED4341212046EDB2FFF717FE2A4623
:103B000060212046FFF712FE40223E212046FFF7AB
:103B10000DFE00223F212046FFF708FE60212046CF
:103B2000FFF71CFE854292D1A0E74FEA4806F6B2A5
:103B30005644751BEDB2A5EB0B05424640212046CD
:103B4000ED43FFF7F3FDEDB2424641212046FFF77A
:103B5000EDFD2A4660212046FFF7E8FD31223E2197
:103B60002046FFF7E3FD00223F212046FFF7DEFD60
:103B700060212046FFF7F2FD85428AD19DE70127AB
:103B8000E0E6C0F3021303EB830300F00F0000EB49
:103B90004300704730B585B0642302930723019337
:103BA0000B4B009301230422A2210A48FEF73CFBA1
:103BB000002400E00134062C07DC042CFAD0044D6C
:103BC000285DFFF7DEFF2855F4E705B030BD00BFE4
:103BD0003004002014030020014B1878704700BF08
:103BE00030040020014B5878704700BF300400209B
:103BF000014B9878704700BF30040020014BD87803
:103C0000704700BF30040020014B5879704700BF57
:103C100030040020014B9879704700BF3004002029
:103C200000B587B0002305E006AA1A44FF2102F878
:103C3000081C0133042BF7DD642302930523019351
:103C400004AB009301230B22A2210348FEF734FAB0
:103C500007B05DF804FB00BF1403002000B585B079
:103C600064230093022303AAC0210E48FEF78EF9B5
:103C70009DF80C3013F0800FF2D013F0060F0DD129
:103C80009DF80D30C3F5B27301331804C008064B1C
:103C9000A3FB0030000905B05DF804FB4FF0FF30D6
:103CA000F9E700BF1403002015024D2130B585B09F
:103CB00004460D4664230093022303AAC0211C4836
:103CC000FEF764F99DF80C3013F0800FF2D0002C51
:103CD00021DD4FF4767303FB04F3C3F30743C3F111
:103CE0006503DBB29DF80D20934212D0002C16DD47
:103CF000CDB170228DF808208DF8093000238DF8A1
:103D00000A3064230093032302AAC0210848FEF767
:103D1000A9F805B030BD13F0060FDAD0F9E725B1E8
:103D200000237622E6E75022E4E72B465622E1E71D
:103D30001403002008B504215520FFF745FD08BDF8
:103D400008B510215520FFF73FFD00B208BD08B5AA
:103D500002215520FFF738FDA0F6AC2000B208BDC7
:103D600008B51C215520FFF72FFD08BD08B50E2111
:103D70005520FFF729FD08BD08B50C215520FFF798
:103D800023FD08BD08B10020704738B50D48FDF788
:103D900069FC00252C4600E00135032D0CDC4FF4B6
:103DA0007A610848FDF7C8F90028F5D10548FDF704
:103DB0003BFA0444A4B2EFE7A00800EB800080B215
:103DC00038BD00BFB002002010B582B00D4C4FF4DA
:103DD000E1632380492200215120FFF7A7FCC7227D
:103DE00001215120FFF7A2FCFFF71AFF21880A23C7
:103DF0000093412340F6B8325520FFF728FD02B06A
:103E000010BD00BF3804002070B5C4B01C464FF48C
:103E1000FA73029304ADA3B20193164601230A4636
:103E20000095EE21FEF700FA064B187040B9A0424B
:103E300002DB012044B070BD2B5C33540130F6E747
:103E40000020F7E79002002030B587B0642302938A
:103E50000223019305AB0093154601230A46EE2188
:103E6000FEF7E2F9094C20700120FDF75DF8237898
:103E70004BB99DF814209DF8153043EA02232B809E
:103E8000012007B030BD0020FBE700BF90020020FA
:103E900030B587B0642302930223019305AB0093EE
:103EA000154601230A46EE21FEF7BEF9094C2070A3
:103EB0000120FDF739F823784BB99DF814209DF8BF
:103EC000153043EA02232B80012007B030BD0020CB
:103ED000FBE700BF900200201FB54FF4FA748DE895
:103EE0001C000A460123EE21FEF7E6F8034B18708A
:103EF000B0FA80F0400904B010BD00BF900200206D
:103F00002DE9F04F054A89B0AA210546FFF79CFF2D
:103F100030B9002009B0BDE8F08F00BF18020020C2
:103F2000B54AAC212846FFF78FFF0028F1D0B34AED
:103F3000AE212846FFF788FF0028EAD0B04AB0211A
:103F40002846FFF7A5FF0028E3D0AE4AB221284655
:103F5000FFF79EFF0028DCD0AB4AB4212846FFF7CC
:103F600097FF0028D5D0A94AB6212846FFF76CFF55
:103F70000028CED0A64AB8212846FFF765FF0028C2
:103F8000C7D0A44ABA212846FFF75EFF0028C0D058
:103F9000A14ABC212846FFF757FF0028B9D09F4C03
:103FA000BE2122462846FFF74FFF0028B1D09C4E85
:103FB000914DB6F900109B48DFF844B2DFF8449207
:103FC000DFF84482DFF844A2934F01F07FFCB5F99B
:103FD0000010954801F07AFC884B9448B3F9001022
:103FE000009301F073FCBBF80010914801F06EFCE7
:103FF000B9F800108F4801F069FCB8F800108E483D
:1040000001F064FCBAF900108C4801F05FFC804BB1
:104010008B48B3F9001001F059FC7E4A8948B2F987
:10402000001001F053FCB7F90010874801F04EFC76
:10403000B4F90010854801F049FC009BB3F9000079
:10404000FCF770FA0022824BFCF7D2FACDE90201AC
:10405000BBF80000DFF854B2FCF764FA5AA3D3E9C6
:104060000023FCF7C5FACDE90001BAF90000DFF83A
:1040700040A2FCF757FA0022764BFCF7B9FACDE9DB
:104080000401B9F80000DFF82C92FCF74BFA50A3BA
:10409000D3E90023FCF7ACFA6F4BC3E90001B8F891
:1040A0000000DFF81482FCF72DFA6C4BC3E9000125
:1040B000B7F900006A4FFCF735FA47A3D3E90023AC
:1040C000FCF796FA674BC3E90001B4F90000664CAF
:1040D000FCF728FA0022654BFCF7B4FB644BC3E9FC
:1040E0000001B6F90000634EFCF71CFAC8E90001B4
:1040F000B5F90000604DFCF715FA00225F4BFCF7A4
:1041000077FA434BC9E90001B3F90000FCF70AFA5A
:1041100000225B4BFCF76CFA0022CAE90001594B04
:10412000DDE90001FCF764FACBE90001DDE90023D9
:10413000DDE90201FCF75CFADDE90423C7E90001CF
:10414000DDE90001FCF754FA25A3D3E90023C6E911
:1041500000014D494D480791C1E9002322A3D3E94D
:104160000023C5E9002322A3D3E90023C4E90023E7
:10417000DDE9022301F0AAFBDDE90023444801F058
:10418000A5FB354B4348D3E9002301F09FFB334B9C
:104190004148D3E9002301F099FBDDE904233F48BE
:1041A00001F094FB2F4B3E48D3E9002301F08EFB36
:1041B0002F4B3C48D3E9002301F088FBD8E90023CA
:1041C000394801F083FB79E0FCA9F1D24D62603EF1
:1041D0009A9999999999893E7B14AE47E17AB43FAF
:1041E0000AD7A3703DEA02400000000086C6EF3FF8
:1041F00000000000E08AD23E780200207A0200200F
:1042000068020020280200201A02002092020020EA
:10421000380200206A020020A002002008020020CC
:1042200018020020797700088A7700089B77000839
:10423000AC770008BD770008CE770008DF7700086C
:10424000F07700080178000811780008217800084C
:104250000000743F0000F93E6002002010020020C0
:104260002002002070020020300200200000644084
:104270005802002080020020980200200000943F95
:104280000000493F0000E040500200203178000863
:10429000407800084F7800085E7800086D780008C4
:1042A0007C7800088B7800089A780008A802002023
:1042B000400200208802002048020020D9E90023A3
:1042C000144801F003FBDAE90023134801F0FEFA79
:1042D000DBE90023114801F0F9FAD7E9002310487F
:1042E00001F0F4FAD6E900230E4801F0EFFA07993D
:1042F0000D48D1E9002301F0E9FAD5E900230B4884
:1043000001F0E4FAD4E90023094801F0DFFA0120C2
:1043100000E600BFA9780008B8780008C778000850
:10432000D9780008EB780008FD7800080F790008BC
:104330002179000807B502AA2E2302F8043DF421D2
:104340000123FFF7C9FD002814BF0520002003B09A
:104350005DF804FB2DE9F74302230D4601AAF6217F
:10436000FFF752FD0446002842D09DF80400FCF7F8
:10437000D9F80022204BFCF73BF906469DF80500D2
:104380000F46FCF7CFF802460B4630463946FBF79E
:104390007DFF1A4BD3E9002380468946FBF774FF63
:1043A000174BD3E90023FCF723F9164BD3E900237D
:1043B00006460F46FBF76AFF0B4613490246D1E952
:1043C0000001FCF73FFA32463B46FBF75FFF4246EF
:1043D000C5E900014B460D4801F078FA32463B46EC
:1043E0000B4801F073FAD5E900230A4801F06EFA90
:1043F000204603B0BDE8F0830000704010020020AA
:10440000600200205802002070020020A0790008FD
:10441000BB790008D579000813B503291DD8DFE85A
:1044200001F01C02121774238DF8073008240123B1
:104430000DF10702F421FFF74FFD002814BF2046BD
:10444000002002B010BDB4238DF807300E24EEE733
:10445000F4238DF807301A24E9E734238DF8073068
:104460000524E4E72DE9F04F8DB00D4603230BAA98
:10447000F6218DED020BFFF7C7FC0446002800F083
:10448000BD809DF82C00FCF74DF800225D4BFCF739
:10449000AFF806469DF82D000F46FCF743F802469C
:1044A0000B4630463946FBF7F1FE06469DF82E00D6
:1044B0000F46FCF737F80022534BFCF799F80246F9
:1044C0000B4630463946FBF7E1FE0022CDE90401F8
:1044D0004E4BDDE90201FBF7D7FE02460B46824652
:1044E0008B46FCF785F84A4BD3E9002306460F4676
:1044F000FCF77EF8474B8046D3E9002389465046B7
:104500005946FCF775F802460B4640464946FBF70C
:10451000BDFE414BD3E90023FBF7B8FE3F4BCDE98D
:104520000601D3E9002330463946FCF761F83C4BDD
:104530000646D3E900230F4650465946FCF758F883
:1045400002460B4630463946FBF7A0FE354BD3E911
:104550000023FBF79BFEDDE9062306460F46DDE957
:104560000401FBF791FE32463B46FCF76BF902462D
:104570000B4680468946FCF73BF82B4BD3E90023DA
:10458000FCF736F8294BCDE90801D3E90023404672
:104590004946FCF72DF802460B46DDE90801FBF71A
:1045A00075FE234BD3E90023FBF770FE4FF4AA728C
:1045B000C5E90001CDE900011E491F4801F086F957
:1045C000DDE902231D4801F081F952465B461C4893
:1045D00001F07CF9DDE906231A4801F077F932464B
:1045E0003B46194801F072F942464B46174801F024
:1045F0006DF9DDE90423164801F068F920460DB095
:10460000BDE8F08F000070400000703F00003940AE
:104610004002002088020020480200208002002082
:1046200020020020A8020020300200209802002072
:1046300050020020F9790008337900084879000811
:1046400059790008677900087579000883790008AE
:104650009179000810B500248AB01822214604A8D8
:1046600001940294039400F0BDFC1B481B4B846032
:1046700080E81800042343610123C46004610476C8
:104680004376C36180F820408462C46280F8304081
:10469000446380F83840FCF76FFC08B100F068FB19
:1046A00001A90D480194FDF757F808B100F060FB2F
:1046B0000B4B04937F2206230593079200230422C9
:1046C00004A90548069308920993FCF7B1FD08B1C7
:1046D00000F04EFB0AB010BDB002002000000450F4
:1046E0002000F01410B5044688B01422002103A85D
:1046F00000F078FC2268124B9A421ED103F17043FD
:10470000A3F5F83303A9DA6C42F40052DA64DA6CE8
:1047100002F400520192019ADA6C42F00102DA646A
:10472000DB6C03F001030293029B012303934FF020
:1047300090400B230493FDF7E3F808B010BD00BFD1
:104740000000045010B514228AB00DEB02000021C5
:1047500000F048FC214BDA6C42F00402DA64DA6CB7
:1047600002F004020192019ADA6C42F08002DA64EB
:10477000DA6C02F080020292029ADA6C42F00102D4
:10478000DA64DA6C02F001020392039ADA6C42F006
:104790000202DA64DB6C03F002030022049320219E
:1047A0004FF09040049BFDF787F94FF4005300242D
:1047B000059305A90A4B0B4806930794FDF7A0F84B
:1047C0002023059305A901234FF0904006930794F9
:1047D0000894FDF795F80AB010BD00BF0010024024
:1047E000000021100008004808B51248124B134978
:1047F000012280E80A0000238360C26003614361F4
:104800008361C3610362FDF7DBFA08B100F0B0FA1F
:1048100000210848FDF7C6FD08B100F0A9FA002103
:104820000448FDF7E5FD18B1BDE8084000F0A0BA66
:1048300008BD00BF60030020EC9C901000540040B5
:1048400008B51248124B1349012280E80A000023E0
:104850008360C260036143618361C3610362FDF7EA
:10486000AFFA08B100F084FA00210848FDF79AFD7C
:1048700008B100F07DFA00210448FDF7B9FD18B138
:10488000BDE8084000F074BA08BD00BFAC030020CA
:10489000EC9C90100058004008B51248124B134988
:1048A000012280E80A0000238360C2600361436143
:1048B0008361C3610362FDF783FA08B100F058FA1F
:1048C00000210848FDF76EFD08B100F051FA002103
:1048D0000448FDF78DFD18B1BDE8084000F048BA66
:1048E00008BD00BF14030020EC9C9010005C004049
:1048F00010B504468CB01422002107A800F072FB0A
:104900002368384A934222D1374C3848E36C43F04D
:104910000203E364E36C03F002030193019BC023F1
:104920000793122308930123099303230A9307A9EA
:1049300004230B93FCF7E4FFA36D43F40013A3657A
:10494000A36D03F400130293029B0CB010BD284A20
:10495000934222D1244C2548E36C43F00203E364E4
:10496000E36C03F002030393039B4FF4406307934C
:10497000122308930123099303230A9307A904230D
:104980000B93FCF7BDFFA36D43F48003A365A36DF8
:1049900003F480030493049BD7E7164A9342D4D1CF
:1049A000114C1548E36C43F00403E364E36C03F03B
:1049B00004030593059B12220323079308920A938D
:1049C0000122042307A90B930992FCF799FFA36D19
:1049D00043F40003A365A36D03F400030693069B51
:1049E000B3E700BF0054004000100240000400483C
:1049F00000580040005C0040000800480D4808B521
:104A00004FF6FF710C4B03600122002341614FF40C
:104A1000000142608360C36003610362436281629C
:104A2000C2620363FDF70AFD18B1BDE8084000F05B
:104A30009FB908BDF8030020007C00400268084BC5
:104A40009A4282B00AD103F5CA339A6D42F000420D
:104A50009A659B6D03F000430193019B02B0704780
:104A6000007C0040F0B5B9B04422002105A800F058
:104A7000B9FA14220021684600F0B4FA8822002115
:104A800016A800F0AFFA4FF48073089310230224A5
:104A9000099301270A23072605A8002512930594E8
:104AA0000F9410941197139614941594FDF7ECFD40
:104AB0000F220421032368468DE82C0003950495FA
:104AC000FEF708F844F2C23316934FF08053349344
:104AD0000823199316A84FF080731D9325952A95E6
:104AE0002B952C952D95179418971A961B941C941A
:104AF000FEF7B2F94FF40070FDF7FAFC39B0F0BDE3
:104B00002DE9F04F2DED068B89B0FCF7E9F9FFF7A1
:104B1000A9FFFFF717FEFFF767FEFFF791FEFFF70C
:104B2000BBFEFFF76BFF00F0B9F9FFF793FD7E487E
:104B3000FFF7E6F97C48FFF7FDFB9FED798BC0B2EC
:104B4000FCF7F2F954EC183B08ADA5F110052B6009
:104B50006C6075482946FFF7FDFBDDE904237348C7
:104B600000F0B4FEFFF730F918B1714800F0AEFE66
:104B7000FEE7FFF773F8013004D001214FF0FF305A
:104B8000FFF794F8DFED6B9ADFF8E091664C8DED5E
:104B9000068BFFF7CFF80646FFF7D2F80AEE900A29
:104BA000FFF7E4F88246FFF7E7F88046FFF7D8F80A
:104BB00007460020FFF7E6F80AEE100AFFF7C7F8ED
:104BC00007EE906AF8EEE77A09EE100A87EEA97A06
:104BD00017EE100AFBF7B8FC0B460246484600F0F9
:104BE00075FE4FF47A72544896FBF2F102FB1162A3
:104BF00000F06CFEF8EEEAAACAEEA97A17EE900A67
:104C0000FBF7A2FC02460B464C4800F05FFE514603
:104C10004B4800F05BFE41464A4800F057FE3946DB
:104C2000494800F053FEB8EE4AAACAEE297A17EEB8
:104C3000900AFBF789FC02460B46444800F046FE0A
:104C4000B8EEC99AF2EE047A89EE277A17EE100AC6
:104C5000FBF77AFC00223E4BFBF7CAFC00223D4BDF
:104C6000FBF7F0FD00223C4BFBF710FB02460B4626
:104C70003A4800F02BFE2046FFF75CFBC0B2FCF781
:104C800053F9294620468DED048BFFF763FBDDE9E0
:104C9000046700222E4B30463946FBF7A9FC002260
:104CA0002C4BFBF7CFFD00222B4BFBF7EFFA3246E4
:104CB0003B46CDE900012A4800F008FE01212046CC
:104CC000FFF7AAFBC0B2FCF72FF99DED040B06A974
:104CD0002046FFF7C7FBFEF75DFFFEF789FF06469C
:104CE000FEF780FF0746FEF777FF8046FEF78CFF52
:104CF0008246FEF783FF8346FEF78CFF4346029011
:104D00003A4631468DE8000C164800F0DFFD1648A3
:104D100000F050FE4FF4FA60FCF706F937E700BFE9
:104D2000000000000000000014030020097A0008C1
:104D3000217A000800007A44627A0008827A00082A
:104D40009D7A0008BA7A0008D77A0008F47A000839
:104D50000000224000001440000040400F7B00088B
:104D60002A7B0008447B0008697B0008477A00081A
:104D7000704700000A4B1A6E42F001021A661A6E62
:104D800082B002F001020092009A9A6D42F08052C5
:104D90009A659B6D03F080530193019B02B07047AD
:104DA000001002407047FEE7FEE7FEE7FEE77047AF
:104DB00070477047FCF7AAB870B50E4615460C460A
:104DC000A31B9D4201DC284670BDAFF3008004F8B0
:104DD000010BF5E710B500234FF06044934201DB6F
:104DE000104610BDD4F8800EC00703D5D4F8000ECD
:104DF000C00702D40133F1E700BF20680028FBD0D0
:104E0000C85C2070F6E7000008B50A4B1968024636
:104E100009B9094919601868694602448A4206D9E5
:104E200000F0B6F80C2303604FF0FF3008BD1A60A5
:104E300008BD00BFF4010020B80400204FF0FF308F
:104E400070474FF400534B600020704701207047BB
:104E5000002070470F49D1F8883043F47003C1F83F
:104E600088300D4B1A68002042F001021A609860E9
:104E70001A6822F0A85222F410221A604FF48052CD
:104E8000DA601A6822F480221A6098614FF0006399
:104E90008B60704700ED00E00010024008B50C4840
:104EA0000C4B4FF4E13E80E808400C220023836065
:104EB000C360036142618361C36103624362FEF7C1
:104EC00002FC18B1BDE80840FFF752BF08BD00BFA3
:104ED0003C0400200044004010B5044688B0142271
:104EE000002103A800F07EF82268134B9A4220D1DB
:104EF00003F5E63303A99A6D42F400329A659A6D80
:104F000002F400320192019ADA6C42F00102DA6492
:104F1000DB6C03F001030293029B0C230393022337
:104F20000493032306934FF0904007230793FCF765
:104F3000E7FC08B010BD00BF00440040DFF834D0EB
:104F4000002103E00C4B5B58435004310B480C4BE1
:104F500042189A42F6D30B4A02E0002342F8043B7F
:104F6000094B9A42F9D3FFF775FF00F017F8FFF7E6
:104F7000C7FDFEE700800120887E000800000020B9
:104F8000D4010020D8010020B8040020FEE7000072
:104F9000014B1868704700BF0400002070B50D4E2B
:104FA0000D4CA41BA4100025A54209D10B4E0C4C9E
:104FB00002F0CEFBA41BA4100025A54205D170BDB4
:104FC00056F8253098470135EEE756F825309847D2
:104FD0000135F2E7807E0008807E0008807E0008B0
:104FE000847E000802440346934200D1704703F8D0
:104FF000011BF9E72DE9FF4755EC104B0D9FDDF83C
:1050000030A0002D0E4691461946B8BF22462B46C9
:1050100027F02007BBBF05F100431D4600232D23C9
:10502000B8BF1446462F0B7004D0452F00D101366F
:10503000022100E0032103AB019302AB009332464F
:10504000534645EC104B00F00BFE472F804602D133
:1050500019F0010F26D0462F08EB060911D198F858
:105060000030302B0AD10022002320462946FBF7CE
:1050700027FD18B9C6F10106CAF80060DAF8003059
:1050800099440022002320462946FBF719FD38B930
:105090003022039B994505D9591C03911A70F8E7F2
:1050A000CDF80C90039B0E9AA3EB080340461360C7
:1050B00004B0BDE8F087F7B503460029B8BF494200
:1050C00003F8022BB4BF2D222B220929427020DDC8
:1050D0000DF1070217460A2691FBF6F506FB15119E
:1050E0003031092D02F8011C02F1FF34294609DC98
:1050F0003031023A04F8011CBA421C4604D3201A8B
:1051000003B0F0BD2246E7E712F8011B03F8011BCC
:10511000F2E730221C46114404F8022B5970EEE7E6
:105120002DE9F04F8DB00C46DDF8588016461F462D
:10513000054601F0DFFC036804931846FBF748F8C6
:1051400000230A93D8F800300590073323F00703B3
:1051500003F1080294F818A0D4F800B0C8F80020B1
:10516000D3E90023C4E91223D4E9128929F00043CA
:105170000793CDF818804FF0FF32A54BDDE906010B
:10518000FBF7D0FC002840F0FB814FF0FF32A04B32
:10519000DDE90601FBF7A8FC002840F0F1810022C0
:1051A000002340464946FBF795FC10B12D2384F8B7
:1051B0004330984B984ABAF1470F8CBF90469846B7
:1051C00003232BF00402236122604FF000090097B3
:1051D00033460BAA2146284600F0E2F9013040F0A0
:1051E00093804FF0FF300DB0BDE8F08F61684B1C2D
:1051F0004BF480623FD106236360002303930AAB24
:10520000029309AB009349EC108B0DF1230322604C
:10521000CDF804A061682846FFF7ECFE0AF0DF0332
:10522000472B804609D1099BD81C02DB6268934258
:1052300057DDAAF1020A5FFA8AFABAF1650F0999F5
:1052400034D80139524604F150000991FFF733FF79
:105250000A9A8318012A8146236102DC2268D10759
:1052600001D5013323619DF82330002BAFD02D23CE
:1052700084F84330ABE7BAF1670F02D0BAF1470FB9
:10528000BBD189B1002303930AAB029309AB00930E
:1052900049EC108B2260CDF804A00DF123032846C1
:1052A000FFF7A8FE8046BEE70123A5E7BAF1660F27
:1052B00019D1002963680CDD216113B92268D20776
:1052C00002D501330B442361099BA3654FF000090C
:1052D000C9E713B92268D00701D50233F3E70123E8
:1052E000F1E74FF0670A099B0A9A934205DB2268AF
:1052F0002361D107E8D50133E5E7002BD4BFC3F123
:10530000020301231344DEE723685A0507D4236907
:10531000424631462846B84701302BD161E7BAF101
:10532000650F40F2E28000220023D4E91201FBF76E
:10533000C7FB00283CD00123384A31462846B847ED
:1053400001303FF44EAF0A9B099A9A4202DB236870
:10535000D8070FD5059B049A31462846B847013037
:105360003FF43FAF4FF0000804F11A090A9B013BDC
:10537000984512DB23689B0709D54FF0000804F11C
:105380001909E3680B9A9B1A9845C0F2EE80E06811
:105390000B9B9842B8BF184625E701234A46314681
:1053A0002846B84701303FF41CAF08F10108DDE79B
:1053B000099B002B34DC0123184A31462846B847A4
:1053C00001303FF40EAF099B23B90A9B13B9236840
:1053D000D907CFD5059B049A31462846B8470130F6
:1053E0003FF4FFAE4FF0000904F11A0A099B5B423B
:1053F000994501DB0A9B8BE701235246314628463B
:10540000B84701303FF4EDAE09F10109EEE700BF06
:10541000FFFFEF7FB87B0008BC7B0008C87B00085B
:105420000A9AA36D9A42A8BF1A46002A914638DC10
:1054300004F11A034FF0000B29EAE9790693D4F836
:1054400058A0AAEB09039B4533DB0A9B099A9A42B1
:105450003ADB2368DA0737D40A9B0999A3EB0A02DF
:10546000A3EB01099145A8BF9146B9F1000F33DCC8
:105470004FF0000829EAE97904F11A0A099A0A9B0F
:105480009B1AA3EB09039845BFF674AF012352465C
:1054900031462846B84701303FF4A3AE08F1010871
:1054A000ECE71346314642462846B8470130BFD1A3
:1054B00097E60123069A31462846B84701303FF463
:1054C00090AE0BF1010BBAE7059B049A31462846D2
:1054D000B8470130C0D184E64B4608EB0A0231469A
:1054E0002846B8470130C3D17BE60A9A012A01DC7D
:1054F000DB0737D50123424631462846B8470130FD
:105500003FF46FAE059B049A31462846B8470130F8
:105510003FF467AE00220023D4E91201FBF7D0FA72
:1055200058B14FF0000804F11A0A0A9B013B984554
:105530000DDB4B4604F15002EBE60A9B08F1010239
:10554000013B31462846B8470130F2D149E60123F4
:10555000524631462846B84701303FF442AE08F182
:105560000108E2E701234246EBE701234A463146C0
:105570002846B84701303FF434AE08F1010800E78F
:1055800042464B4640464946FBF7CCFA00283FF4DA
:105590002DAE014B014A0EE6C07B0008C47B00081B
:1055A0002DE9F04791461F468A680B69DDF8208097
:1055B0009342B8BF1346C9F8003091F8432006461D
:1055C0000C4612B10133C9F800302368990642BF76
:1055D000D9F800300233C9F80030256815F0060507
:1055E00007D104F1190AE368D9F800209B1A9D42FB
:1055F00029DB94F843302268003318BF0123920658
:105600002ED404F1430239463046C047013021D040
:105610002368E568D9F8002003F00603042B08BFCF
:10562000AD1AA36822690CBF25EAE57500259342EF
:10563000C4BF9B1AED184FF000091A344D451BD119
:105640000020BDE8F0870123524639463046C04766
:10565000013003D14FF0FF30BDE8F0870135C2E7DC
:10566000E1185A1C302081F84300224494F8451078
:1056700082F843100233C4E70123224639463046FC
:10568000C0470130E6D009F10109D7E72DE9F04321
:1056900017460A7E85B06E2A984606460C460C9B35
:1056A00001F1430E00F0BC801AD8632A2ED00AD82C
:1056B000002A00F0C880582A00F08A8004F14205D0
:1056C00084F842202AE0642A01D0692AF6D12168B0
:1056D0001A6811F0800F23D0111D1960136827E09C
:1056E000732A00F0B48008D86F2A2AD0702AE5D136
:1056F0000A6842F020020A6003E0752A21D0782A65
:10570000DCD1782284F845206E4964E01A6801F102
:105710004205111D1960136884F842300123A3E08B
:1057200011F0400F02F104011960D7D0B2F9003036
:10573000002B03DA2D225B4284F8432062490A22BF
:1057400017E02068196810F0800F03D0081D18605A
:105750000B6806E010F0400F01F104001860F7D06C
:105760000B8859496F2A14BF0A220822002084F8A6
:1057700043006568A560002DC0F29C80206820F081
:1057800004002060002B3FD1002D40F0958075462D
:10579000082A0BD12368DA0708D5236962689A4280
:1057A000DEBF302305F8013C05F1FF35AEEB050304
:1057B0002361CDF800803B4603AA21463046FFF71F
:1057C000EFFE013055D14FF0FF3005B0BDE8F0835A
:1057D00081F845203C492268186812F0800F00F1DA
:1057E00004051D6001D0036802E05506FBD503885F
:1057F000D00744BF42F0200222601BB9226822F089
:10580000200222601022B1E77546B3FBF2F002FBE2
:105810001033CB5C05F8013D03460028F5D1B7E70E
:1058200008681A68496910F0800F04D0101D1860CC
:105830001368196007E010F0400F02F104001860CF
:105840001368F6D01980002323617546B1E71A6802
:10585000111D19601568626800212846FAF7C0FC1E
:1058600008B1401B606063682361002384F8433003
:105870009FE723692A4639463046C0470130A2D007
:1058800023689B0707D5002504F11909E368039AEB
:105890009B1A9D4205DBE068039B9842B8BF1846FF
:1058A00093E701234A4639463046C04701308AD043
:1058B0000135EBE7002BA7D10B7884F8423004F1D7
:1058C000420565E7DB7B0008CA7B00080FB40A4B82
:1058D00013B51C6824B1A36913B9204601F080F800
:1058E00005AB049AA1680193204601F03DFD02B08A
:1058F000BDE8104004B070470400002070B50E46AB
:10590000054618B183690BB901F06AF8AB69AC6858
:1059100013B9284601F064F8234B9C4217D16C68F8
:10592000A3891B071DD52369DBB1013EA36816F8C7
:10593000011F013BA360E9B9002B2EDA22460A21A0
:10594000284600F03FF8013011D00A2070BD174BF7
:105950009C4201D1AC68E3E7154B9C4208BFEC6860
:10596000DEE72146284600F07FF80028DDD04FF022
:10597000FF3070BD002B04DAA269934206DB0A29CE
:1059800004D023685A1C22601970CFE722462846AB
:1059900000F018F80130C9D1E9E723680A205A1C41
:1059A0002260187070BD00BF1C7C00083C7C0008A1
:1059B000FC7B0008024B01461868FFF79FBF00BF41
:1059C00004000020F8B50E461446054618B1836958
:1059D0000BB901F005F8214B9C422AD16C68A369F0
:1059E000A360A3891A072ED5236963B323692068AE
:1059F000C01A6369F6B29842374604DB214628464E
:105A000000F084FF28BBA368013BA36023685A1CF5
:105A100022601E7063690130984204D0A389DB07BD
:105A200019D50A2E17D12146284600F06FFF90B1F4
:105A30000FE00B4B9C4201D1AC68D0E7094B9C4274
:105A400008BFEC68CBE72146284600F00DF8002897
:105A5000CCD04FF0FF373846F8BD00BF1C7C0008A3
:105A60003C7C0008FC7B0008324B70B51D68064684
:105A70000C4625B1AB6913B9284600F0B1FF2E4B97
:105A80009C420FD16C68B4F90C309AB215072CD433
:105A9000D00611D40922326043F04003A3814FF0B5
:105AA000FF3070BD254B9C4201D1AC68EBE7244B25
:105AB0009C4208BFEC68E6E7510712D5616B41B123
:105AC00004F14403994202D0304601F077FB0023F1
:105AD0006363A38923F02403A38100236360236904
