:020000040800F2
:1000000000800120716E0008B96C0008BB6C00080C
:10001000BD6C0008BF6C0008C16C00080000000047
:10002000000000000000000000000000C36C000899
:10003000C56C000800000000C76C0008C96C00080F
:10004000C16E0008C16E0008C16E0008C16E0008D4
:10005000C16E0008C16E0008C16E0008C16E0008C4
:10006000C16E0008C16E0008C16E0008C16E0008B4
:10007000C16E0008C16E0008C16E0008C16E0008A4
:10008000C16E0008C16E0008C16E0008C16E000894
:10009000C16E0008C16E0008C16E0008C16E000884
:1000A000C16E0008C16E0008C16E0008C16E000874
:1000B000C16E0008C16E0008C16E0008C16E000864
:1000C000C16E0008C16E0008C16E0008C16E000854
:1000D000C16E0008C16E0008C16E0008C16E000844
:1000E000C16E0008C16E0008C16E0008C16E000834
:1000F000C16E0008C16E0008C16E0008C16E000824
:10010000C16E0008C16E0008C16E0008C16E000813
:10011000C16E0008C16E0008C16E0008C16E000803
:10012000C16E0008C16E0008C16E0008C16E0008F3
:10013000C16E0008C16E0008C16E0008C16E0008E3
:10014000C16E0008C16E0008C16E0008C16E0008D3
:10015000C16E0008C16E0008C16E0008C16E0008C3
:10016000C16E0008C16E0008C16E0008C16E0008B3
:10017000C16E0008C16E0008C16E000800000000DA
:08018000C16E0008C16E000809
:1001900010B5054C237833B9044B13B10448AFF3C1
:1001A00000800123237010BDD80100200000000052
:1001B000E4A7000808B5034B1BB103490348AFF39C
:1001C000008008BD00000000DC010020E4A700085A
:1001D000034613F8012B002AFBD1181A0138704787
:1001E00001F0FF01102A2BDB10F0070F08D010F8E8
:1001F000013B013A8B422DD010F0070F42B3F6D1EC
:10020000F0B441EA012141EA014122F007047FF004
:1002100000070023F0E80256083C85EA010586EA5B
:10022000010685FA47F5A3FA87F586FA47F6A5FA97
:1002300087F68EB9EED1F0BC01F0FF0102F00702A3
:1002400032B110F8013B013A83EA010313B1F8D14E
:100250000020704701387047002D06BF354603382F
:10026000073815F0010F07D1013015F4807F02BF68
:10027000013015F4C03F0130F0BC0138704700BFB9
:1002800081F0004102E000BF83F0004330B54FEA47
:1002900041044FEA430594EA050F08BF90EA020FB4
:1002A0001FBF54EA000C55EA020C7FEA645C7FEA47
:1002B000655C00F0E2804FEA5454D4EB5555B8BF6A
:1002C0006D420CDD2C4480EA020281EA030382EADB
:1002D000000083EA010180EA020281EA0303362D6D
:1002E00088BF30BD11F0004F4FEA01314FF4801C40
:1002F0004CEA113102D0404261EB410113F0004F52
:100300004FEA03334CEA133302D0524263EB430308
:1003100094EA050F00F0A780A4F10104D5F1200EA6
:100320000DDB02FA0EFC22FA05F2801841F1000101
:1003300003FA0EF2801843FA05F359410EE0A5F1D5
:1003400020050EF1200E012A03FA0EFC28BF4CF006
:10035000020C43FA05F3C01851EBE37101F00045BC
:1003600007D54FF0000EDCF1000C7EEB00006EEBC9
:100370000101B1F5801F1BD3B1F5001F0CD3490853
:100380005FEA30004FEA3C0C04F101044FEA4452AA
:1003900012F5800F80F09A80BCF1004F08BF5FEA31
:1003A000500C50F1000041EB045141EA050130BD11
:1003B0005FEA4C0C404141EB010111F4801FA4F1B4
:1003C0000104E9D191F0000F04BF01460020B1FA09
:1003D00081F308BF2033A3F10B03B3F120020CDA41
:1003E0000C3208DD02F1140CC2F10C0201FA0CF01F
:1003F00021FA02F10CE002F11402D8BFC2F1200C84
:1004000001FA02F120FA0CFCDCBF41EA0C01904039
:10041000E41AA2BF01EB0451294330BD6FEA040482
:100420001F3C1CDA0C340EDC04F11404C4F120026D
:1004300020FA04F001FA02F340EA030021FA04F37F
:1004400045EA030130BDC4F10C04C4F1200220FAD6
:1004500002F001FA04F340EA0300294630BD21FA14
:1004600004F0294630BD94F0000F83F4801306BFDA
:1004700081F480110134013D4EE77FEA645C18BFCE
:100480007FEA655C29D094EA050F08BF90EA020F65
:1004900005D054EA000C04BF1946104630BD91EA5D
:1004A000030F1EBF0021002030BD5FEA545C05D160
:1004B0004000494128BF41F0004130BD14F580049F
:1004C0003CBF01F5801130BD01F0004545F0FE4113
:1004D00041F470014FF0000030BD7FEA645C1ABF48
:1004E000194610467FEA655C1CBF0B46024650EA7F
:1004F000013406BF52EA033591EA030F41F40021AB
:1005000030BD00BF90F0000F04BF0021704730B530
:100510004FF4806404F132044FF000054FF0000105
:1005200050E700BF90F0000F04BF0021704730B5C6
:100530004FF4806404F1320410F0004548BF40429B
:100540004FF000013EE700BF42004FEAE2014FEAF0
:1005500031014FEA02701FBF12F07F4393F07F4FCB
:1005600081F06051704792F0000F14BF93F07F4FFD
:10057000704730B54FF4607401F0004521F0004140
:1005800020E700BF50EA010208BF704730B54FF0C6
:1005900000050AE050EA010208BF704730B511F0CB
:1005A000004502D5404261EB41014FF4806404F103
:1005B00032045FEA915C3FF4DCAE4FF003025FEA85
:1005C000DC0C18BF03325FEADC0C18BF033202EB0D
:1005D000DC02C2F1200300FA03FC20FA02F001FA67
:1005E00003FE40EA0E0021FA02F11444C1E600BF06
:1005F00070B54FF0FF0C4CF4E06C1CEA11541DBFB9
:100600001CEA135594EA0C0F95EA0C0F00F0DEF883
:100610002C4481EA030621EA4C5123EA4C5350EA68
:10062000013518BF52EA033541F4801143F48013B9
:1006300038D0A0FB02CE4FF00005E1FB02E506F04A
:100640000042E0FB03E54FF00006E1FB03569CF09F
:10065000000F18BF4EF0010EA4F1FF04B6F5007FA5
:1006600064F5407404D25FEA4E0E6D4146EB060617
:1006700042EAC62141EA55514FEAC52040EA5E50A0
:100680004FEACE2EB4F1FD0C88BFBCF5E06F1ED84A
:10069000BEF1004F08BF5FEA500E50F1000041EB81
:1006A000045170BD06F0004646EA010140EA02002E
:1006B00081EA0301B4EB5C04C2BFD4EB0C0541EA50
:1006C000045170BD41F480114FF0000E013C00F365
:1006D000AB8014F1360FDEBF002001F0004170BD89
:1006E000C4F10004203C35DA0C341BDC04F11404A2
:1006F000C4F1200500FA05F320FA04F001FA05F22E
:1007000040EA020001F0004221F0004110EBD370FA
:1007100021FA04F642EB06015EEA430E08BF20EA26
:10072000D37070BDC4F10C04C4F1200500FA04F3C9
:1007300020FA05F001FA04F240EA020001F000415B
:1007400010EBD37041F100015EEA430E08BF20EACE
:10075000D37070BDC4F1200500FA05F24EEA020E16
:1007600020FA04F301FA05F243EA020321FA04F045
:1007700001F0004121FA04F220EA020000EBD370FC
:100780005EEA430E08BF20EAD37070BD94F0000FFC
:100790000FD101F00046400041EB010111F4801F30
:1007A00008BF013CF7D041EA060195F0000F18BFE1
:1007B000704703F00046520043EB030313F4801F1D
:1007C00008BF013DF7D043EA0603704794EA0C0FD7
:1007D0000CEA135518BF95EA0C0F0CD050EA4106ED
:1007E00018BF52EA4306D1D181EA030101F000416A
:1007F0004FF0000070BD50EA410606BF1046194692
:1008000052EA430619D094EA0C0F02D150EA01369D
:1008100013D195EA0C0F05D152EA03361CBF1046DE
:1008200019460AD181EA030101F0004141F0FE417D
:1008300041F470014FF0000070BD41F0FE4141F401
:10084000780170BD70B54FF0FF0C4CF4E06C1CEA01
:1008500011541DBF1CEA135594EA0C0F95EA0C0FB6
:1008600000F0A7F8A4EB050481EA030E52EA033571
:100870004FEA013100F088804FEA03334FF0805592
:1008800045EA131343EA12634FEA022245EA1115BF
:1008900045EA10654FEA00260EF000419D4208BF70
:1008A000964244F1FD0404F5407402D25B084FEA1D
:1008B0003202B61A65EB03055B084FEA32024FF4C9
:1008C00080104FF4002CB6EB020E75EB030E22BF26
:1008D000B61A754640EA0C005B084FEA3202B6EBE6
:1008E000020E75EB030E22BFB61A754640EA5C0095
:1008F0005B084FEA3202B6EB020E75EB030E22BF25
:10090000B61A754640EA9C005B084FEA3202B6EB25
:10091000020E75EB030E22BFB61A754640EADC00E4
:1009200055EA060E18D04FEA051545EA16754FEA46
:1009300006164FEAC30343EA52734FEAC2025FEA64
:100940001C1CC0D111F4801F0BD141EA00014FF0F3
:1009500000004FF0004CB6E711F4801F04BF0143C4
:100960000020B4F1FD0C88BFBCF5E06F3FF6AFAEE0
:10097000B5EB030C04BFB6EB020C5FEA500C50F170
:10098000000041EB045170BD0EF0004E4EEA1131F3
:1009900014EB5C04C2BFD4EB0C0541EA045170BDFA
:1009A00041F480114FF0000E013C90E645EA060E3E
:1009B0008DE60CEA135594EA0C0F08BF95EA0C0F6C
:1009C0003FF43BAF94EA0C0F0AD150EA01347FF4B4
:1009D00034AF95EA0C0F7FF425AF104619462CE78B
:1009E00095EA0C0F06D152EA03353FF4FDAE1046EE
:1009F000194622E750EA410618BF52EA43067FF43F
:100A0000C5AE50EA41047FF40DAF52EA43057FF4CE
:100A1000EBAE12E74FF0FF3C06E000BF4FF0010CD9
:100A200002E000BF4FF0010C4DF804CD4FEA410C3D
:100A30007FEA6C5C4FEA430C18BF7FEA6C5C1BD00A
:100A400001B050EA410C0CBF52EA430C91EA030F8B
:100A500002BF90EA020F0020704710F1000F91EAE8
:100A6000030F58BF994208BF90422CBFD8176FEAB6
:100A7000E37040F0010070474FEA410C7FEA6C5C84
:100A800002D150EA013C07D14FEA430C7FEA6C5C8B
:100A9000D6D152EA033CD3D05DF8040B704700BFB7
:100AA0008446104662468C461946634600E000BF05
:100AB00001B5FFF7B7FF002848BF10F1000F01BDD7
:100AC0004DF808EDFFF7F4FF0CBF012000205DF8A2
:100AD00008FB00BF4DF808EDFFF7EAFF34BF012027
:100AE00000205DF808FB00BF4DF808EDFFF7E0FFC0
:100AF00094BF012000205DF808FB00BF4DF808ED11
:100B0000FFF7CEFF94BF012000205DF808FB00BF77
:100B10004DF808EDFFF7C4FF34BF012000205DF859
:100B200008FB00BF4FEA410C7FEA6C5C02D150EA3F
:100B3000013C0AD14FEA430C7FEA6C5C02D152EAD5
:100B4000033C02D14FF0000070474FF001007047A6
:100B50004FEA410212F5001215D211D56FF47873E5
:100B6000B3EB625212D94FEAC12343F0004343EA88
:100B7000505311F0004F23FA02F018BF4042704763
:100B80004FF00000704750EA013005D111F00040ED
:100B900008BF6FF0004070474FF00000704700BF83
:100BA0004FEA4102B2F1E04324BFB3F5001CDCF18F
:100BB000FE5C0DD901F0004C4FEAC0024CEA5070C7
:100BC000B2F1004F40EB830008BF20F001007047F6
:100BD00011F0804F21D113F13872BCBF01F00040F9
:100BE000704741F480114FEA5252C2F11802C2F12B
:100BF000200C10FA0CF320FA02F018BF40F00100AC
:100C00004FEAC1234FEAD32303FA0CFC40EA0C005D
:100C100023FA02F34FEA4303CCE77FEA625307D19A
:100C200050EA01331EBF4FF0FE4040F440007047D1
:100C300001F0004040F0FE4040F40000704700BF6B
:100C400053B94AB9002908BF00281CBF4FF0FF3133
:100C50004FF0FF3001F014B9ADF1080C6DE904CE8E
:100C600000F024F8DDF804E0DDE9022304B0704769
:100C700080EAE073A3EBE073F0EE407A13F0010F2B
:100C8000B7EE000A18BFB0EE670A05E067EEA77A74
:100C9000DA0748BF20EE270A5B08F7D10028BCBF5F
:100CA000F7EE007A87EE800A704700BF2DE9F04723
:100CB0008C460D460446089E002B51D18A421746A9
:100CC0006DD9B2FA82FEBEF1000F0BD0CEF1200C2E
:100CD00001FA0EF520FA0CFC02FA0EF74CEA050CAC
:100CE00000FA0EF44FEA174A250CBCFBFAF81FFA7B
:100CF00087F90AFB18CC45EA0C4508FB09F3AB421F
:100D00000AD9ED1908F1FF3280F02381AB4240F29D
:100D10002081A8F102083D44ED1AA4B2B5FBFAF017
:100D20000AFB105544EA054400FB09F9A14509D91D
:100D3000E41900F1FF3380F00A81A14540F20781F8
:100D400002383C44A4EB090440EA08400021002E8C
:100D500061D024FA0EF4002334607360BDE8F0879C
:100D60008B4207D9002E54D0002186E82100084686
:100D7000BDE8F087B3FA83F1002940F08E80AB42E2
:100D800002D3824200F2FA80841A65EB0305012047
:100D9000AC46002E3FD086E81010BDE8F08712B9AF
:100DA0000127B7FBF2F7B7FA87FEBEF1000F34D187
:100DB000EB1B3A0C1FFA87FC0121B3FBF2F8250C60
:100DC00002FB183345EA03450CFB08F3AB4207D995
:100DD000ED1908F1FF3002D2AB4200F2D18080461B
:100DE000ED1AA3B2B5FBF2F002FB105543EA05443D
:100DF0000CFB00FCA44507D9E41900F1FF3302D233
:100E0000A44500F2B8801846A4EB0C0440EA084060
:100E10009DE731463046BDE8F087CEF1200405FA63
:100E20000EF307FA0EF720FA04F83A0C25FA04F448
:100E300048EA0308B4FBF2F14FEA184502FB1144FB
:100E40001FFA87FC45EA044501FB0CF3AB4200FAAC
:100E50000EF409D9ED1901F1FF3080F08A80AB4220
:100E600040F2878002393D44EB1A1FFA88F5B3FB44
:100E7000F2F002FB103345EA034500FB0CF3AB42F2
:100E800007D9ED1900F1FF386FD2AB426DD90238A6
:100E90003D44EB1A40EA01418FE7C1F1200722FAF5
:100EA00007F88B4005FA01F448EA030320FA07FE2D
:100EB0004FEA134CFD404EEA040EB5FBFCF94FEA35
:100EC0001E440CFB19551FFA83F844EA054509FB3B
:100ED00008F4AC4202FA01F200FA01FA08D9ED185E
:100EE00009F1FF3043D2AC4241D9A9F102091D44B6
:100EF0002D1B1FFA8EFEB5FBFCF00CFB10554EEAC5
:100F0000054400FB08F8A04507D9E41800F1FF35B7
:100F100029D2A04527D902381C4440EA0940A4EB55
:100F20000804A0FB02894C45C6464D4615D312D095
:100F300056B1BAEB0E0364EB050404FA07F7CB4095
:100F40001F43CC40376074600021BDE8F08718462D
:100F5000F8E69046E0E6C245EAD2B8EB020E69EB4D
:100F600003050138E4E72846D7E7404691E7814684
:100F7000BEE7014678E702383C4445E7084608E703
:100F8000A8F102083D442BE703685A004CBF43F028
:100F9000004323F000431844704700BF61B32DE9BC
:100FA000F84F01F1FF3A90460646D146002707EB7D
:100FB000090404EBD4746410E50071190846FFF7C6
:100FC000E3FFA245834605F10800304409D0FFF74E
:100FD000DBFFC34500F1FF3005D8404509D2671C4F
:100FE000E5E7C34505D9A74202D004F1FF39DEE7A2
:100FF00000210846BDE8F88F08467047012807D051
:10100000022807D0044B00280CBF18460020704768
:10101000024870470248704701170008051700088A
:101020000917000830B5244B83B004468D1E7BB3EE
:1010300001A92846AFF3008020B301992A46FFF7A3
:10104000ADFF0146F0B1FFF79FFF4B68A064012B95
:1010500012D0002B01F1040020DBFFF795FF0023E5
:10106000E06423650368002B1CDBFFF78DFF002382
:101070002061184603B030BD0023236105231846C4
:1010800003B030BD002323610923184603B030BDEF
:101090000A490B48091AC9100191CFE70123E064FE
:1010A0002365DFE7C3F30360FFF7A8FF0028206193
:1010B00014BF00230923DCE70000000098B30008F8
:1010C00090B100080368DA0710B5044606D49B0700
:1010D00000F1480009D500F051FC2368590709D5F3
:1010E0001A070ED5DB0613D510BD00F03FFC2368B0
:1010F0005907F5D404F1D00000F048FC23681A0722
:10110000F0D404F5A87000F049FC2368DB06EBD4AA
:1011100004F5E870BDE8104000F084BC036803B13A
:1011200003441846704700BF09207047704700BF4E
:1011300070B504460D4608E02B6C63612A462369AE
:10114000214601209847082808D1296C2046FFF73E
:1011500069FF06460028EFD009F0F9FA0728FBD10D
:101160003046296CFFF7E2FF281D00F0F3FB00BFBB
:101170002DE9F0470C1D054692460FCCADF5727D6A
:1011800003AE0FC60FCC0FC60FCC0FC694E80F00EE
:1011900002ACD5F80C80D5F8189086E80F00002333
:1011A0002846216C2360FFF73DFFBAF1000F074688
:1011B00014BF0A2609267FB1A36B46F010018DE803
:1011C00010022A46636401202B46C04778BB38468C
:1011D0000DF5727DBDE8F087236C6B614FF4F07202
:1011E00021467AA808F000FD2B697AAA29463046E4
:1011F0009847889B82468DE81002314663642A46F0
:101200002B460120C04790B94FF4F0727AA92046CE
:1012100008F0EAFCBAF1080F06D1216C2846FFF766
:1012200001FF09260746C6E7BAF1070F05D00927CF
:1012300038460DF5727DBDE8F0873846216CFFF722
:1012400075FF03A800F086FB406C7047F0B5CB6BD0
:101250000B640E1D0F4604460FCEF9B001AD0FC54D
:101260000FCE0FC50FCE0FC596E80F004FF0FF361B
:1012700085E80F00009606E023696A4621469847F4
:101280000828054608D110992046FFF7CBFE002814
:10129000F2D0092079B0F0BD6846FFF713FF062DA4
:1012A000F7D139462046FFF743FF00BF30B4DD6B6E
:1012B000C160826119461D64002230BC58E700BF3E
:1012C00070B5C66843690B6426B10122FFF750FF71
:1012D00009F03DFA03690A4604460D46014602201C
:1012E0009847072807D0082803D129462046FFF74A
:1012F0001FFF09F02CFA3046296CFFF717FF281D55
:1013000000F028FBC2681AB1CA6B0A6400222FE7FA
:101310009CE700BF704700BF836813B101460120FE
:101320001847704700B5042907D8DFE801F0030922
:10133000060909000BB90F2A05D902205DF804FB44
:1013400001205DF804FB00EB820218465368019A05
:1013500013605DF804FB00BF10B584B0002303AC3C
:101360000A4600941946FFF7DDFF039804B010BD4C
:1013700000B5042907D8DFE801F0030906090900D0
:101380000BB90F2A05D902205DF804FB01205DF896
:1013900004FB019900EB82020968516018465DF870
:1013A00004FB00BF10B584B004AC002344F8042D46
:1013B0000A4600941946FFF7DBFF04B010BD00BFDA
:1013C000F0B5D36B1364151D07460E460FCDADF572
:1013D0000F7D17AC0FC40FCD0FC40FCD0FC495E810
:1013E0000F004FF0FF3584E80F00169510E016A8A7
:1013F000FFF7D8FF314616A8B84716AA694678B94C
:10140000049B08209847052804460AD0092807D0DD
:1014100026996846FFF706FE6A460C210028E6D0AA
:10142000092416A8FFF74EFE20460DF50F7DF0BDEE
:101430002DE9F04F0D46C96C8BB00C1D0968079162
:101440009146089400F0030B1E46002B60D1090260
:10145000032307918DF825608DF824302B6DBBF1A7
:10146000020F08BFAC6B13F0010340D1019300F0F1
:1014700008030393D4F80080B8F1000F39D0022E8E
:1014800043D0B4F8008067880434AB6C27F0010ABD
:101490000F2148469A44FFF75FFF824533D828F072
:1014A00001039A4450452CBF002001207F0007F023
:1014B000020708F0010847EA0807012F3ED035D39C
:1014C000022F1CD1236823F000420292BBF1000FCF
:1014D00076D128B1039900297ED0002A00F0A68099
:1014E000002B77DB029B013304EB8304C2E700236C
:1014F0000193022E3EDDFFF717FE002840D00920A1
:101500000BB0BDE8F08F0020D0E767680834BCE777
:10151000022BA3DC0B0CDAB209048DF82530022370
:1015200004EB820407918DF8243097E7BBF1000F9C
:1015300002D0002840F0BD8004349BE7BBF1000FCF
:1015400025D1A8B194E80C00991C4FEAD272D6D0EC
:1015500005F158010133069100F0A380201DFFF72B
:10156000DDFD06AB01462846AFF30080002877D1A9
:1015700008347FE707A9484600F0EEFA0028BED1FC
:10158000019B002B5CD108200BB0BDE8F08F0D2132
:1015900048462F6AFFF7E0FE8742E9D1AB6A9C42DA
:1015A000E6D12046FFF7F0FC0F2102464846FFF740
:1015B000F9FE48462A460021FFF7F4FE07209FE780
:1015C0000D2148462F6AFFF7C7FE874258D023688F
:1015D000002B87DA043485E7029B3BB305F15803FF
:1015E000271DCDF810B0DDF80C80DDF808A00596B9
:1015F000A3461C4602E0B245B04616D038460694D3
:10160000FFF78CFD06AB014600222846AFF30080B1
:1016100008F1010604370028EDD0029B059E4345E2
:101620005C46DDF810B0D2D100E05C4648460D21A2
:10163000FFF792FE069B2862AC626B6206205FE7B2
:101640000F214846FFF788FE0E2102464846FFF765
:10165000A9FE4846294A0F21FFF7A4FE07204FE7BD
:1016600007460D214846FFF777FE022F28621DD15D
:101670002B46069A43F82C2F6B62AC6206203FE79C
:10168000AB6A9C42A3D104220027A3180299A96245
:10169000EF622A636B632368BB421DDB0123019366
:1016A00020E748460D21FFF757FE2862069B6B6234
:1016B000E3E72046FFF768FC04340646AC6328469F
:1016C000AFF3008000283FF41AAF484632460F219E
:1016D000FFF768FE072013E70846013004EB80009F
:1016E000FFF752FC0F2102464846FFF75BFE4846D3
:1016F0002A463946FFF756FE072001E700000000A2
:10170000002395E6012393E6022391E6F0B5044613
:10171000C5B004290DD8DFE801F053030C310F00E8
:10172000012B4FEA124695B262D17219102A40F28B
:101730009B80022045B0F0BD002BFAD1102AF8D8CA
:101740002368D80600F1C68022AE3046019200F030
:1017500073F9A06B019A0023012505FA03F11142E8
:1017600003D0016846F8231004300133042BF4D170
:10177000A063304600F056F90020DBE7032BD8D1F8
:10178000150C97B2EB19102BD3D823681E0700F164
:10179000B58022AE304600F023F9ED00A36B4FB1C7
:1017A000043D711903EBC70053F8042B41F8042FD3
:1017B0008342F9D13046A36300F0F0F80020B9E786
:1017C000002BB6D1A56B97B2201D012606FA03F1B6
:1017D000394203F1010302D0296801600435102B5E
:1017E00000F10400F2D112F400503BD1A563A1E74F
:1017F000052B9ED17719202F9BD80F2E66D92F4607
:10180000002D3AD12A460027002AA06B72DD00EB9A
:10181000C202014644A800EBC6008C3851F8045BB4
:1018200040F8045F9142F9D1084697B1102E324634
:1018300044A938BF102201EBC202A2F5C47279009C
:10184000043A00EB810150F8045B42F8045F8842DF
:10185000F9D1012B48D00F2EA16333D917B102A8BB
:1018600000F094F8002065E70F2E3FF662AF0027E6
:101870002268D10717D4002F60D02268510745D4C1
:10188000012B4DD00F2E06D822A8019300F07AF834
:10189000019B002FB6D002A8019300F07BF8019BBA
:1018A000C6F11002B0E722F00101052B216001937F
:1018B00020463BD022F0030240F8482B00F05AF8B3
:1018C000019BD8E722A800F059F8C7E7102FCED91E
:1018D000103FCDE723F01003236004F5E870019278
:1018E00000F0AAF8019A2FE70431A16322A800F0C2
:1018F0003DF8B7E7002F99D10146AAE723F0080386
:10190000236004F5A87000F06BF842E7204622F04F
:10191000040240F8D02B019300F03CF8019BAFE7A4
:1019200022A8019300F026F8019BB9E741F00201DB
:1019300040F8481B00F026F8019B9CE7012B03D0E0
:101940000F2E3FF65FAF9FE722A8019300F012F839
:10195000019B57E700F1340191E838009C46A64608
:101960004CF8045D90E8FF0FE54600BD90EC210BBC
:10197000704700BF80EC210B704700BF90EC200B3C
:10198000704700BF80EC200B704700BFD0EC200BED
:10199000704700BFC0EC200B704700BFF0EC0201A5
:1019A000F0EC0211F0EC0221F0EC0231F0EC02411B
:1019B000F0EC0251F0EC0261F0EC0271F0EC02810B
:1019C000F0EC0291F0EC02A1F0EC02B1F0EC02C1FB
:1019D000F0EC02D1F0EC02E1F0EC02F1704700BF54
:1019E000E0EC0201E0EC0211E0EC0221E0EC02315B
:1019F000E0EC0241E0EC0251E0EC0261E0EC02714B
:101A0000E0EC0281E0EC0291E0EC02A1E0EC02B13A
:101A1000E0EC02C1E0EC02D1E0EC02E1E0EC02F12A
:101A2000704700BFB0FC0181B0FC0191B0FC01A186
:101A3000B0FC01B1704700BFA0FC0181A0FC019186
:101A4000A0FC01A1A0FC01B1704700BFEC4600B5AD
:101A50002DE900502DE9FF1F4FF000032DE90C0088
:101A600001A9FFF7F3FBDDF840E012B0704700BFBB
:101A7000EC4600B52DE900502DE9FF1F4FF00003A3
:101A80002DE90C0001A9FFF71BFCDDF840E012B0C6
:101A9000704700BFEC4600B52DE900502DE9FF1F4F
:101AA0004FF000032DE90C0001A9FFF72BFCDDF836
:101AB00040E012B0704700BFEC4600B52DE9005081
:101AC0002DE9FF1F4FF000032DE90C0001ABFFF7DC
:101AD000EDFBDDF840E012B0704700BFEC4600B50A
:101AE0002DE900502DE9FF1F4FF000032DE90C00F8
:101AF00001AAFFF765FCDDF840E012B0704700BFB7
:101B0000027A1AB9437A43B9B02070470368013AA0
:101B100002721A020260180E70474268013B10B44C
:101B2000437213680321141D01721A02446002609B
:101B30005DF8044B180E704700B585B003AA00236A
:101B4000009219460C22FFF7EDFB039805B05DF8F3
:101B500004FB00BFF0E700BF2DE9F043064685B067
:101B60000F464FF000083846FFF7CAFFB02804467A
:101B700023D0050627D400230DF10C091946850052
:101B80000D22CDF800903046FFF7CCFBEDB2039B61
:101B9000CDF80090600605F104054CBF5D1BED1803
:101BA000002319460D2230460395FFF7E1FB384626
:101BB000FFF7A6FFB0280446DBD1B8F1000F00F014
:101BC000958000201CE000F0F003802B5DD0902B6E
:101BD00019D0A02B2CD0B02B3FD0C02B6CD000F054
:101BE000F803D02B0BD100F00702013242F400229F
:101BF000052301213046FFF789FD0028B3D00920D5
:101C000005B0BDE8F08300F00D030D2BF7D003AD58
:101C1000002300F00F02194600953046FFF782FBC3
:101C20000023009519460D223046FFF7A1FB9AE7E5
:101C3000C24302F007034FF47F621A41010702F426
:101C40007F624FF0000348BF42F48042194630469D
:101C5000FFF75CFD0028D2D185E7B12857D0B22824
:101C600068D0B32800F0958000F0FC03B42BC6D0F8
:101C700000F007020132012342F4002219463046E7
:101C8000FFF744FD0028BAD16DE73846FFF738FF6B
:101C900024020443B4F5004FB1D024010023A2B2C2
:101CA00019463046FFF732FD0028A8D114F4004F42
:101CB00018BF4FF0010856E7C6287DD0C72800F0AE
:101CC000868000F0F803C02B00F09480C82800F054
:101CD0009F80C92893D13846FFF712FF020300F016
:101CE0000F0002F470220130024381E703AC434647
:101CF0000E22414600943046FFF714FB0094304614
:101D000043460F224146FFF733FB404678E738460B
:101D1000FFF7F6FE00283FF472AF10F0F0037FF4F7
:101D20006EAF024619463046FFF7F0FC00287FF4FC
:101D300066AF18E700230DF10C090D221946CDF806
:101D400000903046FFF7EEFA3846FFF7D9FE02065C
:101D50004FF002040CD5039B00F07F00A040034429
:101D600038460393FFF7CCFE030604F10704F2D4D0
:101D7000039BCDF8009000F07F02A24003F50174B0
:101D80000023144419460D2230460394FFF7F0FA5D
:101D9000E9E63846FFF7B4FE010300F00F0001F456
:101DA0007021421C01230A4330461946FFF7AEFC5E
:101DB00000287FF424AFD6E63846FFF7A1FE0103E2
:101DC00000F00F0001F47021421C0323EBE73846BA
:101DD000FFF796FE00283FF412AF10F0F0037FF4F7
:101DE0000EAF024604213046FFF790FC00287FF436
:101DF00006AFB8E600F00F020132032342F42022BE
:101E000019463046FFF782FC00287FF4F8AEAAE6B8
:101E10003846FFF775FE00F0F00200F00F031032B5
:101E2000013343EA0232E3E610B5C36C84B05A686A
:101E300003208DF80C00DC798DF80D401202083378
:101E4000084601A901920293FFF786FE04B010BD77
:101E500008B5FFF77FFE806C08BD00BF08B5FFF72F
:101E600079FEC06CC37900EB8300083008BD00BF69
:101E700008B508F06CFC00BF08B5FFF7F9FF00BF1C
:101E8000704700BF38B50A4B054618684FF47A739F
:101E9000B0FBF3F000F008FD044638B902462946CD
:101EA0004FF0FF3000F0CCFC204638BD012038BD9B
:101EB00000000020094A136843F4807310B5032022
:101EC000136000F0ABFC0020FFF7DCFF044618B9FC
:101ED00004F0DAFE204610BD0124FBE7002002409A
:101EE000024A136801331360704700BFA402002048
:101EF000014B1868704700BFA402002038B50446A3
:101F0000FFF7F6FF631C054618BF0134FFF7F0FF2B
:101F1000401B8442FAD838BD30B5CC0D04F004041F
:101F20001430C1F30451072303FA01F5235802FAD0
:101F300001F123EA05031943215030BD806800F008
:101F4000010070478068C0F38000704737B50023F8
:101F500001930446002800F08580456D25B904F002
:101F60001DFAA56584F85050206883689B007BD4D7
:101F70008368DD007FD58368D90040F18A80002125
:101F8000FFF7E0FF636D13F0100F636D67D100285A
:101F900065D123F4817343F0020363652068FFF782
:101FA000CDFF98B95248FFF7C9FF03465148FFF7E4
:101FB000C5FF03435048FFF7C1FF034306D14F4A13
:101FC0006068936823F47C1303439360E068636B59
:101FD00094F820200343A0680343607E012A43EA6B
:101FE000403343EA024302BF626A02F1FF3243EA2E
:101FF0004243A26A22B1E06A02F4707202431343C0
:1020000020683F4AC5682A401343C360FFF79AFF20
:1020100023689A68120746D52269012A05BF186B02
:10202000E2691A6B02F1FF3206BF20F00F00024393
:1020300022F00F021A63636D23F0030343F00103E0
:102040006365084603B030BD019B013B0193019BD2
:10205000002BF9D18FE71A6922F0010245E043F025
:10206000100363650121ECE7836823F0204323F02C
:102070003F0383607CE78368224A23F0104323F008
:102080003F0343F0805383601F4B1B68B3FBF2F3A5
:10209000DCE7636D43F010036365A36D43F0010358
:1020A000A36501216CE70028B6D1D86894F83020E8
:1020B000257E520020F4804042EA853220F0020062
:1020C0000243DA6094F83820012AC4D1256CE26B0F
:1020D00018692A43656C42F001022A43A56C20F47A
:1020E000FF602A4320F0040002431A6194E700BF16
:1020F000000004500001045000020450000304508A
:1021000007C0F0FF400D030000000020384B2DE910
:10211000F04145699E68082D04460F4606F01F06EB
:1021200017D0092E10D840F22122F240D1070BD54A
:102130000368DB6813F0010F0AD0636D43F02003DE
:1021400063650120BDE8F0819B6813F4604FF3E7FD
:102150000425FFF7CDFE804623681A68154221D07A
:10216000626D42F400726265DA6812F4406F0FD15A
:10217000627E6AB91A6810070AD5626D22F480720D
:102180006265626DD1045EBF626D42F001026265FC
:10219000184A934221D0D868082D17D11D6000201D
:1021A000BDE8F0817A1CD8D0FFF7A2FEA0EB0800B2
:1021B000874201D3002FCFD1636D43F004036365E1
:1021C000002384F850300320BDE8F08110F48040F3
:1021D000E5D10C221A60BDE8F081092E05D840F245
:1021E000212222FA06F6F207D5D4034AD068D3E7B3
:1021F0000003045000010450000004500368186CF0
:1022000070470000F7B50023019390F85030012B80
:1022100005460C4600F08781012380F850300068A5
:10222000FFF790FE002840F078814B68052B08D816
:10223000023B032B65D8DFE803F0025D5F610C23EE
:102240006360616828688E0900F1300706F00C06AB
:1022500001F01F011F2303FA01F2F35923EA0203DD
:102260002268C2F384628A401343F351FFF76AFE87
:102270002B689A68110740F158812868FFF75EFEC5
:10228000002840F0D780E66828682368C34AD0F861
:10229000B01006F0180EC3F3120722FA0EF21A401D
:1022A00021EA07010A43C0F8B020BD4A964240F037
:1022B000C180002F40F093809E0E013606F01F0271
:1022C000092A4FF001014FEA866640F2A28006F02B
:1022D000F846914041EA0602002F40F0CB809B0E69
:1022E000013303F01F0303EB43011E39090541F0DD
:1022F00000719BE01223A3E71823A1E74FF480733A
:102300009EE706239CE7DEF86010C3F31200C1F3DA
:1023100084670EF1640600283AD1C3F384608742D3
:1023200040F0288121F00041CEF860102368DEF8EB
:102330006410C3F31207C1F384609FBBC3F38463CB
:10234000834240F01C8121F0004131602368916894
:10235000C3F3120702F10806C1F3846077BBC3F32D
:102360008463834240F0128121F000413160236890
:1023700002F10C00D268C3F31206C2F384614EBBB3
:10238000C3F384638B4204BF22F00042026074E70F
:1023900093FAA3F0B0FA80F08742C3D0DEF864105D
:1023A000C1F3846093FAA3F3B3FA83F38342CAD0F0
:1023B0009168236802F10806C1F3846093FAA3F3DD
:1023C000B3FA83F38342CFD002F10C00D2682368C2
:1023D000C2F3846193FAA3F3B3FA83F3D2E793FAD7
:1023E000A3F2B2FA82F2013202F01F02092A30D8B7
:1023F00093FAA3F6B6FA86F60136B60606F0F84664
:1024000093FAA3F1B1FA81F1013101F01F02012128
:1024100001E006F0F846914041EA0602A7B9990E9C
:10242000013101F01F0101EB410109051143A268CF
:10243000FFF772FD22685B4B1A4220D10020002377
:1024400085F8503003B0F0BD93FAA3F1B1FA81F1F1
:10245000E6E793FAA3F2B2FA82F20132920602F0B0
:10246000F84693FAA3F1B1FA81F1013101F01F02AC
:1024700001212EE793FAA3F3B3FA83F330E74A4935
:102480004A4B88689A4200F0E0760C461ED1020260
:10249000D4D42B68464A934203D002F5007293428B
:1024A000CCD1A368434A23F0E073334343F40003E1
:1024B000A360414B1B68B3FBF2F20C23534301931F
:1024C000019B002BBAD0019B013BF8E73B4B9A42A2
:1024D00011D1C301B2D42B68354A934203D002F51F
:1024E00000729342AAD1A36823F0E073334343F010
:1024F0008073A360A2E7324B9A429FD110F4800010
:102500009CD12A682A4B9A4298D18B6823F0E073B9
:10251000334343F480038B6091E76A6D42F02002FD
:102520006A6518468BE702208CE700287FF4A5AE89
:10253000A26821681846FFF7EFFC2669D5F800E08D
:102540002368DEF80C10042E0EF160023FF4DBAEBF
:10255000C1F3C1014800616903F0F843814043F0D1
:102560000043194352F82600164B0340194342F822
:10257000261082E6DEF86410C1F38460DEE691681E
:10258000236802F10806C1F38460E8E602F10C005A
:10259000D2682368C2F38461F2E600BFFFFF070040
:1025A00000007F400000088000030450000052C774
:1025B00000000450400D030000000020000084CB08
:1025C0000100008000F0FF0370B504460068FFF7CB
:1025D000B5FC08B1002070BD2268154B9168194206
:1025E00009D0636D43F010036365A36D43F00103ED
:1025F000A365012070BD93680E4D2B4043F001038D
:102600009360FFF775FC064620680368DB07E1D49A
:10261000FFF794FC28B9226893682B4043F001032C
:102620009360FFF765FC801B0228EDD9D9E700BF56
:102630003F000080C0FFFF7F354B70B50446006847
:102640009E68FFF77FFC054600285AD194F8503069
:10265000012B56D0012384F850302046FFF7B4FFF9
:1026600000284BD1636D2B4A23F4706323F00103E0
:1026700043F4807363652368934206F01F0642D0DB
:102680001D46626D22F480126265626D12F4805202
:102690001CBFA26D22F00602A2651C221A60AB428A
:1026A0004FF0000284F8502008D0092E9DBF40F260
:1026B0002122F240D2430122D10711D4DA689201DB
:1026C00041BF626D22F4405242F4805262659A68C2
:1026D00022F0004222F03F0242F004029A6070BDF4
:1026E000636D43F480136365EB689B010FD5636DE5
:1026F00023F4405343F48053636570BD84F8505015
:1027000070BD022070BD044D002EBAD0BDE770BD73
:10271000000304500001045000000450806800F0E1
:10272000010070478068C0F38000704730B590F8B2
:102730005030012B9BB0024666D0012380F8503008
:10274000324B006898420CBF03F58073002301935D
:10275000019840B9536D82F8500043F0200353654F
:1027600001201BB030BDFFF7DDFF03461068FFF707
:10277000D9FF002842D1002B40D10B68244C33B341
:10278000A368486823F46043034392F8300043EAA7
:102790004033A3601D48FFF7C1FF03461D48FFF704
:1027A000BDFF03431C48FFF7B9FF184304D00020C6
:1027B000002382F85030D4E70B68A56889680B4382
:1027C00025F4716121F00F010B43A360F0E7A368CA
:1027D0000E4823F46043A360FFF7A0FF03460D48B3
:1027E000FFF79CFF03430C48FFF798FF1843DED127
:1027F000A36823F4716323F00F03E6E7536D43F0FE
:10280000200353650120D3E70220AAE7000004500B
:10281000000304500001045000020450074AD3682A
:1028200023F4E0631B041B0C43F0BF63000243F47A
:10283000003300F4E0600343D360704700ED00E034
:10284000174B30B5DC68C4F30224C4F10703251D1F
:10285000042B28BF0423062D4FF0010505FA03F3CE
:1028600003F1FF338CBF033C00241940A14005FA5B
:1028700004F4013C2240002842EA01024FEA02121D
:10288000AFBF00F1604000F00F00064BD2B2A5BF11
:1028900000F56140D2B21A5480F8002330BD00BF69
:1028A00000ED00E014ED00E00138B0F1807F0AD2C5
:1028B000064B074A5860F02182F8231000200722B7
:1028C00098601A6070470120704700BF10E000E078
:1028D00000ED00E02DE9F04F85B00B68DFF8A8812E
:1028E000674C01930023019ADA4002D105B0BDE89C
:1028F000F08F0126019A9E4012EA060E00F0B18088
:102900004A6822F01007022F16D14FEAD30900EBD4
:10291000890903F0070AD9F820504FEA8A0A4FF0D4
:102920000F0C0CFA0AFC25EA0C0C0D6905FA0AF5E5
:1029300045EA0C05C9F820504FEA430C0325D0F8AE
:1029400000B005FA0CF5ED4302F0030A0BEA050BA3
:102950000AFA0CF9013F49EA0B09012FC0F800906F
:1029600011D8876805EA0709CF6807FA0CF747EA24
:1029700009078760476827EA0609C2F300179F40E6
:1029800047EA09074760BAF1030F07D1C76A27EA88
:102990000606C2F3C0079F403E43C662C668354084
:1029A0008E6806FA0CF63543C560D50059D5D8F8BF
:1029B000605045F00105C8F86050D8F8605023F029
:1029C000030606F1804605F0010506F580360395FD
:1029D00003F0030C039DB5684FEA8C0C0F2707FA30
:1029E0000CF7B0F1904F25EA07073CD0254DA842DF
:1029F0003BD005F58065A84239D005F58065A84231
:102A000037D005F58065A84235D005F58065A84228
:102A100033D005F58065A84214BF0725062505FAC1
:102A20000CF53D43B56025686FEA0E06D70354BF29
:102A300035404EEA050525606568970354BF35406B
:102A40004EEA05056560A568D70254BF35404EEAD9
:102A50000505A560E568920254BF35404EEA0505BC
:102A6000E56001333FE70025D9E70125D7E70225D7
:102A7000D5E70325D3E70425D1E70525CFE700BF38
:102A8000000401400004004800100240036919429C
:102A900014BF0120002070470AB181617047816234
:102AA000704703689A69910744BF00229A629A6945
:102AB000D2075EBF9A6942F001029A61704730B551
:102AC000039C05682343640D04F4806444F07F7420
:102AD00044F458346868C1F3090144F47F7419431D
:102AE00044F0030441EA024120EA040421436960FE
:102AF00030BD2DE9F041069F0446884616461D4626
:102B00002268936938EA03030CBF01230023B34210
:102B100002D00020BDE8F0816B1CF2D0FFF7E8F98D
:102B2000C01B854201D3002DEAD1636C43F0200322
:102B30006364202384F84130002384F8423084F811
:102B400040300120BDE8F081036870B50446986903
:102B500010F010000D46164616D170BD691C14D039
:102B6000FFF7C6F9801B854200D36DB9636C43F053
:102B700020036364202384F84130002384F842302A
:102B800084F84030012070BD236899698A06E5D534
:102B900010222025DA612046DD61FFF782FF2268DE
:102BA000536823F0FF7323F48B3323F4FF7323F074
:102BB00001035360636C43F00403636484F8415081
:102BC000DBE770B504460D46164623689B699B07F4
:102BD00001D5002070BD324629462046FFF7B4FFDC
:102BE000A0B96A1CF1D0FFF783F9801B854201D39D
:102BF000002DEAD1636C43F020036364202384F842
:102C00004130002384F8423084F84030012070BD08
:102C1000F7B5099E1F46164B0093054614464FF024
:102C20008073FAB2FFF74BFF324608992846FFF748
:102C3000C8FF10B1012003B0F0BD012F2B680CD1EB
:102C4000E4B29C62089B0096002280212846FFF790
:102C500050FF003018BF0120EDE7220A9A62089960
:102C600032462846FFF7ADFF0028E3D12B68E7E79F
:102C700000200080F7B5099E1F46164B00930546BD
:102C800014460023FAB2FFF71AFF32460899284685
:102C9000FFF797FF10B1012003B0F0BD012F2B68A3
:102CA0000CD1E4B29C62089B009600224021284689
:102CB000FFF71FFF003018BF0120EDE7220A9A62DC
:102CC000089932462846FFF77CFF0028E3D12B689D
:102CD000E7E700BF0020008070B504460D461646A9
:102CE00023689B699B0601D5002070BD32462946AA
:102CF0002046FFF729FF90B9FFF7FAF8801B8542BD
:102D000001D3002DECD1636C43F0200363642023D6
:102D100084F84130002384F8423084F840300120A8
:102D200070BD70B504460D46164623689B695B0767
:102D30000ED4324629462046FFF706FFF0B9236835
:102D40009A6991061CD59A69520703D5228D0AB15A
:102D5000002070BD2021D9615A6822F0FF7222F450
:102D60008B3222F4FF7222F001025A600023636466
:102D700084F8411084F8423084F84030012070BD5E
:102D8000FFF7B6F8801B854201D3002DCDD1636CCF
:102D900043F020036364202384F841300023EBE7F1
:102DA00010B5044600284AD090F8413003F0FF02E5
:102DB0001BB980F8402003F0F7FB242384F841304E
:102DC0002368E1681A6822F001021A60626822F042
:102DD00070621A619A68012922F400429A60A2681E
:102DE00024D142F400429A605A68616942F000724C
:102DF00042F400425A60DA6822F40042DA60226942
:102E00000A43A16942EA0122DA60216AE2690A43BF
:102E10001A601A6842F001021A60002020236064E0
:102E200084F84130206384F8420010BD42F404422B
:102E300002299A6004BF4FF400625A60D4E701206F
:102E400010BD00002DE9F743984690F84130202B43
:102E500004460E46914640F0848090F84030012BA5
:102E60007FD0012780F84070FFF742F8192305460C
:102E700000903A464FF400412046FFF73AFE18B161
:102E8000012003B0BDE8F083212384F841301023F2
:102E900084F842306064A4F82A80638DC4F82490DA
:102EA0009BB2FF2B6063304B26D9FF222285009313
:102EB0004FF0807331462046FFF701FE638D0A997B
:102EC0009BB22A462046FBB9FFF706FF0028D7D160
:102ED00023682021D9615A6822F0FF7222F48B32D4
:102EE00022F4FF7222F001025A6084F8411084F843
:102EF000400084F84200C4E7628D009392B22285BC
:102F00004FF00073D2B2D5E7FFF75BFE0028B7D1D0
:102F1000636A226813F8011B91626362638D228DDC
:102F2000013B9BB26385638D013A92B29BB22285CD
:102F3000002BC3D0002AC1D100950A9B80212046D6
:102F4000FFF7D7FD00289BD1638D9BB2FF2B03D9E0
:102F5000FF2222850090ABE7628D009092B222851D
:102F6000CEE702208DE700BF002000802DE9F74367
:102F7000984690F84130202B04460E46914640F08A
:102F8000868090F84030012B00F08180012780F886
:102F90004070FEF7ADFF1923054600903A464FF406
:102FA00000412046FFF7A5FD18B1012003B0BDE8A0
:102FB000F083222384F84130102384F84230606487
:102FC000A4F82A80638DC4F824909BB2FF2B606321
:102FD000304B26D9FF22228500934FF08073314673
:102FE0002046FFF76CFD638D0A999BB22A46204666
:102FF000FBB9FFF771FE0028D7D123682021D961E2
:103000005A6822F0FF7222F48B3222F4FF7222F00F
:1030100001025A6084F8411084F8400084F84200AC
:10302000C4E7628D009392B222854FF00073D2B252
:10303000D5E7FFF776FE0028B7D12268636A526AA7
:103040001A70636A228D01336362638D013B9BB208
:103050006385638D013A92B29BB22285002BC2D068
:10306000002AC0D100950A9B80212046FFF741FD30
:1030700000289AD1638D9BB2FF2B03D9FF222285B2
:103080000090AAE7628D009092B22285CDE70220DF
:103090008CE700BF002400802DE9F04F9B4690F89C
:1030A000413085B0202B04460F460392BDF83CA06A
:1030B000DDF8408040F0A5800E9B13B1BAF1000FFF
:1030C00006D14FF400736364012005B0BDE8F08FB2
:1030D00090F84030012B00F09480012580F840509A
:1030E000FEF706FF1923009006462A464FF40041DA
:1030F0002046FFF7FEFC81460028E5D1212384F815
:103100004130402384F842300E9B60646362606308
:10311000A4F82AA00196CDF800805B46039A3946B0
:103120002046FFF775FD10B184F84090CCE7638D21
:103130009BB2FF2B55D9FF22228500904FF0807360
:1031400039462046FFF7BBFC324641462046FFF792
:1031500038FD0028B8D1636A226813F8011B916218
:103160006362638D228D013B9BB26385638D013A5F
:1031700092B29BB22285ABB1A2B9009643468021A0
:103180002046FFF7B6FC00289ED1638D9BB2FF2B33
:103190002FD9FF22228500904FF0807339462046B8
:1031A000FFF78DFC638D9BB2002BCDD1324641469B
:1031B0002046FFF791FD002886D123682021D961A0
:1031C0005A6822F0FF7222F48B3222F4FF7222F04E
:1031D00001025A6084F8411084F8400084F84200EB
:1031E00073E7628D009092B222854FF00073D2B2E5
:1031F000A6E7628D009092B222854FF00073D2B2A2
:10320000CCE7022061E700002DE9F04F9B4690F8E3
:10321000413085B0202B04460F460392BDF83CA0F8
:10322000DDF8408040F0A9800E9B13B1BAF1000F89
:1032300006D14FF400736364012005B0BDE8F08F40
:1032400090F84030012B00F09880012580F8405024
:10325000FEF74EFE1923009006462A464FF4004121
:103260002046FFF746FC81460028E5D1222384F85A
:103270004130402384F842300E9B60646362606397
:10328000A4F82AA00196CDF800805B46039A39463F
:103290002046FFF7EFFC10B184F84090CCE7638D37
:1032A0009BB2FF2B364B58D9FF22009322854FF05B
:1032B000807339462046FFF702FC00964346002201
:1032C00004212046FFF715FC0028B5D12268636A67
:1032D000526A1A70636A228D01336362638D013B07
:1032E0009BB26385638D013A92B29BB22285ABB1EA
:1032F000A2B90096434680212046FFF7FAFB00283A
:103300009AD1638D9BB2FF2B2FD9FF22228500908B
:103310004FF0807339462046FFF7D1FB638D9BB297
:10332000002BCAD1324641462046FFF7D5FC002883
:1033300082D123682021D9615A6822F0FF7222F4D9
:103340008B3222F4FF7222F001025A6084F841109D
:1033500084F8400084F842006FE7628D009392B2D7
:1033600022854FF00073D2B2A3E7628D009092B233
:1033700022854FF00073D2B2CCE702205DE700BF98
:103380000024008090F84120D2B2202A10B51DD12F
:1033900090F84030012B19D0242380F84130036885
:1033A0001C6824F001041C601C6824F480541C6018
:1033B0001C6821431960196841F00101196000235C
:1033C00080F8412080F84030184610BD022010BD22
:1033D00010B590F84140E4B2202C1CD190F8403058
:1033E000012B18D0242380F8413003681A6822F09A
:1033F00001021A601A6822F4706242EA012119601F
:103400001A6842F001021A60002380F8414080F8F7
:103410004030184610BD022010BD000070B50446B3
:10342000002847D090F8363003F0FF021BB980F82F
:10343000352003F05FF902232068656884F8363090
:10344000C26861691C4E012D4FF6FF7308BF22F060
:103450001E0299421CBF22F4604222F0C0021640B4
:10346000A26845EA0203226A1343626A1343A26A0E
:10347000012D43EA020304BF2569E26843EA06031B
:1034800004BF2A4313434FF6FF72914204D0A2694E
:103490001143E26911430B43C360084B984208BFD4
:1034A000226BE36A08BF13430362012384F83630BA
:1034B000002070BD012070BDFEF119FF007C0040AE
:1034C000024B186800F4C060704700BF00700040F5
:1034D000174B1A68B0F5007F02F4C0621CD1B2F538
:1034E000007F15D01A6822F4C06242F400721A609C
:1034F000104A116832224A430F49B2FBF1F21946D1
:1035000001325869400500D522B94B695B050DD4DD
:1035100000207047013AF4E7B2F5806F1FBF1A68C8
:1035200022F4C06242F480621A60F1E7032070471F
:10353000007000400000002040420F0037B51E4DD3
:10354000AB6DDA00044618D5FFF7BAFFB0F5007F7F
:1035500023D1802C29D9A02C8CBF02200120174A0E
:10356000136823F0070303431360136803F0070392
:10357000181A18BF012003B030BDAB6D43F0805363
:10358000AB65AB6D03F080530193019BFFF798FF90
:10359000AB6D23F08053AB65D8E7802C07D808D0FB
:1035A000A4F1700358425841D9E70020D7E703201F
:1035B000D5E70220D3E700BF001002400020024000
:1035C000254B9A68D96812F00C0205D00C2A15D147
:1035D00001F00301012918D119682048090755BFD6
:1035E000D3F894101968C1F30321C1F3031150F803
:1035F000210082B30C2A09D000207047042A29D068
:10360000082A174818BF002070470020D968DA68D8
:1036100001F00301C2F30212022902F1010205D0F6
:10362000032912D0D968C1F3062103E0D9680D48F7
:10363000C1F30621DB68B0FBF2F0C3F34163013351
:1036400048435B00B0FBF3F07047D9680448C1F30E
:103650000621EFE70348704700100240A8AC0008BD
:1036600000127A000024F4002DE9F743054618B94A
:10367000012003B0BDE8F083A54C0368A668E768A5
:10368000DB0606F00C0607F003073CD51EB10C2E36
:1036900063D1012F61D12368980702D5AB69002B54
:1036A000E6D02368286A190756BFD4F894302368F7
:1036B0001B0903F0F00383423AD2FFF73FFF0028D3
:1036C000D6D1236843F00803236023682A6A23F0D5
:1036D000F003134323606368EA6923F47F4343EAFA
:1036E00002236360FFF76CFFA3688A4AC3F30313E6
:1036F000D35C03F01F03D840874B18600020FEF70F
:10370000C1FB0028B5D12B68D8075DD42B68990779
:1037100000F19C802B68180700F1D0802B685907B6
:1037200000F1FC80AB6A002B40F065810020A0E72F
:10373000236843F008032360236823F0F003034366
:1037400023606368EA6923F47F4343EA02236360EA
:10375000FFF7F4FE0028C5D08AE7AB691BB32368E6
:1037600043F001032360FEF7C3FB804623689A07FA
:1037700011D5236843F00803236023682A6A23F0E5
:10378000F003134323606368EA6923F47F4343EA49
:1037900002236360B7E7FEF7ABFBA0EB080002284B
:1037A000E4D9032065E7236823F001032360FEF7D3
:1037B0009FFB804623689B07A5D5FEF799FBA0EBEE
:1037C00008000228F6D9ECE7082E03D00C2E08D109
:1037D000032F06D123689A0398D56B68002B95D1E7
:1037E00046E76B68B3F5803F10D1236843F480331C
:1037F0002360FEF77DFB804623689B0386D4FEF79B
:1038000077FBA0EB08006428F6D9CAE7B3F5A02F30
:1038100004D1236843F480232360E6E7226822F47E
:1038200080322260226822F480222260002BE0D1C4
:10383000FEF75EFB8046236898037FF567AFFEF7CF
:1038400057FBA0EB08006428F5D9AAE7042E03D0A3
:103850000C2E10D1022F0ED12368590503D5EB6829
:10386000002B3FF405AF63682A6923F0F85343EA5D
:10387000026363604EE7EB687BB1236843F48073B7
:103880002360FEF735FB074623685A05EBD4FEF7A5
:103890002FFBC01B0228F7D983E7236823F480732A
:1038A0002360FEF725FB074623685B057FF532AFF3
:1038B000FEF71EFBC01B0228F6D972E76B699BB1AD
:1038C000D4F8943043F00103C4F89430FEF710FBB1
:1038D0000746D4F894309A073FF520AFFEF708FB6F
:1038E000C01B0228F5D95CE7D4F8943023F001031B
:1038F000C4F89430FEF7FCFA0746D4F894309B07DE
:103900007FF50CAFFEF7F4FAC01B0228F5D948E7A3
:103910000010024090AC000800000020A36DD80009
:1039200029D4A36D43F08053A365A36D03F08053A6
:103930000193019B4FF001085D4F3B68D9051DD5F0
:10394000AB68012B2BD1D4F8903043F00103C4F8BD
:103950009030FEF7CDFA41F288390746D4F890301E
:103960009B0742D5B8F1000F3FF4DCAEA36D23F006
:103970008053A365D6E64FF00008DDE73B6843F4CB
:1039800080733B60FEF7B4FA81463B68DA05D7D412
:10399000FEF7AEFAA0EB09000228F6D901E7052BE5
:1039A00006D1D4F8903043F00403C4F89030CAE74D
:1039B000D4F8902022F00102C4F89020D4F890208E
:1039C00022F00402C4F89020002BC2D1FEF790FA36
:1039D00041F288390746D4F890309807C2D5FEF7EF
:1039E00087FAC01B4845F6D9DBE6FEF781FAC01B13
:1039F0004845B3D9D5E60C2E3FF43AAE022B2368E6
:103A000023F08073236037D1FEF772FA06462368ED
:103A100099012BD46A6BEB6A43EA02232A6B013AC1
:103A200043EA0213AA6B120943EA4243EA6B5208C3
:103A3000013A43EA42532A6C5208013A43EA42638C
:103A4000E360236843F080732360E36843F080738E
:103A5000E360FEF74DFA054623689A013FF566AE2E
:103A6000FEF746FA401B0228F6D99AE6FEF740FA1E
:103A7000801B0228CBD994E6236813F0205F02BF95
:103A8000E36823F00303E360E36823F0887323F41F
:103A90008033E360FEF72CFA054623689B017FF52F
:103AA00045AEFEF725FA401B0228F6D979E600BF9D
:103AB000007000402DE9F0410E46044610B9012087
:103AC000BDE8F081404A136803F007038B4229D315
:103AD0002368D90731D421688A075BD43A4A13682E
:103AE00003F007039E425DD311F0040F374D64D1FC
:103AF0000B0706D5AB68226923F4605343EAC2037F
:103B0000AB60FFF75DFDAB68314AC3F30313BDE85B
:103B1000F041D35C03F01F03D8402E4B1860002007
:103B2000FEF7B0B9136823F007030B431360136863
:103B300003F007039942C2D1CAE76268234D032A02
:103B40002B681BD113F0007FB9D0AB6823F00303BF
:103B50001343AB60FEF7CCF941F288380746AB68F7
:103B6000626803F00C03B3EB820FB4D0FEF7C0F928
:103B7000C01B4045F3D90320BDE8F081022A02D1E1
:103B800013F4003FE0E712B913F0020FDCE713F47F
:103B9000806FD9E70D4AA068936823F0F0030343D0
:103BA00093609BE7136823F00703334313601368A4
:103BB00003F007039E4282D196E7AB68E26823F4E4
:103BC000E0631343AB6093E7002002400010024023
:103BD00090AC000800000020014B1868704700BF3F
:103BE00000000020054B064A9B68C3F30223D35C08
:103BF000044A106803F01F03D840704700100240C9
:103C0000A0AC000800000020054B064A9B68C3F3E7
:103C1000C223D35C044A106803F01F03D8407047E6
:103C200000100240A0AC000800000020F8B5454B91
:103C3000DA6812F0030F05460E461C4600682AD0CB
:103C4000DA6802F0030282423CD1002A3AD0DB68F3
:103C50006A68C3F302130133934233D1236823F01C
:103C600080632360FEF744F9074623681A0132D4C3
:103C7000AF68002E36D0012E50D12269286922F477
:103C8000C002400822F4FE42013842EA072242EA1A
:103C90004052226132E0022810D0032814D00128BB
:103CA00010D11B689F0738D5E3686A6823F0730357
:103CB000013A184340EA0210E060CFE71B6813F4B2
:103CC000806FF1D10120F8BD1A689103ECD41B6814
:103CD00013F4802FF5E7FEF70BF9C01B0228C4D9B7
:103CE0000320F8BD2169EB6821F41F3121F44071F4
:103CF00041EA07211B0941EA43412161236843F05E
:103D000080632360FEF7F4F8064623681B0113D591
:103D10002369AA69134323610020F8BD23696869F8
:103D200023F0C063400823F4FE43013843EA07232D
:103D300043EA40632361E1E7FEF7DAF8801B0228DB
:103D4000E3D9CDE700100240F8B53D4BDA6812F038
:103D5000030F05460E461C46006828D0DA6802F0BC
:103D6000030282423AD1002A38D0DB686A68C3F382
:103D700002130133934231D1236823F0805323602F
:103D8000FEF7B6F8074623689A0030D4A868002EDC
:103D900034D06369296923F0C063490823F4FE43E2
:103DA000013943EA002343EA4163636132E00228B8
:103DB00010D0032814D0012810D11B689F0738D5D4
:103DC000E3686A6823F07303013A184340EA02107B
:103DD000E060D1E71B6813F4806FF1D10120F8BDDA
:103DE0001A689103ECD41B6813F4802FF5E7FEF7F3
:103DF0007FF8C01B0228C6D90320F8BD6269EB68B2
:103E000022F41F3222F4407242EA00221B0942EAE5
:103E100043426261236843F080532360FEF768F8F1
:103E2000064623689B0005D563696A69134363618D
:103E30000020F8BDFEF75CF8801B0228F1D9DBE713
:103E4000001002402DE9F347066816F400660446A8
:103E500024D0416EB1F5800F2CD002D8C1B101261B
:103E60001CE0B1F5000F0DD0B1F5400FF7D14D4A70
:103E7000616ED2F8883023F440030B43C2F88830D7
:103E800000260BE0474AD36843F48033D360EEE763
:103E90000430FFF7CBFE06460028E8D02368D8049C
:103EA00006D5A16EB1F1807F74D008D8A9B10126E2
:103EB000354621E000212030FFF746FFEBE7B1F166
:103EC000007F04D0B1F1407FF1D1354609E0354A99
:103ED000D36843F48033D360F7E7201DFFF7A6FED5
:103EE0000546002D5CD12F4AA16ED2F8883023F010
:103EF00040730B43C2F888302368990340F14F8127
:103F0000284FBB6DDA0040F176814FF00008DFF8F2
:103F10009890D9F8003043F48073C9F80030FDF769
:103F2000E7FF8246D9F80030DB053FD5002D44D1AC
:103F3000D7F8903013F4407315D0D4F8842093420E
:103F400011D0D7F89030D7F8902042F48032C7F8DB
:103F50009020D7F8902023F4407322F48032C7F8E1
:103F60009020C7F89030D80709D5FDF7C1FF41F27E
:103F700088390546D7F89030990740F10981D7F87C
:103F80009030D4F8842023F440731343C7F8903062
:103F9000354612E0002104F12000FFF7D5FE9FE72F
:103FA0002E46A9E70010024000700040FDF7A0FF78
:103FB000A0EB0A000228B5D90325B8F1000F03D001
:103FC000BB6D23F08053BB652368DA0708D59049A1
:103FD000A06BD1F8882022F003020243C1F88820A8
:103FE0009F0708D58A49E06BD1F8882022F00C029F
:103FF0000243C1F888205E0708D58549206CD1F8B6
:10400000882022F030020243C1F88820180708D522
:104010007F49606CD1F8882022F0C0020243C1F8C9
:104020008820D90608D57A49A06CD1F8882022F4D6
:1040300040720243C1F888209A0608D57449E06CA2
:10404000D1F8882022F440620243C1F888209F05FD
:1040500008D56F49E06DD1F8882022F44022024350
:10406000C1F888205E0508D56949206ED1F88820FE
:1040700022F440120243C1F88820580608D564494A
:10408000206DD1F8882022F440520243C1F88820E4
:10409000190608D55E49606DD1F8882022F44042A7
:1040A0000243C1F88820DA0508D55949A06DD1F836
:1040B000882022F440320243C1F888209B040FD5A7
:1040C000534AE16ED2F8883023F040630B43B1F1DC
:1040D000006FC2F8883064D1D36843F48013D36092
:1040E00023681F030FD54A4A216FD2F8883023F086
:1040F00040630B43B1F1006FC2F888305CD1D368E4
:1041000043F48013D36023685E030FD5404A616F88
:10411000D2F8883023F040630B43B1F1006FC2F84E
:10412000883054D1D36843F48013D3602368580493
:1041300012D53749A26FD1F8883023F0405313438A
:10414000B2F1805FC1F888304CD10221201DFFF709
:104150006DFD002818BF05462268110408D52C49BA
:10416000E06FD1F8883023F080430343C1F88830F2
:10417000D30309D5264AD4F88010D2F8883023F02A
:1041800000430B43C2F88830284602B0BDE8F087F0
:10419000FDF7AEFE401B48457FF6ECAE0CE735461A
:1041A00012E7B1F1806F9BD10121201DFFF73EFD89
:1041B000002818BF054693E7B1F1806FA3D1012114
:1041C000201DFFF733FD002818BF05469BE7B1F11E
:1041D000806FABD10121201DFFF728FD002818BFFB
:1041E0000546A3E7B2F1005FB6D1022104F1200039
:1041F000FFF7AAFDADE7BB6D43F08053BB65BB6D18
:1042000003F080530193019B4FF001087FE600BF4C
:10421000001002400268C169F8B50446836800696D
:104220001568034360690343BA480B4328400343BE
:1042300013605368E06823F4405303435360B64B64
:10424000A0699A421CBF236A1843936823F4306321
:1042500003439360B14B9A4219D103F55843B04AD6
:10426000D3F8883003F00303B1F5004FD35C40F07E
:104270003881082B00F28F80DFE813F01A01CA00A2
:10428000F9008D0014018D008D008D003600A54BC6
:104290009A4207D103F5E633A34AD3F8883003F0F6
:1042A0000C03E1E7A14B9A4223D103F5E433D3F8A1
:1042B000883003F03003102B00F0F1800BD8002B76
:1042C00000F0F380B1F5004F4FF001024FF0000312
:1042D00000F0F880A8E0202B00F0C680302BF1D150
:1042E000B1F5004F40F0B8806068430803F58033B3
:1042F000C3E08F4B9A421ED103F5E233D3F88830E6
:1043000003F0C003402B00F0BB800AD87BB9824B7E
:104310009A4240F0CA80FFF765FC0023B0BB02461A
:104320003AE0802B00F09D80C02B00F0B0807A4BEB
:104330009A42C7D12FE07F4B9A4211D103F5E03367
:10434000D3F8883003F44073B3F5807F00F0988091
:10435000DCD9B3F5007F00F08480B3F5407FE4E75B
:104360006D4B9A42AED103F5C833D3F8883003F4CD
:104370004063B3F5806F00F08380C7D9B3F5006F59
:104380006FD0B3F5406FD0E76B480223626802EB51
:104390004201814205D9012200232366636610464B
:1043A000F8BDB0EB023FF6D8082B2ED8DFE803F0BB
:1043B000052D1C2D242D2D2D2700FFF713FC6268E1
:1043C0004FF4807156080027E1FB00670023304658
:1043D0003946FCF735FC0022584BA0F54071994254
:1043E000D9D82368D860D7E755485508002300215D
:1043F000401941F10001ECE7FFF7E2F8DFE7500870
:104400000021002310F50000F3E701220020E3E77C
:10441000FFF7FAFB4EE0FFF7E5FB626800EB5203A3
:10442000B3FBF2F39BB20022A3F110004FF6EF7141
:104430008842B0D82168CB60AEE7FFF7E5FBECE738
:104440006068430803F5740303F51053B3FBF0F3FE
:10445000E8E7FFF7B5F8E0E76068430803F50043D5
:10446000F4E72D4B9A428FD0B1F5004FE8D1606848
:10447000430803F1F47303F59043B3FBF0F31FE03B
:10448000254B9A420BD1FFF79BF8042346E7224BBA
:104490009A427FF425AF4FF40040082376E7B1F548
:1044A000004FD6D1FFF78CF804E0B1F5004FB2D140
:1044B000FFF798FB61684A0802EB4003B3FBF1F396
:1044C0009BB20022A3F110004FF6EF7188423FF635
:1044D00062AF23F00F012068C3F342030B43C360B4
:1044E0005AE7082B3FF657AF01A252F823F000BF5E
:1044F000174400083B440008414400089743000863
:104500005344000897430008974300089743000866
:1045100059440008F369FFEF008000400038014073
:104520007FAC00080044004083AC00080048004015
:10453000004C0040005000400024F400FFFC0F003D
:10454000000024F4436ADA0710B506D50168846ACE
:104550004A6822F4003222434A609C0706D501686B
:10456000C46A4A6822F4803222434A60590706D559
:104570000168046B4A6822F4802222434A601A07C9
:1045800006D50168446B4A6822F4004222434A601F
:10459000DC0606D50168846B8A6822F480522243C7
:1045A0008A60990606D50168C46B8A6822F40052B5
:1045B00022438A605A060FD50168046C4A6822F4C7
:1045C00080122243B4F5801F4A6005D14A68446CCA
:1045D00022F4C00222434A601B0606D50268816CA1
:1045E000536823F400230B43536010BD2DE9F041C1
:1045F000069D04460F46164698462168CA6937EA62
:1046000002030CBF01220022B24202D00020BDE80A
:10461000F0816B1CF2D09DB923681A6822F4D07225
:104620001A609A6822F001029A60202384F871309F
:1046300084F87230002384F870300320BDE8F081E4
:10464000FDF756FCA0EB08008542D6D2E4E773B52F
:10465000044600264667FDF74BFC23681B681A07D3
:10466000054617D423681B685B070AD56FF07E43A5
:10467000009300222B464FF480012046FFF7B6FF3F
:10468000A0B92023002084F8713084F8700084F8E9
:1046900072300CE06FF07E430093324603464FF4D5
:1046A00000112046FFF7A2FF0028DBD0032002B054
:1046B00070BD10B5044660B390F8713003F0FF028E
:1046C0001BB980F8702002F0A1FB2268242384F833
:1046D0007130136823F0010313602046FFF79AFD41
:1046E000012816D0636A13B12046FFF72BFF236819
:1046F0005A6822F490425A609A6822F02A029A601C
:104700001A6842F0010220461A60BDE81040FFF727
:104710009EBF012010BD80B582B000AF87ED010AB9
:104720003860386897ED010AFCF7A2FAF0EE407A9B
:10473000B0EE670A0837BD4680BD80B483B000AFD5
:10474000786039607B683A681A657B6818460C3770
:10475000BD465DF8047B7047B0B590B004AF78609B
:104760007B68186D4FF4FA7302931623019307F1D7
:104770000C0300930123AA22EE21FEF745FD034618
:104780001A467B6883F84C207B6893F84C30002BEA
:1047900040F022833B7B1B021AB27B7B1BB213438C
:1047A0001AB27B681A80BB7B1B021AB2FB7B1BB25E
:1047B00013431AB27B685A803B7C1B021AB27B7C83
:1047C0001BB213431AB27B689A80BB7C1B021AB2DD
:1047D000FB7C1BB213431BB29AB27B681A823B7DEF
:1047E0001B021AB27B7D1BB213431BB29AB27B68C9
:1047F0005A82BB7D1B021AB2FB7D1BB213431BB254
:104800009AB27B689A823B7E1B021AB27B7E1BB2F5
:1048100013431AB27B68DA80BB7E1B021AB2FB7E9E
:104820001BB213431AB27B681A813B7F1B021AB278
:104830007B7F1BB213431AB27B685A81BB7F1B027A
:104840001AB2FB7F1BB213431AB27B689A8197F8A6
:1048500020301B021AB297F821301BB213431AB250
:104860007B68DA817B68B3F900301946D84804F0D8
:104870002DF87B68B3F902301946D64804F026F8C3
:104880007B68B3F904301946D34804F01FF87B68FD
:104890001B8A1946D14804F019F87B685B8A1946CF
:1048A000CF4804F013F87B689B8A1946CD4804F082
:1048B0000DF87B68B3F906301946CB4804F006F8CA
:1048C0007B68B3F908301946C84803F0FFFF7B68DE
:1048D000B3F90A301946C64803F0F8FF7B68B3F90C
:1048E0000C301946C34803F0F1FF7B68B3F90E3072
:1048F0001946C14803F0EAFF6FF00E01022000F0F4
:104900000EFD51EC100B4FF00002BC4BFBF770FE9C
:1049100003460C4625461C467B68B3F9043018460E
:10492000FBF700FE02460B4620462946FBF760FED9
:1049300003460C4618462146FCF732F90346FB6253
:104940006FF002010A2000F0EAFC55EC104B6FF00A
:104950000E01022000F0E3FC53EC102B2046294608
:10496000FBF746FE03460C4625461C467B681B8A21
:104970001846FBF7D7FD02460B4620462946FBF7B3
:1049800037FE03460C4618462146FCF709F9034654
:10499000BB620221A02000F0C2FC55EC104B6FF06E
:1049A0001D01022000F0BBFC53EC102B20462946D1
:1049B000FBF71EFE03460C4625461C467B68B3F9F2
:1049C00006301846FBF7AEFD02460B462046294648
:1049D000FBF70EFE03460C4618462146FCF7E0F8AE
:1049E00003467B626FF00E01022000F098FC51EC50
:1049F000100B4FF00002814BFBF724FF03460C46DF
:104A000025461C467B685B8A1846FBF78BFD0246F1
:104A10000B4620462946FBF7EBFD03460C4618469D
:104A20002146FCF7BDF802467B689A617B689B8A49
:104A300007EE903AF8EE677A7B68C3ED077A0B21B0
:104A4000022000F06CFC55EC104B0221A02000F07D
:104A500066FC53EC102B20462946FBF7F3FE034679
:104A60000C4625461C467B68B3F90C301846FBF70C
:104A700059FD02460B4620462946FBF7B9FD034681
:104A80000C4618462146FCF78BF802467B681A62F2
:104A90007B68B3F90E301846FBF744FD4FF0000277
:104AA000564BFBF7CFFE03460C4618462146FCF753
:104AB00077F802467B685A627B68B3F9003007EEEC
:104AC000903AF8EEE77A7B68C3ED0A7A6FF00C0152
:104AD000022000F024FC51EC100B4FF00002474B79
:104AE000FBF786FD03460C4625461C467B68B3F95A
:104AF00002301846FBF716FD02460B4620462946B3
:104B0000FBF776FD03460C4618462146FCF748F8AD
:104B100002467B68DA620221A02000F000FC55EC1E
:104B2000104B6FF01801022000F0F9FB53EC102B32
:104B300020462946FBF75CFD03460C4625461C46ED
:104B40007B68B3F908301846FBF7ECFC02460B46CD
:104B500020462946FBF74CFD03460C4618462146E5
:104B6000FCF71EF802467B681A63B86AFBF7ECFC98
:104B700004460D460F21022000F0D1FB53EC102B10
:104B800020462946FBF734FD03460C4618462146CD
:104B9000FCF706F802467B685A6397ED0A7AD7ED70
:104BA0000B7A67EE277A7B68C3ED0E7A97ED0A7A67
:104BB000D7ED097A67EE277A7B68C3ED0F7A7B68B9
:104BC0000F4A5A636FF01301022000F0A8FB19E0AE
:104BD00000A8000814A8000828A800083CA800089D
:104BE00050A8000864A8000878A800088CA800084D
:104BF000A0A80008B0A80008C0A8000800006440F1
:104C0000EC51174051EC100B8AA3D3E90023FBF7BA
:104C1000EFFC03460C461A4623464FF00000744949
:104C2000FBF732FB03460C4618462146FBF7B8FF5C
:104C300002467B689A636FF02301022000F06FFB4D
:104C400051EC100B68A3D3E90023FBF7D1FC03461A
:104C50000C4618462146FBF7A3FF02467B68DA6341
:104C6000F86AFBF771FC03460C461A462346614876
:104C700003F02CFEB86AFBF767FC03460C461A46A5
:104C800023465D4803F022FE7B689B691846FBF7CC
:104C90005BFC03460C461A462346584803F016FEB2
:104CA0007B68DB691846FBF74FFC03460C461A4647
:104CB0002346534803F00AFE786AFBF745FC034697
:104CC0000C461A4623464F4803F000FE7B681B6AD9
:104CD0001846FBF739FC03460C461A4623464A4859
:104CE00003F0F4FD7B685B6A1846FBF72DFC034676
:104CF0000C461A462346454803F0E8FD7B689B6A4C
:104D00001846FBF721FC03460C461A46234640484A
:104D100003F0DCFD7B68DB6A1846FBF715FC0346F5
:104D20000C461A4623463B4803F0D0FD7B681B6BBC
:104D30001846FBF709FC03460C461A46234636483C
:104D400003F0C4FD7B685B6B1846FBF7FDFB034675
:104D50000C461A462346314803F0B8FD7B689B6B2E
:104D60001846FBF7F1FB03460C461A4623462C482F
:104D700003F0ACFD7B68DB6B1846FBF7E5FB0346F5
:104D80000C461A462346274803F0A0FD7B681B6C9F
:104D90001846FBF7D9FB03460C461A462346224821
:104DA00003F094FD7B685B6C1846FBF7CDFB034674
:104DB0000C461A4623461D4803F088FD7B689B6C11
:104DC0001846FBF7C1FB03460C461A462346184813
:104DD00003F07CFD012300E0002318463037BD4678
:104DE000B0BD00BFAFF3008000000000E08A1241B8
:104DF0000000F03FD0A80008E0A80008F0A80008D4
:104E000004A9000818A9000828A900083CA900085E
:104E100050A9000864A9000878A900088CA9000816
:104E2000A0A90008B4A90008C8A90008DCA90008C6
:104E3000F0A900080000000000BDBC4080B584B0AF
:104E400000AF78602E23BB7307F10E020123F4211B
:104E5000786800F03AFA0346FB73FB7B002B01D025
:104E6000052300E0002318461037BD4680BD000032
:104E7000B0B586B000AF7860396007F10802022350
:104E8000F621786800F0CAF90346FB75FB7D002B1C
:104E90005FD03B7A1846FBF745FB4FF000022F4BE3
:104EA000FBF7A6FB03460C4625461C467B7A1846B4
:104EB000FBF738FB02460B4620462946FBF7E6F98E
:104EC00003460C4618462146FBF76AFE03463B6143
:104ED0007B6893ED067A7B68D3ED077AD7ED046A99
:104EE00076EEE77A67EE277AC7ED037A7B68D3ED33
:104EF000086A7B6893ED097AD7ED037A77EE277A13
:104F000086EEA77AD7ED037A77EE277A3B68C3ED72
:104F1000007A3869FBF718FB03460C461A4623460D
:104F20000F4803F0D3FCF868FBF70EFB03460C4672
:104F30001A4623460B4803F0C9FC3B681B68184619
:104F4000FBF702FB03460C461A462346064803F0CD
:104F5000BDFCFB7D18461837BD46B0BD0000704053
:104F600004AA000820AA00083CAA000880B584B062
:104F700000AF786039603B68032B1FD801A252F85C
:104F800023F000BF954F00089F4F0008A94F00086D
:104F9000B34F000834237B730523FB7313E07423A2
:104FA0007B730823FB730EE0B4237B730E23FB7328
:104FB00009E0F4237B731A23FB7304E034237B732F
:104FC0000523FB7300BF07F10D020123F42178686C
:104FD00000F07BF90346BB73BB7B002B01D0FB7B4E
:104FE00000E0002318461037BD4680BDB0B52DED5A
:104FF000028B8EB002AFF860B96087ED010A07F14D
:1050000014020323F621F86800F008F9034687F834
:105010002F3097F82F30002B00F0E6803B7D1846AC
:10502000FBF780FA4FF00002734BFBF7E1FA0346FF
:105030000C4625461C467B7D1846FBF773FA024654
:105040000B4620462946FBF721F903460C46254628
:105050001C46BB7D1846FBF765FA4FF00002664B15
:10506000FBF7F0FB02460B4620462946FBF70EF9FC
:1050700003460C4618462146FBF792FD0346BB62E9
:10508000D7ED017AB3EE097A77EEC77AC7ED097AE0
:10509000FB6893ED0C8A022097ED090AFFF73BFBB2
:1050A000F0EE407A28EE277AFB68D3ED0B6AD7ED55
:1050B000097A66EEA77A37EE277AFB68D3ED0A7A8B
:1050C00077EE277AC7ED087AFB6893ED0F8A022006
:1050D00097ED090AFFF71FFBF0EE407A28EE277ADA
:1050E000FB68D3ED0E6AD7ED097A66EEA77A37EE44
:1050F000277AFB68D3ED0D7A77EE277AC7ED077A2A
:1051000097ED0A7AD7ED087A77EE676A97ED077A16
:10511000C6EE877AC7ED067AFB6893ED128A022005
:1051200097ED060AFFF7F7FAF0EE407A28EE277AB5
:10513000FB68D3ED116AD7ED067A66EEA77A37EEF3
:10514000277AFB68D3ED107A77EE277ABB68C3ED38
:10515000007ABB681B681846FBF7F6F903460C4655
:105160008DE818004FF483722449254803F0AEFB04
:105170007868FBF7E9F903460C461A4623462148AE
:1051800003F0A4FB786AFBF7DFF903460C461A46E6
:1051900023461D4803F09AFB386AFBF7D5F903460E
:1051A0000C461A462346194803F090FBF869FBF7B2
:1051B000CBF903460C461A462346154803F086FBF6
:1051C000B869FBF7C1F903460C461A462346114855
:1051D00003F07CFBB86AFBF7B7F903460C461A46A6
:1051E00023460D4803F072FB97F82F3018463037EE
:1051F000BD46BDEC028BB0BD00007040DCAA0008CB
:1052000060AA000878AA00088CAA00089CAA0008D6
:10521000ACAA0008BCAA0008CCAA000890B5CBB084
:1052200004AF07F10C0420600846391D0A603A46B5
:10523000136007F10B0302461A7007F10C031B6899
:10524000186D07F10B031B7899B23B461B689BB2A4
:105250004FF4FA720292019307F1140300930123B1
:105260000A46EE21FDF7D0FF03461A4607F10C036C
:105270001B6883F84C2007F10C031B6893F84C3033
:10528000002B1CD10023C7F814313B46D7F814215A
:105290001B689A4211DAD7F814313A1D1268134488
:1052A00007F11401D7F814210A4412781A70D7F8BC
:1052B00014310133C7F81431E7E7012300E000237C
:1052C000184607F58E77BD4690BD80B588B004AF0F
:1052D000F8607A603B600B46FB72FB68186DFB7AE6
:1052E00099B23B689BB24FF4FA72029201937B68C9
:1052F000009301230A46EE21FDF7CEFE03461A462F
:10530000FB6883F84C20FB6893F84C30002B01D1EC
:10531000012300E0002318461037BD4680BDB0B51C
:1053200082B000AF786039607868FBF7FBF804461C
:105330000D463868FBF7F6F802460B4643EC112B96
:1053400045EC104B01F0BEFDB0EE407AF0EE607A15
:10535000B0EE470AF0EE670A0837BD46B0BD000060
:1053600080B584B000AF78600F4B5B68FB60FEF7E0
:1053700033FC02460D4BA3FB02239A0C7B6802FB15
:1053800003F37B60084B5A68FB68D21A7B689A4229
:1053900034BF01230023DBB2002B00D0F2E700BFB3
:1053A0001037BD4680BD00BF001000E083DE1B4308
:1053B00080B485B000AFF860B9607A60FB68BA6805
:1053C0001A60FB687A685A60FB6818461437BD4655
:1053D0005DF8047B704780B582B000AF78607B6871
:1053E0005A687B68DA627B6801221A637B68002254
:1053F0009A637B681A687B682C3319461046FDF760
:1054000069FA00BF0837BD4680BD80B582B000AFE5
:1054100078607B685A687B68DA627B6800221A636E
:105420007B6800225A637B681A687B682C331946B4
:105430001046FDF74FFA00BF0837BD4680BD80B566
:1054400082B000AF78607868FFF7C5FF7B681868A6
:105450007B685B689BB200221946FDF71DFB12209A
:10546000FCF74CFD7868FFF7D0FF00BF0837BD465A
:1054700080BD80B582B000AF78602820FFF770FF54
:105480007B681A687B685B689BB219461046FDF71B
:10549000FDFA0346002B0CBF01230023DBB2002BD7
:1054A00017D05020FFF75CFF7B681A687B685B6849
:1054B0009BB219461046FDF7E9FA0346002B14BFCC
:1054C00001230023DBB2002B03D07B68012283F889
:1054D0002A207B681A687B685B689BB21946104675
:1054E000FDF7D4FA0346002B14BF01230023DBB2DF
:1054F000002B00D0EDE700BF0837BD4680BD80B56A
:1055000084B000AF78600023BB73BB7B072B56DCF5
:105510007B681A687B685B689BB219461046FDF78A
:10552000B5FA0346002B0CBF01230023DBB2002B8E
:1055300000D0EDE72820FFF713FF7B681A687B682F
:105540005B689BB219461046FDF7A0FA0346002B94
:105550000CBF01230023DBB2002B0ED0BB7BC3F1B9
:105560000703012202FA03F35BB2DB435AB297F955
:105570000F3013405BB2FB730BE0BB7BC3F107033F
:10558000012202FA03F35AB297F90F3013435BB2C8
:10559000FB737B681A687B685B689BB21946104690
:1055A000FDF774FA0346002B14BF01230023DBB27E
:1055B000002B00D0EDE7BB7B0133BB73A5E7FB7B82
:1055C00018461037BD4680BD80B584B000AF786006
:1055D0007868FFF734FF7868FFF74BFF7868FFF7CC
:1055E0008EFF03461A467B681A727868FFF787FFBA
:1055F00003461A467B685A727868FFF780FF0346B5
:105600001A467B689A727868FFF779FF03461A4654
:105610007B68DA727868FFF772FF0346FB607B688D
:105620001B7A1A467B685B7A13447A68927A134431
:105630007A68D27A1A44FB689A4201D0002300E0CB
:10564000012318461037BD4680BD00000000000051
:10565000B0B582B000AF78607B689B7A07EE903A75
:10566000F8EE677A17EE900AFAF76EFF04460D46D9
:105670007B68DB7A1846FAF755FF0DA3D3E90023C0
:10568000FBF7E0F802460B4620462946FAF7FEFDF6
:1056900003460C4618462146FBF782FA034607EEFE
:1056A000903AB0EE670A0837BD46B0BDAFF3008050
:1056B0000000000000E06F40B0B582B000AF78603D
:1056C0007B681B7A07EE903AF8EE677A17EE900A3D
:1056D000FAF73AFF04460D467B685B7A1846FAF7FC
:1056E00021FF0DA3D3E90023FBF7ACF802460B46DC
:1056F00020462946FAF7CAFD03460C4618462146BD
:10570000FBF74EFA034607EE903AB0EE670A083709
:10571000BD46B0BDAFF300800000000000E06F4068
:105720000D4BDA6822F08072DA60DA6842F080723B
:10573000DA600A4B1A6822F001021A601A6842F015
:1057400001021A6000225A6000BF00BF00BF586803
:10575000B0FA80F040097047F0ED00E0001000E082
:1057600080B586B004AF7860084611461A460346F5
:10577000FB700B46BB7013467B707B68D868FB7868
:105780009BB25B0099B2BB789AB264230293012367
:1057900001937B1C00930123FDF77EFC0120FCF7A5
:1057A000ADFB00BF0837BD4680BD80B588B004AFF3
:1057B00078600B46FB701346BB707B68D868FB783B
:1057C0009BB25B0099B2BB789AB264230293012327
:1057D000019307F10F0300930123FDF715FD01204D
:1057E000FCF78CFBFB7B18461037BD4680BD80B5AF
:1057F00088B004AF7860084611461A460346FB702D
:105800000B46BB7013463B803B88DBB23B733B8847
:105810001B12DBB27B737B68D868FB789BB25B00A2
:1058200099B2BB789AB2642302930223019307F1E1
:105830000C0300930123FDF72FFC0120FCF75EFB16
:1058400000BF1037BD4680BD80B588B004AF78601A
:105850000B46FB701346BB707B68D868FB789BB225
:105860005B0099B2BB789AB264230293022301933E
:1058700007F10C0300930123FDF7C6FC0120FCF7A0
:105880003DFB3B7BFB817B7B1B021AB2B7F90E30E1
:1058900013431BB2FB81FB8918461037BD4680BD00
:1058A00080B586B002AF78600B46FB7013463B8034
:1058B00000233B723B88DBB27B723B881B12DBB25E
:1058C000BB727B68D868FB789BB25B0099B207F12A
:1058D0000802642300930323FDF7B4FAFB78002247
:1058E00019467868FFF7B0FF0346FB810120FCF7FB
:1058F00005FBFB8918461037BD4680BD80B584B0D6
:1059000000AF78600B46FB70FB7800221946786880
:10591000FFF7C6FF0346FB81FB8903F40053002B0E
:1059200014BF01230023DBB218461037BD4680BDEB
:1059300080B58CB000AFF860084611461A460346A1
:10594000FB720B463B811346FB803A891346DB0012
:1059500013449B001344B94A82FB03129210DB17D5
:10596000D31ABB853B891A46920013445B009AB256
:105970003B8FB2FBF3F37B85002387F82F3097F83A
:105980002F30013387F82F3097F82F30642B01DD4B
:10599000012391E2F97A4FF400430022F868FFF7FF
:1059A00026FFF97A4FF400430022F868FFF71FFF43
:1059B0000A20FCF7A3FAFB7A1946F868FFF79EFF66
:1059C0000346002B00D0DAE7F97A13230022F868A7
:1059D000FFF70DFFFB7A06221946F868FFF734FF40
:1059E00003463B853B8D03F01003002B00D1F1E70C
:1059F000F97A00236122F868FFF7B2FEF97A5223A0
:105A00003E22F868FFF7ACFEF97A00233F22F868DF
:105A1000FFF7A6FEFB7A60221946F868FFF7C5FE7D
:105A2000034687F82730002387F82F3097F82F3068
:105A3000013387F82F3097F82F30642B01DD0223D4
:105A40003AE297F82730DB4387F82630FB7A4A2280
:105A50001946F868FFF7F8FE0346BB84FB7A4C2230
:105A60001946F868FFF7F0FE03467B84FB7A502264
:105A70001946F868FFF7E8FE03463B84FB7A5B2291
:105A80001946F868FFF7E0FE0346FB83BB8C1B1248
:105A9000DBB297F82620D31A87F82630BB8CDBB20E
:105AA00097F82620D31A87F826307B8C1B12DBB29E
:105AB00097F82620D31A87F826307B8CDBB297F82C
:105AC0002620D31A87F826303B8C1B12DBB297F8BE
:105AD0002620D31A87F826303B8CDBB297F8262095
